{
  "contractName": "IdentityProvider",
  "abi": [
    {
      "inputs": [],
      "payable": false,
      "stateMutability": "nonpayable",
      "type": "constructor"
    },
    {
      "anonymous": false,
      "inputs": [
        {
          "indexed": true,
          "internalType": "address",
          "name": "previousOwner",
          "type": "address"
        },
        {
          "indexed": true,
          "internalType": "address",
          "name": "newOwner",
          "type": "address"
        }
      ],
      "name": "OwnershipTransferred",
      "type": "event"
    },
    {
      "constant": true,
      "inputs": [],
      "name": "owner",
      "outputs": [
        {
          "internalType": "address",
          "name": "",
          "type": "address"
        }
      ],
      "payable": false,
      "stateMutability": "view",
      "type": "function"
    },
    {
      "constant": false,
      "inputs": [
        {
          "internalType": "address",
          "name": "newOwner",
          "type": "address"
        }
      ],
      "name": "transferOwnership",
      "outputs": [],
      "payable": false,
      "stateMutability": "nonpayable",
      "type": "function"
    },
    {
      "constant": true,
      "inputs": [
        {
          "internalType": "address",
          "name": "_identity",
          "type": "address"
        }
      ],
      "name": "identityExists",
      "outputs": [
        {
          "internalType": "bool",
          "name": "",
          "type": "bool"
        }
      ],
      "payable": false,
      "stateMutability": "view",
      "type": "function"
    },
    {
      "constant": true,
      "inputs": [
        {
          "internalType": "address",
          "name": "_identity",
          "type": "address"
        }
      ],
      "name": "getIdentityRoleName",
      "outputs": [
        {
          "internalType": "string",
          "name": "",
          "type": "string"
        }
      ],
      "payable": false,
      "stateMutability": "view",
      "type": "function"
    },
    {
      "constant": true,
      "inputs": [
        {
          "internalType": "address",
          "name": "_identity",
          "type": "address"
        }
      ],
      "name": "getIdentityOwner",
      "outputs": [
        {
          "internalType": "address",
          "name": "",
          "type": "address"
        }
      ],
      "payable": false,
      "stateMutability": "view",
      "type": "function"
    },
    {
      "constant": true,
      "inputs": [
        {
          "internalType": "address",
          "name": "_identity",
          "type": "address"
        }
      ],
      "name": "getIdentityRole",
      "outputs": [
        {
          "internalType": "uint256",
          "name": "",
          "type": "uint256"
        }
      ],
      "payable": false,
      "stateMutability": "view",
      "type": "function"
    },
    {
      "constant": true,
      "inputs": [
        {
          "internalType": "address",
          "name": "_identity",
          "type": "address"
        }
      ],
      "name": "getIdentityCreationTime",
      "outputs": [
        {
          "internalType": "uint256",
          "name": "",
          "type": "uint256"
        }
      ],
      "payable": false,
      "stateMutability": "view",
      "type": "function"
    },
    {
      "constant": true,
      "inputs": [
        {
          "internalType": "address",
          "name": "_identity",
          "type": "address"
        }
      ],
      "name": "getIdentityName",
      "outputs": [
        {
          "internalType": "string",
          "name": "",
          "type": "string"
        }
      ],
      "payable": false,
      "stateMutability": "view",
      "type": "function"
    },
    {
      "constant": false,
      "inputs": [
        {
          "internalType": "string",
          "name": "_name",
          "type": "string"
        },
        {
          "internalType": "uint256",
          "name": "_roleID",
          "type": "uint256"
        },
        {
          "internalType": "address",
          "name": "_identity",
          "type": "address"
        },
        {
          "internalType": "address",
          "name": "_owner",
          "type": "address"
        }
      ],
      "name": "addIdentityOwnedBy",
      "outputs": [],
      "payable": false,
      "stateMutability": "nonpayable",
      "type": "function"
    },
    {
      "constant": false,
      "inputs": [
        {
          "internalType": "string",
          "name": "_name",
          "type": "string"
        },
        {
          "internalType": "uint256",
          "name": "_roleID",
          "type": "uint256"
        },
        {
          "internalType": "address",
          "name": "_identity",
          "type": "address"
        }
      ],
      "name": "addIdentity",
      "outputs": [],
      "payable": false,
      "stateMutability": "nonpayable",
      "type": "function"
    },
    {
      "constant": false,
      "inputs": [
        {
          "internalType": "address",
          "name": "_identity",
          "type": "address"
        }
      ],
      "name": "deleteIdentity",
      "outputs": [
        {
          "internalType": "bool",
          "name": "",
          "type": "bool"
        }
      ],
      "payable": false,
      "stateMutability": "nonpayable",
      "type": "function"
    },
    {
      "constant": true,
      "inputs": [],
      "name": "testConnection",
      "outputs": [
        {
          "internalType": "bool",
          "name": "",
          "type": "bool"
        }
      ],
      "payable": false,
      "stateMutability": "pure",
      "type": "function"
    },
    {
      "constant": true,
      "inputs": [],
      "name": "getAddress",
      "outputs": [
        {
          "internalType": "address",
          "name": "",
          "type": "address"
        }
      ],
      "payable": false,
      "stateMutability": "view",
      "type": "function"
    },
    {
      "constant": false,
      "inputs": [],
      "name": "addTestData",
      "outputs": [],
      "payable": false,
      "stateMutability": "nonpayable",
      "type": "function"
    },
    {
      "constant": true,
      "inputs": [],
      "name": "getKnownManufacturers",
      "outputs": [
        {
          "internalType": "address[]",
          "name": "",
          "type": "address[]"
        }
      ],
      "payable": false,
      "stateMutability": "view",
      "type": "function"
    },
    {
      "constant": true,
      "inputs": [],
      "name": "getKnownServiceProviders",
      "outputs": [
        {
          "internalType": "address[]",
          "name": "",
          "type": "address[]"
        }
      ],
      "payable": false,
      "stateMutability": "view",
      "type": "function"
    },
    {
      "constant": true,
      "inputs": [],
      "name": "getKnownSuppliers",
      "outputs": [
        {
          "internalType": "address[]",
          "name": "",
          "type": "address[]"
        }
      ],
      "payable": false,
      "stateMutability": "view",
      "type": "function"
    },
    {
      "constant": true,
      "inputs": [],
      "name": "getKnownDevices",
      "outputs": [
        {
          "internalType": "address[]",
          "name": "",
          "type": "address[]"
        }
      ],
      "payable": false,
      "stateMutability": "view",
      "type": "function"
    }
  ],
  "bytecode": "0x608060405234801561001057600080fd5b50336000806101000a81548173ffffffffffffffffffffffffffffffffffffffff021916908373ffffffffffffffffffffffffffffffffffffffff160217905550336000806101000a81548173ffffffffffffffffffffffffffffffffffffffff021916908373ffffffffffffffffffffffffffffffffffffffff160217905550611e6a806100a06000396000f3fe608060405234801561001057600080fd5b50600436106101165760003560e01c80639cf1b907116100a2578063aff93e0711610071578063aff93e0714610732578063cc78653414610791578063f2fde38b146107e9578063f3e9106d1461082d578063f5a4a8ae1461088c57610116565b80639cf1b90714610568578063a212b454146105c7578063a8d29d1d146105d1578063aed27cc71461062d57610116565b80634eb0469c116100e95780634eb0469c146102675780636bfd4def14610324578063716890a51461037c5780638b0e6b0e146104395780638da5cb5b1461051e57610116565b806312cbf1321461011b5780633412a15c1461019f57806338cc4831146101c15780634d221b851461020b575b600080fd5b61015d6004803603602081101561013157600080fd5b81019080803573ffffffffffffffffffffffffffffffffffffffff1690602001909291905050506108eb565b604051808273ffffffffffffffffffffffffffffffffffffffff1673ffffffffffffffffffffffffffffffffffffffff16815260200191505060405180910390f35b6101a7610957565b604051808215151515815260200191505060405180910390f35b6101c9610960565b604051808273ffffffffffffffffffffffffffffffffffffffff1673ffffffffffffffffffffffffffffffffffffffff16815260200191505060405180910390f35b61024d6004803603602081101561022157600080fd5b81019080803573ffffffffffffffffffffffffffffffffffffffff169060200190929190505050610968565b604051808215151515815260200191505060405180910390f35b6102a96004803603602081101561027d57600080fd5b81019080803573ffffffffffffffffffffffffffffffffffffffff1690602001909291905050506109d2565b6040518080602001828103825283818151815260200191508051906020019080838360005b838110156102e95780820151818401526020810190506102ce565b50505050905090810190601f1680156103165780820380516001836020036101000a031916815260200191505b509250505060405180910390f35b6103666004803603602081101561033a57600080fd5b81019080803573ffffffffffffffffffffffffffffffffffffffff169060200190929190505050610c37565b6040518082815260200191505060405180910390f35b6103be6004803603602081101561039257600080fd5b81019080803573ffffffffffffffffffffffffffffffffffffffff169060200190929190505050610c9b565b6040518080602001828103825283818151815260200191508051906020019080838360005b838110156103fe5780820151818401526020810190506103e3565b50505050905090810190601f16801561042b5780820380516001836020036101000a031916815260200191505b509250505060405180910390f35b61051c6004803603606081101561044f57600080fd5b810190808035906020019064010000000081111561046c57600080fd5b82018360208201111561047e57600080fd5b803590602001918460018302840111640100000000831117156104a057600080fd5b91908080601f016020809104026020016040519081016040528093929190818152602001838380828437600081840152601f19601f82011690508083019250505050505050919291929080359060200190929190803573ffffffffffffffffffffffffffffffffffffffff169060200190929190505050610d7f565b005b6105266111be565b604051808273ffffffffffffffffffffffffffffffffffffffff1673ffffffffffffffffffffffffffffffffffffffff16815260200191505060405180910390f35b6105706111e3565b6040518080602001828103825283818151815260200191508051906020019060200280838360005b838110156105b3578082015181840152602081019050610598565b505050509050019250505060405180910390f35b6105cf611271565b005b610613600480360360208110156105e757600080fd5b81019080803573ffffffffffffffffffffffffffffffffffffffff1690602001909291905050506115bc565b604051808215151515815260200191505060405180910390f35b6107306004803603608081101561064357600080fd5b810190808035906020019064010000000081111561066057600080fd5b82018360208201111561067257600080fd5b8035906020019184600183028401116401000000008311171561069457600080fd5b91908080601f016020809104026020016040519081016040528093929190818152602001838380828437600081840152601f19601f82011690508083019250505050505050919291929080359060200190929190803573ffffffffffffffffffffffffffffffffffffffff169060200190929190803573ffffffffffffffffffffffffffffffffffffffff1690602001909291905050506117a5565b005b61073a6119f7565b6040518080602001828103825283818151815260200191508051906020019060200280838360005b8381101561077d578082015181840152602081019050610762565b505050509050019250505060405180910390f35b6107d3600480360360208110156107a757600080fd5b81019080803573ffffffffffffffffffffffffffffffffffffffff169060200190929190505050611a85565b6040518082815260200191505060405180910390f35b61082b600480360360208110156107ff57600080fd5b81019080803573ffffffffffffffffffffffffffffffffffffffff169060200190929190505050611ad1565b005b610835611c22565b6040518080602001828103825283818151815260200191508051906020019060200280838360005b8381101561087857808201518184015260208101905061085d565b505050509050019250505060405180910390f35b610894611cb0565b6040518080602001828103825283818151815260200191508051906020019060200280838360005b838110156108d75780820151818401526020810190506108bc565b505050509050019250505060405180910390f35b6000600160008373ffffffffffffffffffffffffffffffffffffffff1673ffffffffffffffffffffffffffffffffffffffff16815260200190815260200160002060020160019054906101000a900473ffffffffffffffffffffffffffffffffffffffff169050919050565b60006001905090565b600030905090565b6000600160008373ffffffffffffffffffffffffffffffffffffffff1673ffffffffffffffffffffffffffffffffffffffff16815260200190815260200160002060020160159054906101000a900460ff16156109c857600190506109cd565b600090505b919050565b60606000600160008473ffffffffffffffffffffffffffffffffffffffff1673ffffffffffffffffffffffffffffffffffffffff16815260200190815260200160002060020160009054906101000a900460ff16905060016005811115610a3557fe5b816005811115610a4157fe5b1415610a85576040518060400160405280600c81526020017f4d616e7566616374757265720000000000000000000000000000000000000000815250915050610c32565b60026005811115610a9257fe5b816005811115610a9e57fe5b1415610ae2576040518060400160405280600881526020017f437573746f6d6572000000000000000000000000000000000000000000000000815250915050610c32565b60036005811115610aef57fe5b816005811115610afb57fe5b1415610b3f576040518060400160405280600f81526020017f5365727669636550726f76696465720000000000000000000000000000000000815250915050610c32565b60046005811115610b4c57fe5b816005811115610b5857fe5b1415610b9c576040518060400160405280600881526020017f537570706c696572000000000000000000000000000000000000000000000000815250915050610c32565b600580811115610ba857fe5b816005811115610bb457fe5b1415610bf8576040518060400160405280600681526020017f4465766963650000000000000000000000000000000000000000000000000000815250915050610c32565b6040518060400160405280600481526020017f4e6f6e65000000000000000000000000000000000000000000000000000000008152509150505b919050565b6000600160008373ffffffffffffffffffffffffffffffffffffffff1673ffffffffffffffffffffffffffffffffffffffff16815260200190815260200160002060020160009054906101000a900460ff166005811115610c9457fe5b9050919050565b6060600160008373ffffffffffffffffffffffffffffffffffffffff1673ffffffffffffffffffffffffffffffffffffffff1681526020019081526020016000206000018054600181600116156101000203166002900480601f016020809104026020016040519081016040528092919081815260200182805460018160011615610100020316600290048015610d735780601f10610d4857610100808354040283529160200191610d73565b820191906000526020600020905b815481529060010190602001808311610d5657829003601f168201915b50505050509050919050565b6000809054906101000a900473ffffffffffffffffffffffffffffffffffffffff1673ffffffffffffffffffffffffffffffffffffffff163373ffffffffffffffffffffffffffffffffffffffff1614610dd857600080fd5b610de181610968565b15610deb57600080fd5b600082118015610dfc575060058214155b610e0557600080fd5b610e0d611d3e565b6040518060a00160405280858152602001428152602001846005811115610e3057fe5b6005811115610e3b57fe5b81526020018373ffffffffffffffffffffffffffffffffffffffff16815260200160011515815250905080600160008473ffffffffffffffffffffffffffffffffffffffff1673ffffffffffffffffffffffffffffffffffffffff1681526020019081526020016000206000820151816000019080519060200190610ec1929190611d90565b506020820151816001015560408201518160020160006101000a81548160ff02191690836005811115610ef057fe5b021790555060608201518160020160016101000a81548173ffffffffffffffffffffffffffffffffffffffff021916908373ffffffffffffffffffffffffffffffffffffffff16021790555060808201518160020160156101000a81548160ff02191690831515021790555090505060016005811115610f6c57fe5b836005811115610f7857fe5b6005811115610f8357fe5b1415610ff45760038290806001815401808255809150509060018203906000526020600020016000909192909190916101000a81548173ffffffffffffffffffffffffffffffffffffffff021916908373ffffffffffffffffffffffffffffffffffffffff160217905550506111b8565b6003600581111561100157fe5b83600581111561100d57fe5b600581111561101857fe5b14156110895760048290806001815401808255809150509060018203906000526020600020016000909192909190916101000a81548173ffffffffffffffffffffffffffffffffffffffff021916908373ffffffffffffffffffffffffffffffffffffffff160217905550506111b7565b6004600581111561109657fe5b8360058111156110a257fe5b60058111156110ad57fe5b141561111e5760058290806001815401808255809150509060018203906000526020600020016000909192909190916101000a81548173ffffffffffffffffffffffffffffffffffffffff021916908373ffffffffffffffffffffffffffffffffffffffff160217905550506111b6565b6002600581111561112b57fe5b83600581111561113757fe5b600581111561114257fe5b146111b5576040517f08c379a00000000000000000000000000000000000000000000000000000000081526004018080602001828103825260178152602001807f546869732073686f756c64206e6f742068617070656e2e00000000000000000081525060200191505060405180910390fd5b5b5b5b50505050565b6000809054906101000a900473ffffffffffffffffffffffffffffffffffffffff1681565b6060600480548060200260200160405190810160405280929190818152602001828054801561126757602002820191906000526020600020905b8160009054906101000a900473ffffffffffffffffffffffffffffffffffffffff1673ffffffffffffffffffffffffffffffffffffffff168152602001906001019080831161121d575b5050505050905090565b6000809054906101000a900473ffffffffffffffffffffffffffffffffffffffff1673ffffffffffffffffffffffffffffffffffffffff163373ffffffffffffffffffffffffffffffffffffffff16146112ca57600080fd5b61132a6040518060400160405280600c81526020017f4d616e75666163747572657200000000000000000000000000000000000000008152506001600581111561131057fe5b736aa031ecb47018c081ae968fe157cb9f74a584fd610d7f565b61138a6040518060400160405280600981526020017f437573746f6d65723100000000000000000000000000000000000000000000008152506002600581111561137057fe5b73ff3904784bef847991c7705eef89164a32f31a19610d7f565b6113ea6040518060400160405280600981526020017f437573746f6d6572320000000000000000000000000000000000000000000000815250600260058111156113d057fe5b7387deec84694929a63aa8cca01de58eea0a6a0e8b610d7f565b61145e6040518060400160405280600781526020017f446576696365310000000000000000000000000000000000000000000000000081525060058081111561142f57fe5b73bb8f0d80e1b66e71629d47ab547042e5004f39df736aa031ecb47018c081ae968fe157cb9f74a584fd6117a5565b6114d26040518060400160405280600781526020017f44657669636532000000000000000000000000000000000000000000000000008152506005808111156114a357fe5b736a7b417ac5a2e20b47fa7717963ce24068b2b3c9736aa031ecb47018c081ae968fe157cb9f74a584fd6117a5565b6115466040518060400160405280600781526020017f446576696365330000000000000000000000000000000000000000000000000081525060058081111561151757fe5b730fd6f673bc51400b5022eef84c4a87eba7d4ac29736aa031ecb47018c081ae968fe157cb9f74a584fd6117a5565b6115ba6040518060400160405280600781526020017f446576696365340000000000000000000000000000000000000000000000000081525060058081111561158b57fe5b73158a17f73c8ca58f929b0cbaf0434dd02a8cc159736aa031ecb47018c081ae968fe157cb9f74a584fd6117a5565b565b60008060009054906101000a900473ffffffffffffffffffffffffffffffffffffffff1673ffffffffffffffffffffffffffffffffffffffff163373ffffffffffffffffffffffffffffffffffffffff161461161757600080fd5b61162082610968565b1561179b576040518060a00160405280604051806020016040528060008152508152602001600081526020016000600581111561165957fe5b8152602001600073ffffffffffffffffffffffffffffffffffffffff16815260200160001515815250600160008473ffffffffffffffffffffffffffffffffffffffff1673ffffffffffffffffffffffffffffffffffffffff16815260200190815260200160002060008201518160000190805190602001906116dd929190611d90565b506020820151816001015560408201518160020160006101000a81548160ff0219169083600581111561170c57fe5b021790555060608201518160020160016101000a81548173ffffffffffffffffffffffffffffffffffffffff021916908373ffffffffffffffffffffffffffffffffffffffff16021790555060808201518160020160156101000a81548160ff02191690831515021790555090505061178482610968565b1561179257600090506117a0565b600190506117a0565b600090505b919050565b6000809054906101000a900473ffffffffffffffffffffffffffffffffffffffff1673ffffffffffffffffffffffffffffffffffffffff163373ffffffffffffffffffffffffffffffffffffffff16146117fe57600080fd5b61180782610968565b1561181157600080fd5b61181a81610968565b61182357600080fd5b6005831461183057600080fd5b611838611d3e565b6040518060a0016040528086815260200142815260200185600581111561185b57fe5b600581111561186657fe5b81526020018373ffffffffffffffffffffffffffffffffffffffff16815260200160011515815250905080600160008573ffffffffffffffffffffffffffffffffffffffff1673ffffffffffffffffffffffffffffffffffffffff16815260200190815260200160002060008201518160000190805190602001906118ec929190611d90565b506020820151816001015560408201518160020160006101000a81548160ff0219169083600581111561191b57fe5b021790555060608201518160020160016101000a81548173ffffffffffffffffffffffffffffffffffffffff021916908373ffffffffffffffffffffffffffffffffffffffff16021790555060808201518160020160156101000a81548160ff02191690831515021790555090505060028390806001815401808255809150509060018203906000526020600020016000909192909190916101000a81548173ffffffffffffffffffffffffffffffffffffffff021916908373ffffffffffffffffffffffffffffffffffffffff160217905550505050505050565b60606005805480602002602001604051908101604052809291908181526020018280548015611a7b57602002820191906000526020600020905b8160009054906101000a900473ffffffffffffffffffffffffffffffffffffffff1673ffffffffffffffffffffffffffffffffffffffff1681526020019060010190808311611a31575b5050505050905090565b6000600160008373ffffffffffffffffffffffffffffffffffffffff1673ffffffffffffffffffffffffffffffffffffffff168152602001908152602001600020600101549050919050565b6000809054906101000a900473ffffffffffffffffffffffffffffffffffffffff1673ffffffffffffffffffffffffffffffffffffffff163373ffffffffffffffffffffffffffffffffffffffff1614611b2a57600080fd5b600073ffffffffffffffffffffffffffffffffffffffff168173ffffffffffffffffffffffffffffffffffffffff161415611b6457600080fd5b8073ffffffffffffffffffffffffffffffffffffffff166000809054906101000a900473ffffffffffffffffffffffffffffffffffffffff1673ffffffffffffffffffffffffffffffffffffffff167f8be0079c531659141344cd1fd0a4f28419497f9722a3daafe3b4186f6b6457e060405160405180910390a3806000806101000a81548173ffffffffffffffffffffffffffffffffffffffff021916908373ffffffffffffffffffffffffffffffffffffffff16021790555050565b60606002805480602002602001604051908101604052809291908181526020018280548015611ca657602002820191906000526020600020905b8160009054906101000a900473ffffffffffffffffffffffffffffffffffffffff1673ffffffffffffffffffffffffffffffffffffffff1681526020019060010190808311611c5c575b5050505050905090565b60606003805480602002602001604051908101604052809291908181526020018280548015611d3457602002820191906000526020600020905b8160009054906101000a900473ffffffffffffffffffffffffffffffffffffffff1673ffffffffffffffffffffffffffffffffffffffff1681526020019060010190808311611cea575b5050505050905090565b6040518060a00160405280606081526020016000815260200160006005811115611d6457fe5b8152602001600073ffffffffffffffffffffffffffffffffffffffff1681526020016000151581525090565b828054600181600116156101000203166002900490600052602060002090601f016020900481019282601f10611dd157805160ff1916838001178555611dff565b82800160010185558215611dff579182015b82811115611dfe578251825591602001919060010190611de3565b5b509050611e0c9190611e10565b5090565b611e3291905b80821115611e2e576000816000905550600101611e16565b5090565b9056fea265627a7a72315820368793809d46ba3f7480d5953d1d4ca2ef369e0ddeea00f48d0c50a2a6ca53b264736f6c634300050c0032",
  "source": "pragma solidity >= 0.5.0 < 0.7.0;\r\n\r\nimport \"./Ownable.sol\";\r\nimport \"./DateLib.sol\";\r\n\r\n/// @title IdentityProvider\r\n/// @author Sebastian Kanz\r\n/// @notice Taken from: https://github.com/jrkosinski/oracle-example/blob/part2-step1/oracle/contracts/BoxingOracle.sol\r\n/// @notice Collects and provides information on identities\r\ncontract IdentityProvider is Ownable {\r\n    mapping(address => Identity) identities;\r\n\r\n    address[] knownDevices;\r\n    address[] knownManufacturers;\r\n    address[] knownServiceProviders;\r\n    address[] knownSuppliers;\r\n\r\n    using DateLib for DateLib.DateTime;\r\n\r\n    //defines an identity\r\n    struct Identity {\r\n        string name;\r\n        uint256 date;         //GMT timestamp of date of registration\r\n        Role role;\r\n        address ownedBy;\r\n        bool exists;\r\n    }\r\n\r\n    //possible roles of identities\r\n    enum Role {\r\n      None,\r\n      Manufacturer,\r\n      Customer,\r\n      ServiceProvider,\r\n      Supplier,\r\n      Device\r\n    }\r\n\r\n    constructor () public {\r\n      owner = msg.sender;\r\n      // addTestData();\r\n    }\r\n\r\n  /// @notice checks whether the identity is known or not\r\n  /// @param _identity the identity address to analyze\r\n  /// @return returns true if the identity is known\r\n  function identityExists(address _identity) public view returns (bool) {\r\n    if(identities[_identity].exists) {\r\n      return true;\r\n    } else {\r\n      return false;\r\n    }\r\n  }\r\n\r\n  /// @notice gets the role of the identity\r\n  /// @param _identity the identity address to analyze\r\n  /// @return a string representative of the Role. If the identity is unknown it returns the default (Role.None)\r\n  function getIdentityRoleName(address _identity) public view returns (string memory) {\r\n    Role role = identities[_identity].role;\r\n    if(role == Role.Manufacturer) {\r\n      return \"Manufacturer\";\r\n    } else if(role == Role.Customer) {\r\n      return \"Customer\";\r\n    } else if(role == Role.ServiceProvider) {\r\n      return \"ServiceProvider\";\r\n    } else if(role == Role.Supplier) {\r\n      return \"Supplier\";\r\n    } else if(role == Role.Device) {\r\n      return \"Device\";\r\n    } else {\r\n      return \"None\";\r\n    }\r\n  }\r\n\r\n  /// @notice gets the owner of the identity (if it is a device)\r\n  /// @param _identity the identity address to analyze\r\n  /// @return an address. If the identity is owned by no one it returns the default address (0x0..)\r\n  function getIdentityOwner(address _identity) public view returns (address) {\r\n    return identities[_identity].ownedBy;\r\n  }\r\n\r\n  /// @notice gets the role of the identity\r\n  /// @param _identity the identity address to analyze\r\n  /// @return a uint. If the identity is unknown it returns the default (0)\r\n  function getIdentityRole(address _identity) public view returns (uint) {\r\n    return uint(identities[_identity].role);\r\n  }\r\n\r\n  /// @notice gets the creation time of the identity\r\n  /// @param _identity the identity address to analyze\r\n  /// @return a unix timestamp. If the identity is unknown it returns the default (0)\r\n  function getIdentityCreationTime(address _identity) public view returns (uint256) {\r\n    return identities[_identity].date;\r\n  }\r\n\r\n  /// @notice gets the name of the identity\r\n  /// @param _identity the identity address to analyze\r\n  /// @return a unix string. If the identity is unknown it returns the default (empty string)\r\n  function getIdentityName(address _identity) public view returns (string memory) {\r\n    return identities[_identity].name;\r\n  }\r\n\r\n\r\n  /// @notice adds a new identity\r\n  /// @dev only callable by owner of smart contract\r\n  /// @param _name the name of the identity\r\n  /// @param _roleID the role of the identity as integer representative\r\n  /// @param _identity the identity address to analyze\r\n  /// @param _owner the owner of the identity\r\n  function addIdentityOwnedBy(string memory _name, uint _roleID, address _identity, address _owner) onlyOwner public {\r\n    require(!identityExists(_identity));\r\n    require(identityExists(_owner));\r\n    require(_roleID == 5);\r\n    Identity memory newIdentity = Identity(_name, now, Role(_roleID), _owner, true);\r\n    identities[_identity] = newIdentity;\r\n    knownDevices.push(_identity);\r\n  }\r\n\r\n  /// @notice adds a new identity\r\n  /// @dev only callable by owner of smart contract\r\n  /// @param _name the name of the identity\r\n  /// @param _roleID the role of the identity as integer representative\r\n  /// @param _identity the identity address to analyze\r\n  function addIdentity(string memory _name, uint _roleID, address _identity) onlyOwner public {\r\n    require(!identityExists(_identity));\r\n    require(_roleID > 0 && _roleID != 5);\r\n    Identity memory newIdentity = Identity(_name, now, Role(_roleID), _identity, true);\r\n    identities[_identity] = newIdentity;\r\n    if(Role(_roleID) == Role.Manufacturer) {\r\n      knownManufacturers.push(_identity);\r\n    } else if(Role(_roleID) == Role.ServiceProvider) {\r\n      knownServiceProviders.push(_identity);\r\n    } else if(Role(_roleID) == Role.Supplier) {\r\n      knownSuppliers.push(_identity);\r\n    } else if(Role(_roleID) != Role.Customer) {\r\n      revert(\"This should not happen.\");\r\n    }\r\n  }\r\n\r\n  /// @notice deletes an identity\r\n  /// @dev only callable by owner of smart contract\r\n  /// @param _identity the identity address to analyze\r\n  /// @return a boolean whether or not deleting was successful\r\n  function deleteIdentity(address _identity) onlyOwner public returns (bool) {\r\n    if(identityExists(_identity)) {\r\n      identities[_identity] = Identity(\"\", 0, Role.None, address(0x0), false);\r\n      if(identityExists(_identity)) {\r\n        return false;\r\n      } else {\r\n      return true;\r\n\r\n      }\r\n    } else {\r\n      return false;\r\n    }\r\n  }\r\n\r\n  /// @notice tests the connection to the smart contract\r\n  /// @dev only for testing purposes\r\n  /// @return always true\r\n  function testConnection() public pure returns (bool) {\r\n    return true;\r\n  }\r\n\r\n  /// @notice gets the address of this contract\r\n  function getAddress() public view returns (address) {\r\n    return address(this);\r\n  }\r\n\r\n  /// @notice adds test identities\r\n  /// @dev only callable by owner of smart contract\r\n  function addTestData() onlyOwner public {\r\n    addIdentity(\"Manufacturer\", uint(Role.Manufacturer), address(0x6Aa031Ecb47018c081ae968FE157cB9f74a584fD));\r\n    addIdentity(\"Customer1\", uint(Role.Customer), address(0xFF3904784BeF847991C7705Eef89164A32F31A19));\r\n    addIdentity(\"Customer2\", uint(Role.Customer), address(0x87deeC84694929a63Aa8ccA01dE58eEA0a6A0e8b));\r\n    addIdentityOwnedBy(\"Device1\", uint(Role.Device), address(0xbB8f0d80e1B66e71629D47AB547042E5004F39Df), address(0x6Aa031Ecb47018c081ae968FE157cB9f74a584fD));\r\n    addIdentityOwnedBy(\"Device2\", uint(Role.Device), address(0x6A7b417aC5A2e20b47fa7717963ce24068B2b3c9), address(0x6Aa031Ecb47018c081ae968FE157cB9f74a584fD));\r\n    addIdentityOwnedBy(\"Device3\", uint(Role.Device), address(0x0fd6f673BC51400B5022eeF84c4a87EBA7D4ac29), address(0x6Aa031Ecb47018c081ae968FE157cB9f74a584fD));\r\n    addIdentityOwnedBy(\"Device4\", uint(Role.Device), address(0x158A17F73c8ca58f929B0cbAF0434Dd02a8cC159), address(0x6Aa031Ecb47018c081ae968FE157cB9f74a584fD));\r\n  }\r\n\r\n  function getKnownManufacturers() public view returns(address[] memory){\r\n    return knownManufacturers;\r\n  }\r\n\r\n  function getKnownServiceProviders() public view returns(address[] memory){\r\n    return knownServiceProviders;\r\n  }\r\n\r\n  function getKnownSuppliers() public view returns(address[] memory){\r\n    return knownSuppliers;\r\n  }\r\n\r\n  function getKnownDevices() public view returns(address[] memory){\r\n    return knownDevices;\r\n  }\r\n}\r\n",
  "sourcePath": "C:\\Users\\sebastianka\\Git\\thesis\\application\\smart-contracts\\contracts\\IdentityProvider.sol",
  "compiler": {
    "name": "solc",
    "version": "0.5.12+commit.7709ece9.Emscripten.clang"
  },
  "schemaVersion": "3.0.20",
  "updatedAt": "2020-02-04T07:02:38.811Z",
  "devdoc": {
    "author": "Sebastian Kanz",
    "methods": {
      "addIdentity(string,uint256,address)": {
        "details": "only callable by owner of smart contract",
        "params": {
          "_identity": "the identity address to analyze",
          "_name": "the name of the identity",
          "_roleID": "the role of the identity as integer representative"
        }
      },
      "addIdentityOwnedBy(string,uint256,address,address)": {
        "details": "only callable by owner of smart contract",
        "params": {
          "_identity": "the identity address to analyze",
          "_name": "the name of the identity",
          "_owner": "the owner of the identity",
          "_roleID": "the role of the identity as integer representative"
        }
      },
      "addTestData()": {
        "details": "only callable by owner of smart contract"
      },
      "deleteIdentity(address)": {
        "details": "only callable by owner of smart contract",
        "params": {
          "_identity": "the identity address to analyze"
        },
        "return": "a boolean whether or not deleting was successful"
      },
      "getIdentityCreationTime(address)": {
        "params": {
          "_identity": "the identity address to analyze"
        },
        "return": "a unix timestamp. If the identity is unknown it returns the default (0)"
      },
      "getIdentityName(address)": {
        "params": {
          "_identity": "the identity address to analyze"
        },
        "return": "a unix string. If the identity is unknown it returns the default (empty string)"
      },
      "getIdentityOwner(address)": {
        "params": {
          "_identity": "the identity address to analyze"
        },
        "return": "an address. If the identity is owned by no one it returns the default address (0x0..)"
      },
      "getIdentityRole(address)": {
        "params": {
          "_identity": "the identity address to analyze"
        },
        "return": "a uint. If the identity is unknown it returns the default (0)"
      },
      "getIdentityRoleName(address)": {
        "params": {
          "_identity": "the identity address to analyze"
        },
        "return": "a string representative of the Role. If the identity is unknown it returns the default (Role.None)"
      },
      "identityExists(address)": {
        "params": {
          "_identity": "the identity address to analyze"
        },
        "return": "returns true if the identity is known"
      },
      "testConnection()": {
        "details": "only for testing purposes",
        "return": "always true"
      },
      "transferOwnership(address)": {
        "details": "Allows the current owner to transfer control of the contract to a newOwner.",
        "params": {
          "newOwner": "The address to transfer ownership to."
        }
      }
    },
    "title": "IdentityProvider"
  },
  "userdoc": {
    "methods": {
      "addIdentity(string,uint256,address)": {
        "notice": "adds a new identity"
      },
      "addIdentityOwnedBy(string,uint256,address,address)": {
        "notice": "adds a new identity"
      },
      "addTestData()": {
        "notice": "adds test identities"
      },
      "deleteIdentity(address)": {
        "notice": "deletes an identity"
      },
      "getAddress()": {
        "notice": "gets the address of this contract"
      },
      "getIdentityCreationTime(address)": {
        "notice": "gets the creation time of the identity"
      },
      "getIdentityName(address)": {
        "notice": "gets the name of the identity"
      },
      "getIdentityOwner(address)": {
        "notice": "gets the owner of the identity (if it is a device)"
      },
      "getIdentityRole(address)": {
        "notice": "gets the role of the identity"
      },
      "getIdentityRoleName(address)": {
        "notice": "gets the role of the identity"
      },
      "identityExists(address)": {
        "notice": "checks whether the identity is known or not"
      },
      "testConnection()": {
        "notice": "tests the connection to the smart contract"
      }
    },
    "notice": "Taken from: https://github.com/jrkosinski/oracle-example/blob/part2-step1/oracle/contracts/BoxingOracle.solCollects and provides information on identities"
  }
}