{
  "contractName": "PaymentChannel",
  "abi": [
    {
      "constant": true,
      "inputs": [],
      "name": "expiration",
      "outputs": [
        {
          "internalType": "uint256",
          "name": "",
          "type": "uint256"
        }
      ],
      "payable": false,
      "stateMutability": "view",
      "type": "function"
    },
    {
      "constant": true,
      "inputs": [],
      "name": "receiver",
      "outputs": [
        {
          "internalType": "address payable",
          "name": "",
          "type": "address"
        }
      ],
      "payable": false,
      "stateMutability": "view",
      "type": "function"
    },
    {
      "constant": true,
      "inputs": [],
      "name": "sender",
      "outputs": [
        {
          "internalType": "address payable",
          "name": "",
          "type": "address"
        }
      ],
      "payable": false,
      "stateMutability": "view",
      "type": "function"
    },
    {
      "constant": false,
      "inputs": [
        {
          "internalType": "address payable",
          "name": "_receiver",
          "type": "address"
        },
        {
          "internalType": "uint256",
          "name": "duration",
          "type": "uint256"
        }
      ],
      "name": "SimplePaymentChannel",
      "outputs": [],
      "payable": true,
      "stateMutability": "payable",
      "type": "function"
    },
    {
      "constant": false,
      "inputs": [
        {
          "internalType": "uint256",
          "name": "amount",
          "type": "uint256"
        },
        {
          "internalType": "bytes",
          "name": "signature",
          "type": "bytes"
        }
      ],
      "name": "close",
      "outputs": [],
      "payable": false,
      "stateMutability": "nonpayable",
      "type": "function"
    },
    {
      "constant": false,
      "inputs": [
        {
          "internalType": "uint256",
          "name": "newExpiration",
          "type": "uint256"
        }
      ],
      "name": "extend",
      "outputs": [],
      "payable": false,
      "stateMutability": "nonpayable",
      "type": "function"
    },
    {
      "constant": false,
      "inputs": [],
      "name": "claimTimeout",
      "outputs": [],
      "payable": false,
      "stateMutability": "nonpayable",
      "type": "function"
    }
  ],
  "bytecode": "0x608060405234801561001057600080fd5b506107c4806100206000396000f3fe6080604052600436106100705760003560e01c80634665096d1161004e5780634665096d146101ac57806367e404ce146101d75780639714378c1461022e578063f7260d3e1461026957610070565b80630e1da6c31461007557806340243ecd1461008c578063415ffba7146100da575b600080fd5b34801561008157600080fd5b5061008a6102c0565b005b6100d8600480360360408110156100a257600080fd5b81019080803573ffffffffffffffffffffffffffffffffffffffff16906020019092919080359060200190929190505050610309565b005b3480156100e657600080fd5b506101aa600480360360408110156100fd57600080fd5b81019080803590602001909291908035906020019064010000000081111561012457600080fd5b82018360208201111561013657600080fd5b8035906020019184600183028401116401000000008311171561015857600080fd5b91908080601f016020809104026020016040519081016040528093929190818152602001838380828437600081840152601f19601f820116905080830192505050505050509192919290505050610397565b005b3480156101b857600080fd5b506101c16104a7565b6040518082815260200191505060405180910390f35b3480156101e357600080fd5b506101ec6104ad565b604051808273ffffffffffffffffffffffffffffffffffffffff1673ffffffffffffffffffffffffffffffffffffffff16815260200191505060405180910390f35b34801561023a57600080fd5b506102676004803603602081101561025157600080fd5b81019080803590602001909291905050506104d2565b005b34801561027557600080fd5b5061027e610543565b604051808273ffffffffffffffffffffffffffffffffffffffff1673ffffffffffffffffffffffffffffffffffffffff16815260200191505060405180910390f35b6002544210156102cf57600080fd5b6000809054906101000a900473ffffffffffffffffffffffffffffffffffffffff1673ffffffffffffffffffffffffffffffffffffffff16ff5b336000806101000a81548173ffffffffffffffffffffffffffffffffffffffff021916908373ffffffffffffffffffffffffffffffffffffffff16021790555081600160006101000a81548173ffffffffffffffffffffffffffffffffffffffff021916908373ffffffffffffffffffffffffffffffffffffffff1602179055508042016002819055505050565b600160009054906101000a900473ffffffffffffffffffffffffffffffffffffffff1673ffffffffffffffffffffffffffffffffffffffff163373ffffffffffffffffffffffffffffffffffffffff16146103f157600080fd5b6103fb8282610569565b61040457600080fd5b600160009054906101000a900473ffffffffffffffffffffffffffffffffffffffff1673ffffffffffffffffffffffffffffffffffffffff166108fc839081150290604051600060405180830381858888f1935050505015801561046c573d6000803e3d6000fd5b506000809054906101000a900473ffffffffffffffffffffffffffffffffffffffff1673ffffffffffffffffffffffffffffffffffffffff16ff5b60025481565b6000809054906101000a900473ffffffffffffffffffffffffffffffffffffffff1681565b6000809054906101000a900473ffffffffffffffffffffffffffffffffffffffff1673ffffffffffffffffffffffffffffffffffffffff163373ffffffffffffffffffffffffffffffffffffffff161461052b57600080fd5b600254811161053957600080fd5b8060028190555050565b600160009054906101000a900473ffffffffffffffffffffffffffffffffffffffff1681565b6000806105d23085604051602001808373ffffffffffffffffffffffffffffffffffffffff1673ffffffffffffffffffffffffffffffffffffffff1660601b81526014018281526020019250505060405160208183030381529060405280519060200120610636565b90506000809054906101000a900473ffffffffffffffffffffffffffffffffffffffff1673ffffffffffffffffffffffffffffffffffffffff16610616828561068e565b73ffffffffffffffffffffffffffffffffffffffff161491505092915050565b60008160405160200180807f19457468657265756d205369676e6564204d6573736167653a0a333200000000815250601c01828152602001915050604051602081830303815290604052805190602001209050919050565b60008060008061069d8561071b565b80935081945082955050505060018684848460405160008152602001604052604051808581526020018460ff1660ff1681526020018381526020018281526020019450505050506020604051602081039080840390855afa158015610706573d6000803e3d6000fd5b50505060206040510351935050505092915050565b6000806000604184511461072e57600080fd5b60008060006020870151925060408701519150606087015160001a9050601b8160ff16101561075e57601b810190505b601b8160ff1614806107735750601c8160ff16145b61077c57600080fd5b808383955095509550505050919390925056fea265627a7a723158204dea56cba6b197e9730c522e99328c7cd95d7e5ec2829389abc46ae1b5e66e4564736f6c634300050c0032",
  "source": "pragma solidity >= 0.5.0 < 0.7.0;\r\n\r\n/// @notice https://programtheblockchain.com/posts/2018/02/23/writing-a-simple-payment-channel/\r\n\r\ncontract PaymentChannel {\r\n  address payable public sender;     // The account sending payments.\r\n  address payable public receiver;  // The account receiving the payments.\r\n  uint256 public expiration; // Timeout in case the receiver never closes.\r\n\r\n  function SimplePaymentChannel(address payable _receiver, uint256 duration) public payable {\r\n    sender = msg.sender;\r\n    receiver = _receiver;\r\n    expiration = now + duration;\r\n  }\r\n\r\n  function isValidSignature(uint256 amount, bytes memory signature) internal view returns (bool) {\r\n    bytes32 message = prefixed(keccak256(abi.encodePacked(this, amount)));\r\n\r\n    // Check that the signature is from the payment sender.\r\n    return recoverSigner(message, signature) == sender;\r\n  }\r\n\r\n  // The receiver can close the channel at any time by presenting a signed\r\n  // amount from the sender. The receiver will be sent that amount, and the\r\n  // remainder will go back to the sender.\r\n  function close(uint256 amount, bytes memory signature) public {\r\n    require(msg.sender == receiver);\r\n    require(isValidSignature(amount, signature));\r\n\r\n    receiver.transfer(amount);\r\n    selfdestruct(sender);\r\n  }\r\n\r\n  // The sender can extend the expiration at any time.\r\n  function extend(uint256 newExpiration) public {\r\n    require(msg.sender == sender);\r\n    require(newExpiration > expiration);\r\n\r\n    expiration = newExpiration;\r\n  }\r\n\r\n  // If the timeout is reached without the receiver closing the channel, then\r\n  // the ether is released back to the sender.\r\n  function claimTimeout() public {\r\n    require(now >= expiration);\r\n    selfdestruct(sender);\r\n  }\r\n\r\n  function splitSignature(bytes memory sig) internal pure returns (uint8, bytes32, bytes32) {\r\n    require(sig.length == 65);\r\n\r\n    bytes32 r;\r\n    bytes32 s;\r\n    uint8 v;\r\n\r\n    assembly {\r\n      // first 32 bytes, after the length prefix\r\n      r := mload(add(sig, 32))\r\n      // second 32 bytes\r\n      s := mload(add(sig, 64))\r\n      // final byte (first byte of the next 32 bytes)\r\n      v := byte(0, mload(add(sig, 96)))\r\n    }\r\n    if (v < 27) {\r\n      v += 27;\r\n    }\r\n\r\n    require (v == 27 || v == 28);\r\n\r\n    return (v, r, s);\r\n  }\r\n\r\n  function recoverSigner(bytes32 message, bytes memory sig) internal pure returns (address) {\r\n    uint8 v;\r\n    bytes32 r;\r\n    bytes32 s;\r\n\r\n    (v, r, s) = splitSignature(sig);\r\n\r\n    return ecrecover(message, v, r, s);\r\n  }\r\n\r\n  // Builds a prefixed hash to mimic the behavior of eth_sign.\r\n  function prefixed(bytes32 hash) internal pure returns (bytes32) {\r\n    return keccak256(abi.encodePacked(\"\\x19Ethereum Signed Message:\\n32\", hash));\r\n  }\r\n}\r\n",
  "sourcePath": "C:/Users/sebastianka/Git/thesis/application/smart-contracts/contracts/PaymentChannel.sol",
  "compiler": {
    "name": "solc",
    "version": "0.5.12+commit.7709ece9.Emscripten.clang"
  },
  "schemaVersion": "3.0.20",
  "updatedAt": "2020-01-16T10:12:05.740Z",
  "devdoc": {
    "methods": {}
  },
  "userdoc": {
    "methods": {},
    "notice": "https://programtheblockchain.com/posts/2018/02/23/writing-a-simple-payment-channel/"
  }
}