{
  "contractName": "PaymentProvider",
  "abi": [
    {
      "anonymous": false,
      "inputs": [
        {
          "indexed": true,
          "internalType": "address",
          "name": "previousOwner",
          "type": "address"
        },
        {
          "indexed": true,
          "internalType": "address",
          "name": "newOwner",
          "type": "address"
        }
      ],
      "name": "OwnershipTransferred",
      "type": "event"
    },
    {
      "constant": true,
      "inputs": [],
      "name": "owner",
      "outputs": [
        {
          "internalType": "address",
          "name": "",
          "type": "address"
        }
      ],
      "payable": false,
      "stateMutability": "view",
      "type": "function"
    },
    {
      "constant": false,
      "inputs": [
        {
          "internalType": "address",
          "name": "newOwner",
          "type": "address"
        }
      ],
      "name": "transferOwnership",
      "outputs": [],
      "payable": false,
      "stateMutability": "nonpayable",
      "type": "function"
    },
    {
      "constant": false,
      "inputs": [
        {
          "internalType": "address",
          "name": "_addr",
          "type": "address"
        }
      ],
      "name": "registerRentalProvider",
      "outputs": [],
      "payable": false,
      "stateMutability": "nonpayable",
      "type": "function"
    },
    {
      "constant": false,
      "inputs": [
        {
          "internalType": "bytes32",
          "name": "_hash",
          "type": "bytes32"
        },
        {
          "internalType": "address payable",
          "name": "_receiver",
          "type": "address"
        },
        {
          "internalType": "address payable",
          "name": "_sender",
          "type": "address"
        }
      ],
      "name": "addPaymentAgreement",
      "outputs": [],
      "payable": false,
      "stateMutability": "nonpayable",
      "type": "function"
    },
    {
      "constant": false,
      "inputs": [
        {
          "internalType": "bytes32",
          "name": "_hash",
          "type": "bytes32"
        }
      ],
      "name": "charge",
      "outputs": [],
      "payable": true,
      "stateMutability": "payable",
      "type": "function"
    },
    {
      "constant": false,
      "inputs": [
        {
          "internalType": "bytes32",
          "name": "_hash",
          "type": "bytes32"
        }
      ],
      "name": "getBalance",
      "outputs": [
        {
          "internalType": "uint256",
          "name": "",
          "type": "uint256"
        }
      ],
      "payable": false,
      "stateMutability": "nonpayable",
      "type": "function"
    },
    {
      "constant": true,
      "inputs": [
        {
          "internalType": "bytes32",
          "name": "_hash",
          "type": "bytes32"
        }
      ],
      "name": "getPaymentHistory",
      "outputs": [
        {
          "internalType": "uint256[]",
          "name": "",
          "type": "uint256[]"
        },
        {
          "internalType": "uint256[]",
          "name": "",
          "type": "uint256[]"
        },
        {
          "internalType": "uint256[]",
          "name": "",
          "type": "uint256[]"
        },
        {
          "internalType": "uint256[]",
          "name": "",
          "type": "uint256[]"
        }
      ],
      "payable": false,
      "stateMutability": "view",
      "type": "function"
    },
    {
      "constant": false,
      "inputs": [
        {
          "internalType": "bytes32",
          "name": "_hash",
          "type": "bytes32"
        }
      ],
      "name": "empty",
      "outputs": [],
      "payable": false,
      "stateMutability": "nonpayable",
      "type": "function"
    },
    {
      "constant": false,
      "inputs": [
        {
          "internalType": "bytes32",
          "name": "_hash",
          "type": "bytes32"
        },
        {
          "internalType": "uint256",
          "name": "_timestampStart",
          "type": "uint256"
        },
        {
          "internalType": "uint256",
          "name": "_timestampEnd",
          "type": "uint256"
        },
        {
          "internalType": "uint256",
          "name": "_units",
          "type": "uint256"
        },
        {
          "internalType": "uint256",
          "name": "_cost",
          "type": "uint256"
        },
        {
          "internalType": "bytes",
          "name": "_signature",
          "type": "bytes"
        }
      ],
      "name": "redeem",
      "outputs": [],
      "payable": false,
      "stateMutability": "nonpayable",
      "type": "function"
    },
    {
      "constant": true,
      "inputs": [],
      "name": "getAddress",
      "outputs": [
        {
          "internalType": "address",
          "name": "",
          "type": "address"
        }
      ],
      "payable": false,
      "stateMutability": "view",
      "type": "function"
    }
  ],
  "bytecode": "0x6080604052336000806101000a81548173ffffffffffffffffffffffffffffffffffffffff021916908373ffffffffffffffffffffffffffffffffffffffff1602179055506114a6806100536000396000f3fe6080604052600436106100915760003560e01c80638da5cb5b116100595780638da5cb5b146103395780638e7394611461039057806393143773146103df5780639ba7738e14610430578063f2fde38b1461052a57610091565b806316cac02a146100965780631dd36d62146101fe578063357dfebc1461027957806338cc4831146102a7578063879e4b1a146102fe575b600080fd5b3480156100a257600080fd5b506100cf600480360360208110156100b957600080fd5b810190808035906020019092919050505061057b565b6040518080602001806020018060200180602001858103855289818151815260200191508051906020019060200280838360005b8381101561011e578082015181840152602081019050610103565b50505050905001858103845288818151815260200191508051906020019060200280838360005b83811015610160578082015181840152602081019050610145565b50505050905001858103835287818151815260200191508051906020019060200280838360005b838110156101a2578082015181840152602081019050610187565b50505050905001858103825286818151815260200191508051906020019060200280838360005b838110156101e45780820151818401526020810190506101c9565b505050509050019850505050505050505060405180910390f35b34801561020a57600080fd5b506102776004803603606081101561022157600080fd5b8101908080359060200190929190803573ffffffffffffffffffffffffffffffffffffffff169060200190929190803573ffffffffffffffffffffffffffffffffffffffff1690602001909291905050506107ac565b005b6102a56004803603602081101561028f57600080fd5b81019080803590602001909291905050506108f9565b005b3480156102b357600080fd5b506102bc6109f5565b604051808273ffffffffffffffffffffffffffffffffffffffff1673ffffffffffffffffffffffffffffffffffffffff16815260200191505060405180910390f35b34801561030a57600080fd5b506103376004803603602081101561032157600080fd5b81019080803590602001909291905050506109fd565b005b34801561034557600080fd5b5061034e610b75565b604051808273ffffffffffffffffffffffffffffffffffffffff1673ffffffffffffffffffffffffffffffffffffffff16815260200191505060405180910390f35b34801561039c57600080fd5b506103c9600480360360208110156103b357600080fd5b8101908080359060200190929190505050610b9a565b6040518082815260200191505060405180910390f35b3480156103eb57600080fd5b5061042e6004803603602081101561040257600080fd5b81019080803573ffffffffffffffffffffffffffffffffffffffff169060200190929190505050610c94565b005b34801561043c57600080fd5b50610528600480360360c081101561045357600080fd5b810190808035906020019092919080359060200190929190803590602001909291908035906020019092919080359060200190929190803590602001906401000000008111156104a257600080fd5b8201836020820111156104b457600080fd5b803590602001918460018302840111640100000000831117156104d657600080fd5b91908080601f016020809104026020016040519081016040528093929190818152602001838380828437600081840152601f19601f820116905080830192505050505050509192919290505050610d31565b005b34801561053657600080fd5b506105796004803603602081101561054d57600080fd5b81019080803573ffffffffffffffffffffffffffffffffffffffff1690602001909291905050506110ab565b005b6060806060806000600160008781526020019081526020016000206003015490506060816040519080825280602002602001820160405280156105cd5781602001602082028038833980820191505090505b5090506060826040519080825280602002602001820160405280156106015781602001602082028038833980820191505090505b5090506060836040519080825280602002602001820160405280156106355781602001602082028038833980820191505090505b5090506060846040519080825280602002602001820160405280156106695781602001602082028038833980820191505090505b50905060008090505b8581101561079357600160008c81526020019081526020016000206005016000828152602001908152602001600020600001548582815181106106b157fe5b602002602001018181525050600160008c81526020019081526020016000206005016000828152602001908152602001600020600101548482815181106106f457fe5b602002602001018181525050600160008c815260200190815260200160002060050160008281526020019081526020016000206002015483828151811061073757fe5b602002602001018181525050600160008c815260200190815260200160002060050160008281526020019081526020016000206003015482828151811061077a57fe5b6020026020010181815250508080600101915050610672565b5083838383985098509850985050505050509193509193565b6107b461141d565b81816000019073ffffffffffffffffffffffffffffffffffffffff16908173ffffffffffffffffffffffffffffffffffffffff168152505082816020019073ffffffffffffffffffffffffffffffffffffffff16908173ffffffffffffffffffffffffffffffffffffffff168152505060008160400181815250506000816060018181525050806001600086815260200190815260200160002060008201518160000160006101000a81548173ffffffffffffffffffffffffffffffffffffffff021916908373ffffffffffffffffffffffffffffffffffffffff16021790555060208201518160010160006101000a81548173ffffffffffffffffffffffffffffffffffffffff021916908373ffffffffffffffffffffffffffffffffffffffff160217905550604082015181600201556060820151816003015590505050505050565b6001600082815260200190815260200160002060000160009054906101000a900473ffffffffffffffffffffffffffffffffffffffff1673ffffffffffffffffffffffffffffffffffffffff163373ffffffffffffffffffffffffffffffffffffffff1614806109b65750600260009054906101000a900473ffffffffffffffffffffffffffffffffffffffff1673ffffffffffffffffffffffffffffffffffffffff163373ffffffffffffffffffffffffffffffffffffffff16145b6109bf57600080fd5b34600160008381526020019081526020016000206002015401600160008381526020019081526020016000206002018190555050565b600030905090565b6001600082815260200190815260200160002060010160009054906101000a900473ffffffffffffffffffffffffffffffffffffffff1673ffffffffffffffffffffffffffffffffffffffff163373ffffffffffffffffffffffffffffffffffffffff161480610aba5750600260009054906101000a900473ffffffffffffffffffffffffffffffffffffffff1673ffffffffffffffffffffffffffffffffffffffff163373ffffffffffffffffffffffffffffffffffffffff16145b610ac357600080fd5b6001600082815260200190815260200160002060000160009054906101000a900473ffffffffffffffffffffffffffffffffffffffff1673ffffffffffffffffffffffffffffffffffffffff166108fc60016000848152602001908152602001600020600201549081150290604051600060405180830381858888f19350505050158015610b55573d6000803e3d6000fd5b506000600160008381526020019081526020016000206002018190555050565b6000809054906101000a900473ffffffffffffffffffffffffffffffffffffffff1681565b60006001600083815260200190815260200160002060000160009054906101000a900473ffffffffffffffffffffffffffffffffffffffff1673ffffffffffffffffffffffffffffffffffffffff163373ffffffffffffffffffffffffffffffffffffffff161480610c6d57506001600083815260200190815260200160002060010160009054906101000a900473ffffffffffffffffffffffffffffffffffffffff1673ffffffffffffffffffffffffffffffffffffffff163373ffffffffffffffffffffffffffffffffffffffff16145b610c7657600080fd5b60016000838152602001908152602001600020600201549050919050565b6000809054906101000a900473ffffffffffffffffffffffffffffffffffffffff1673ffffffffffffffffffffffffffffffffffffffff163373ffffffffffffffffffffffffffffffffffffffff1614610ced57600080fd5b80600260006101000a81548173ffffffffffffffffffffffffffffffffffffffff021916908373ffffffffffffffffffffffffffffffffffffffff16021790555050565b60008686868686866040516020018087815260200186815260200185815260200184815260200183815260200182805190602001908083835b60208310610d8d5780518252602082019150602081019050602083039250610d6a565b6001836020036101000a03801982511681845116808217855250505050505090500196505050505050506040516020818303038152906040528051906020012090506000151560016000898152602001908152602001600020600401600083815260200190815260200160002060009054906101000a900460ff16151514610e1457600080fd5b848610610e2057600080fd5b6001600088815260200190815260200160002060020154831115610e4357600080fd5b6001600088815260200190815260200160002060010160009054906101000a900473ffffffffffffffffffffffffffffffffffffffff1673ffffffffffffffffffffffffffffffffffffffff163373ffffffffffffffffffffffffffffffffffffffff1614610eb157600080fd5b610ef56001600089815260200190815260200160002060000160009054906101000a900473ffffffffffffffffffffffffffffffffffffffff1687878787876111fc565b610efe57600080fd5b600060016000898152602001908152602001600020600301549050604051806080016040528088815260200187815260200186815260200185815250600160008a815260200190815260200160002060050160008381526020019081526020016000206000820151816000015560208201518160010155604082015181600201556060820151816003015590505060016000898152602001908152602001600020600301600081548092919060010191905055506001600089815260200190815260200160002060010160009054906101000a900473ffffffffffffffffffffffffffffffffffffffff1673ffffffffffffffffffffffffffffffffffffffff166108fc859081150290604051600060405180830381858888f1935050505015801561102e573d6000803e3d6000fd5b5060018060008a8152602001908152602001600020600401600084815260200190815260200160002060006101000a81548160ff02191690831515021790555083600160008a81526020019081526020016000206002015403600160008a8152602001908152602001600020600201819055505050505050505050565b6000809054906101000a900473ffffffffffffffffffffffffffffffffffffffff1673ffffffffffffffffffffffffffffffffffffffff163373ffffffffffffffffffffffffffffffffffffffff161461110457600080fd5b600073ffffffffffffffffffffffffffffffffffffffff168173ffffffffffffffffffffffffffffffffffffffff16141561113e57600080fd5b8073ffffffffffffffffffffffffffffffffffffffff166000809054906101000a900473ffffffffffffffffffffffffffffffffffffffff1673ffffffffffffffffffffffffffffffffffffffff167f8be0079c531659141344cd1fd0a4f28419497f9722a3daafe3b4186f6b6457e060405160405180910390a3806000806101000a81548173ffffffffffffffffffffffffffffffffffffffff021916908373ffffffffffffffffffffffffffffffffffffffff16021790555050565b60008061127d3088888888604051602001808673ffffffffffffffffffffffffffffffffffffffff1673ffffffffffffffffffffffffffffffffffffffff1660601b815260140185815260200184815260200183815260200182815260200195505050505050604051602081830303815290604052805190602001206112c4565b90508773ffffffffffffffffffffffffffffffffffffffff166112a0828561131c565b73ffffffffffffffffffffffffffffffffffffffff16149150509695505050505050565b60008160405160200180807f19457468657265756d205369676e6564204d6573736167653a0a333200000000815250601c01828152602001915050604051602081830303815290604052805190602001209050919050565b60008060008061132b856113a9565b80935081945082955050505060018684848460405160008152602001604052604051808581526020018460ff1660ff1681526020018381526020018281526020019450505050506020604051602081039080840390855afa158015611394573d6000803e3d6000fd5b50505060206040510351935050505092915050565b600080600060418451146113bc57600080fd5b60008060006020870151925060408701519150606087015160001a9050601b8160ff1610156113ec57601b810190505b601b8160ff1614806114015750601c8160ff16145b61140a57600080fd5b8083839550955095505050509193909250565b6040518060800160405280600073ffffffffffffffffffffffffffffffffffffffff168152602001600073ffffffffffffffffffffffffffffffffffffffff1681526020016000815260200160008152509056fea265627a7a723158207a416dababdda1bbc0ca5296aab50a06e97bec5af1de3881475a2689af7ef95164736f6c634300050c0032",
  "source": "pragma solidity >= 0.5.0 < 0.7.0;\r\nimport \"./Ownable.sol\";\r\n\r\n/// @notice https://programtheblockchain.com/posts/2018/02/23/writing-a-simple-payment-channel/\r\n\r\ncontract PaymentProvider is Ownable {\r\n\r\n  struct PaymentAgreement {\r\n    address payable sender;\r\n    address payable receiver;\r\n    uint256 balance;\r\n    uint256 numPayments;\r\n    mapping(bytes32 => bool) usedSignatures;\r\n    mapping(uint256 => Usage) history;\r\n  }\r\n\r\n  struct Usage {\r\n    uint256 timestampStart;\r\n    uint256 timestampEnd;\r\n    uint256 units;\r\n    uint256 cost;\r\n  }\r\n\r\n  mapping(bytes32 => PaymentAgreement) private paymentAgreements;\r\n\r\n  address private rentalProvider;\r\n\r\n  /// @notice sets the rentalProvider address\r\n  /// @dev only callable by owner\r\n  /// @param _addr the address of the rentalProvider\r\n  function registerRentalProvider(address _addr) public onlyOwner {\r\n    rentalProvider = _addr;\r\n  }\r\n\r\n  function addPaymentAgreement(bytes32 _hash, address payable _receiver, address payable _sender) public {\r\n    PaymentAgreement memory tmp;\r\n    tmp.sender = _sender;\r\n    tmp.receiver = _receiver;\r\n    tmp.balance = 0;\r\n    tmp.numPayments = 0;\r\n    paymentAgreements[_hash] = tmp;\r\n  }\r\n\r\n  // The sender can charge the channel\r\n  function charge(bytes32 _hash) public payable {\r\n    require(msg.sender == paymentAgreements[_hash].sender || msg.sender == rentalProvider);\r\n    paymentAgreements[_hash].balance = paymentAgreements[_hash].balance + msg.value;\r\n  }\r\n\r\n  function getBalance(bytes32 _hash) public returns (uint256) {\r\n    require(msg.sender == paymentAgreements[_hash].sender || msg.sender == paymentAgreements[_hash].receiver);\r\n    return paymentAgreements[_hash].balance;\r\n  }\r\n\r\n  function getPaymentHistory(bytes32 _hash) public view returns(uint256[] memory, uint256[] memory, uint256[] memory, uint256[] memory) {\r\n    uint count = paymentAgreements[_hash].numPayments;\r\n    uint256[] memory timestampsStart = new uint256[](count);\r\n    uint256[] memory timestampEnd = new uint256[](count);\r\n    uint256[] memory units = new uint256[](count);\r\n    uint256[] memory costs = new uint256[](count);\r\n    for (uint i = 0; i<count; i++){\r\n        timestampsStart[i] = paymentAgreements[_hash].history[i].timestampStart;\r\n        timestampEnd[i] = paymentAgreements[_hash].history[i].timestampEnd;\r\n        units[i] = paymentAgreements[_hash].history[i].units;\r\n        costs[i] = paymentAgreements[_hash].history[i].cost;\r\n    }\r\n    return (timestampsStart, timestampEnd, units, costs);\r\n  }\r\n\r\n\r\n  function empty(bytes32 _hash) public {\r\n    require(msg.sender == paymentAgreements[_hash].receiver || msg.sender == rentalProvider);\r\n    paymentAgreements[_hash].sender.transfer(paymentAgreements[_hash].balance);\r\n    paymentAgreements[_hash].balance = 0;\r\n  }\r\n\r\n  // The receiver can pay out his balance by presenting a signed\r\n  // amount from the sender. The receiver will be sent that amount but the channel will stay open.\r\n  // The rest of the balance is kept in the channel and not payed out back to the sender.\r\n  function redeem(bytes32 _hash, uint256 _timestampStart, uint256 _timestampEnd, uint256 _units, uint256 _cost, bytes memory _signature) public {\r\n    bytes32 paymentHash = keccak256(abi.encodePacked(_hash, _timestampStart, _timestampEnd, _units, _cost, _signature));\r\n    require(paymentAgreements[_hash].usedSignatures[paymentHash] == false);\r\n    require(_timestampStart < _timestampEnd);\r\n    require(_cost <= paymentAgreements[_hash].balance);\r\n    require(msg.sender == paymentAgreements[_hash].receiver);\r\n    require(isValidSignature(paymentAgreements[_hash].sender, _timestampStart, _timestampEnd, _units, _cost, _signature));\r\n    uint256 num = paymentAgreements[_hash].numPayments;\r\n    paymentAgreements[_hash].history[num] = Usage(_timestampStart, _timestampEnd, _units, _cost);\r\n    paymentAgreements[_hash].numPayments++;\r\n\r\n    paymentAgreements[_hash].receiver.transfer(_cost);\r\n    paymentAgreements[_hash].usedSignatures[paymentHash] = true;\r\n    paymentAgreements[_hash].balance = paymentAgreements[_hash].balance - _cost;\r\n  }\r\n\r\n  // The sender can extend the expiration at any time.\r\n  // function extend(uint256 newExpiration) public {\r\n  //   require(msg.sender == sender);\r\n  //   require(newExpiration > expiration);\r\n  //\r\n  //   expiration = newExpiration;\r\n  // }\r\n\r\n  // If the timeout is reached without the receiver closing the channel, then\r\n  // the ether is released back to the sender.\r\n  // function claimTimeout() public {\r\n  //   require(now >= expiration);\r\n  //   selfdestruct(sender);\r\n  // }\r\n\r\n  //##################Helper###################\r\n\r\n\r\n  /// @notice gets the address of this contract\r\n  function getAddress() public view returns (address) {\r\n    return address(this);\r\n  }\r\n\r\n  function isValidSignature(address _sender, uint256 _timestampStart, uint256 _timestampEnd, uint256 _units, uint256 _cost, bytes memory _signature) internal view returns (bool) {\r\n    bytes32 message = prefixed(keccak256(abi.encodePacked(this, _timestampStart, _timestampEnd, _units, _cost)));\r\n\r\n    // Check that the signature is from the payment sender.\r\n    return recoverSigner(message, _signature) == _sender;\r\n  }\r\n\r\n  function splitSignature(bytes memory sig) internal pure returns (uint8, bytes32, bytes32) {\r\n    require(sig.length == 65);\r\n\r\n    bytes32 r;\r\n    bytes32 s;\r\n    uint8 v;\r\n\r\n    assembly {\r\n      // first 32 bytes, after the length prefix\r\n      r := mload(add(sig, 32))\r\n      // second 32 bytes\r\n      s := mload(add(sig, 64))\r\n      // final byte (first byte of the next 32 bytes)\r\n      v := byte(0, mload(add(sig, 96)))\r\n    }\r\n    if (v < 27) {\r\n      v += 27;\r\n    }\r\n\r\n    require (v == 27 || v == 28);\r\n\r\n    return (v, r, s);\r\n  }\r\n\r\n  function recoverSigner(bytes32 message, bytes memory sig) internal pure returns (address) {\r\n    uint8 v;\r\n    bytes32 r;\r\n    bytes32 s;\r\n\r\n    (v, r, s) = splitSignature(sig);\r\n\r\n    return ecrecover(message, v, r, s);\r\n  }\r\n\r\n  // Builds a prefixed hash to mimic the behavior of eth_sign.\r\n  function prefixed(bytes32 hash) internal pure returns (bytes32) {\r\n    return keccak256(abi.encodePacked(\"\\x19Ethereum Signed Message:\\n32\", hash));\r\n  }\r\n}\r\n",
  "sourcePath": "C:\\Users\\sebastianka\\Git\\thesis\\application\\smart-contracts\\contracts\\PaymentProvider.sol",
  "compiler": {
    "name": "solc",
    "version": "0.5.12+commit.7709ece9.Emscripten.clang"
  },
  "schemaVersion": "3.0.20",
  "updatedAt": "2020-02-04T07:02:38.838Z",
  "devdoc": {
    "methods": {
      "registerRentalProvider(address)": {
        "details": "only callable by owner",
        "params": {
          "_addr": "the address of the rentalProvider"
        }
      },
      "transferOwnership(address)": {
        "details": "Allows the current owner to transfer control of the contract to a newOwner.",
        "params": {
          "newOwner": "The address to transfer ownership to."
        }
      }
    }
  },
  "userdoc": {
    "methods": {
      "getAddress()": {
        "notice": "gets the address of this contract"
      },
      "registerRentalProvider(address)": {
        "notice": "sets the rentalProvider address"
      }
    },
    "notice": "https://programtheblockchain.com/posts/2018/02/23/writing-a-simple-payment-channel/"
  }
}