{
  "contractName": "Renting",
  "abi": [
    {
      "inputs": [],
      "payable": false,
      "stateMutability": "nonpayable",
      "type": "constructor"
    },
    {
      "anonymous": false,
      "inputs": [
        {
          "indexed": true,
          "internalType": "address",
          "name": "previousOwner",
          "type": "address"
        },
        {
          "indexed": true,
          "internalType": "address",
          "name": "newOwner",
          "type": "address"
        }
      ],
      "name": "OwnershipTransferred",
      "type": "event"
    },
    {
      "constant": true,
      "inputs": [],
      "name": "owner",
      "outputs": [
        {
          "internalType": "address payable",
          "name": "",
          "type": "address"
        }
      ],
      "payable": false,
      "stateMutability": "view",
      "type": "function"
    },
    {
      "constant": false,
      "inputs": [
        {
          "internalType": "address",
          "name": "newOwner",
          "type": "address"
        }
      ],
      "name": "transferOwnership",
      "outputs": [],
      "payable": false,
      "stateMutability": "nonpayable",
      "type": "function"
    },
    {
      "constant": false,
      "inputs": [],
      "name": "destroy",
      "outputs": [],
      "payable": false,
      "stateMutability": "nonpayable",
      "type": "function"
    },
    {
      "constant": true,
      "inputs": [
        {
          "internalType": "address",
          "name": "_addr",
          "type": "address"
        },
        {
          "internalType": "uint256",
          "name": "_roleID",
          "type": "uint256"
        }
      ],
      "name": "isKnownParticipant",
      "outputs": [
        {
          "internalType": "bool",
          "name": "",
          "type": "bool"
        }
      ],
      "payable": false,
      "stateMutability": "view",
      "type": "function"
    },
    {
      "constant": false,
      "inputs": [
        {
          "internalType": "address",
          "name": "_addr",
          "type": "address"
        }
      ],
      "name": "registerIdentityOracle",
      "outputs": [],
      "payable": false,
      "stateMutability": "nonpayable",
      "type": "function"
    },
    {
      "constant": false,
      "inputs": [
        {
          "internalType": "address payable",
          "name": "_tenant",
          "type": "address"
        },
        {
          "internalType": "bytes",
          "name": "_lessorSignature",
          "type": "bytes"
        },
        {
          "internalType": "address",
          "name": "_device",
          "type": "address"
        },
        {
          "internalType": "uint256",
          "name": "_usageFee",
          "type": "uint256"
        },
        {
          "internalType": "uint256",
          "name": "_contractTerm",
          "type": "uint256"
        }
      ],
      "name": "create",
      "outputs": [],
      "payable": false,
      "stateMutability": "nonpayable",
      "type": "function"
    },
    {
      "constant": false,
      "inputs": [
        {
          "internalType": "uint256",
          "name": "_stateID",
          "type": "uint256"
        }
      ],
      "name": "getIDs",
      "outputs": [
        {
          "internalType": "uint256[]",
          "name": "",
          "type": "uint256[]"
        }
      ],
      "payable": false,
      "stateMutability": "nonpayable",
      "type": "function"
    },
    {
      "constant": true,
      "inputs": [
        {
          "internalType": "uint256",
          "name": "_id",
          "type": "uint256"
        }
      ],
      "name": "getByID",
      "outputs": [
        {
          "internalType": "address",
          "name": "_tenant",
          "type": "address"
        },
        {
          "internalType": "bytes",
          "name": "_tenantSignature",
          "type": "bytes"
        },
        {
          "internalType": "address",
          "name": "_lessor",
          "type": "address"
        },
        {
          "internalType": "bytes",
          "name": "_lessorSignature",
          "type": "bytes"
        },
        {
          "internalType": "address",
          "name": "_device",
          "type": "address"
        },
        {
          "internalType": "uint256",
          "name": "_usageFee",
          "type": "uint256"
        },
        {
          "internalType": "uint256",
          "name": "_contractTerm",
          "type": "uint256"
        },
        {
          "internalType": "uint256",
          "name": "_state",
          "type": "uint256"
        }
      ],
      "payable": false,
      "stateMutability": "view",
      "type": "function"
    },
    {
      "constant": false,
      "inputs": [
        {
          "internalType": "uint256",
          "name": "_id",
          "type": "uint256"
        },
        {
          "internalType": "bytes",
          "name": "_signature",
          "type": "bytes"
        }
      ],
      "name": "accept",
      "outputs": [],
      "payable": false,
      "stateMutability": "nonpayable",
      "type": "function"
    },
    {
      "constant": false,
      "inputs": [
        {
          "internalType": "uint256",
          "name": "_id",
          "type": "uint256"
        },
        {
          "internalType": "uint256",
          "name": "_timestamp",
          "type": "uint256"
        }
      ],
      "name": "payForUsage",
      "outputs": [],
      "payable": true,
      "stateMutability": "payable",
      "type": "function"
    },
    {
      "constant": true,
      "inputs": [
        {
          "internalType": "uint256",
          "name": "_timestamp",
          "type": "uint256"
        },
        {
          "internalType": "address",
          "name": "_device",
          "type": "address"
        },
        {
          "internalType": "address",
          "name": "_payer",
          "type": "address"
        },
        {
          "internalType": "uint256",
          "name": "_amount",
          "type": "uint256"
        }
      ],
      "name": "getPaymentHash",
      "outputs": [
        {
          "internalType": "bytes32",
          "name": "",
          "type": "bytes32"
        }
      ],
      "payable": false,
      "stateMutability": "view",
      "type": "function"
    },
    {
      "constant": true,
      "inputs": [
        {
          "internalType": "uint256",
          "name": "_agreementID",
          "type": "uint256"
        },
        {
          "internalType": "bytes32",
          "name": "_paymentHash",
          "type": "bytes32"
        }
      ],
      "name": "checkUsagePayment",
      "outputs": [
        {
          "internalType": "uint256",
          "name": "",
          "type": "uint256"
        },
        {
          "internalType": "address",
          "name": "",
          "type": "address"
        },
        {
          "internalType": "address",
          "name": "",
          "type": "address"
        },
        {
          "internalType": "uint256",
          "name": "",
          "type": "uint256"
        }
      ],
      "payable": false,
      "stateMutability": "view",
      "type": "function"
    },
    {
      "constant": false,
      "inputs": [
        {
          "internalType": "uint256",
          "name": "_agreementID",
          "type": "uint256"
        }
      ],
      "name": "terminate",
      "outputs": [],
      "payable": false,
      "stateMutability": "nonpayable",
      "type": "function"
    }
  ],
  "bytecode": "0x608060405234801561001057600080fd5b50336000806101000a81548173ffffffffffffffffffffffffffffffffffffffff021916908373ffffffffffffffffffffffffffffffffffffffff16021790555033600460006101000a81548173ffffffffffffffffffffffffffffffffffffffff021916908373ffffffffffffffffffffffffffffffffffffffff160217905550612e0e806100a16000396000f3fe6080604052600436106100c25760003560e01c80637a828b281161007f578063a8dea28111610059578063a8dea28114610681578063ad5e489f146106d2578063f2fde38b14610745578063fdc5c91d14610796576100c2565b80637a828b28146105d857806383197ef0146106135780638da5cb5b1461062a576100c2565b806335e2fea4146100c757806341513aff146101605780634da4d7eb1461027c57806358efc103146102b45780636f1acd981461037a57806374fb0aa71461040a575b600080fd5b3480156100d357600080fd5b5061014a600480360360808110156100ea57600080fd5b8101908080359060200190929190803573ffffffffffffffffffffffffffffffffffffffff169060200190929190803573ffffffffffffffffffffffffffffffffffffffff16906020019092919080359060200190929190505050610868565b6040518082815260200191505060405180910390f35b34801561016c57600080fd5b5061027a600480360360a081101561018357600080fd5b81019080803573ffffffffffffffffffffffffffffffffffffffff169060200190929190803590602001906401000000008111156101c057600080fd5b8201836020820111156101d257600080fd5b803590602001918460018302840111640100000000831117156101f457600080fd5b91908080601f016020809104026020016040519081016040528093929190818152602001838380828437600081840152601f19601f820116905080830192505050505050509192919290803573ffffffffffffffffffffffffffffffffffffffff1690602001909291908035906020019092919080359060200190929190505050610916565b005b6102b26004803603604081101561029257600080fd5b810190808035906020019092919080359060200190929190505050610d8f565b005b3480156102c057600080fd5b506102f7600480360360408110156102d757600080fd5b8101908080359060200190929190803590602001909291905050506112d2565b604051808581526020018473ffffffffffffffffffffffffffffffffffffffff1673ffffffffffffffffffffffffffffffffffffffff1681526020018373ffffffffffffffffffffffffffffffffffffffff1673ffffffffffffffffffffffffffffffffffffffff16815260200182815260200194505050505060405180910390f35b34801561038657600080fd5b506103b36004803603602081101561039d57600080fd5b8101908080359060200190929190505050611799565b6040518080602001828103825283818151815260200191508051906020019060200280838360005b838110156103f65780820151818401526020810190506103db565b505050509050019250505060405180910390f35b34801561041657600080fd5b506104436004803603602081101561042d57600080fd5b81019080803590602001909291905050506119e3565b604051808973ffffffffffffffffffffffffffffffffffffffff1673ffffffffffffffffffffffffffffffffffffffff168152602001806020018873ffffffffffffffffffffffffffffffffffffffff1673ffffffffffffffffffffffffffffffffffffffff168152602001806020018773ffffffffffffffffffffffffffffffffffffffff1673ffffffffffffffffffffffffffffffffffffffff16815260200186815260200185815260200184815260200183810383528a818151815260200191508051906020019080838360005b8381101561052f578082015181840152602081019050610514565b50505050905090810190601f16801561055c5780820380516001836020036101000a031916815260200191505b50838103825288818151815260200191508051906020019080838360005b8381101561059557808201518184015260208101905061057a565b50505050905090810190601f1680156105c25780820380516001836020036101000a031916815260200191505b509a505050505050505050505060405180910390f35b3480156105e457600080fd5b50610611600480360360208110156105fb57600080fd5b8101908080359060200190929190505050611d96565b005b34801561061f57600080fd5b5061062861214b565b005b34801561063657600080fd5b5061063f61222c565b604051808273ffffffffffffffffffffffffffffffffffffffff1673ffffffffffffffffffffffffffffffffffffffff16815260200191505060405180910390f35b34801561068d57600080fd5b506106d0600480360360208110156106a457600080fd5b81019080803573ffffffffffffffffffffffffffffffffffffffff169060200190929190505050612252565b005b3480156106de57600080fd5b5061072b600480360360408110156106f557600080fd5b81019080803573ffffffffffffffffffffffffffffffffffffffff169060200190929190803590602001909291905050506122ef565b604051808215151515815260200191505060405180910390f35b34801561075157600080fd5b506107946004803603602081101561076857600080fd5b81019080803573ffffffffffffffffffffffffffffffffffffffff1690602001909291905050506124ac565b005b3480156107a257600080fd5b50610866600480360360408110156107b957600080fd5b8101908080359060200190929190803590602001906401000000008111156107e057600080fd5b8201836020820111156107f257600080fd5b8035906020019184600183028401116401000000008311171561081457600080fd5b91908080601f016020809104026020016040519081016040528093929190818152602001838380828437600081840152601f19601f8201169050808301925050505050505091929192905050506125fd565b005b60008085858585604051602001808581526020018473ffffffffffffffffffffffffffffffffffffffff1673ffffffffffffffffffffffffffffffffffffffff1660601b81526014018373ffffffffffffffffffffffffffffffffffffffff1673ffffffffffffffffffffffffffffffffffffffff1660601b815260140182815260200194505050505060405160208183030381529060405280519060200120905080915050949350505050565b6109213360016122ef565b61092a57600080fd5b6109358560026122ef565b61093e57600080fd5b6109498360056122ef565b61095257600080fd5b60008533858585604051602001808673ffffffffffffffffffffffffffffffffffffffff1673ffffffffffffffffffffffffffffffffffffffff1660601b81526014018573ffffffffffffffffffffffffffffffffffffffff1673ffffffffffffffffffffffffffffffffffffffff1660601b81526014018473ffffffffffffffffffffffffffffffffffffffff1673ffffffffffffffffffffffffffffffffffffffff1660601b81526014018381526020018281526020019550505050505060405160208183030381529060405280519060200120905060606040518060400160405280601c81526020017f19457468657265756d205369676e6564204d6573736167653a0a33320000000081525090503373ffffffffffffffffffffffffffffffffffffffff16610afe82846040516020018083805190602001908083835b60208310610ab65780518252602082019150602081019050602083039250610a93565b6001836020036101000a03801982511681845116808217855250505050505090500182815260200192505050604051602081830303815290604052805190602001208861279d565b73ffffffffffffffffffffffffffffffffffffffff1614610b1e57600080fd5b428311610b2a57600080fd5b610b3386612824565b15610b3d57600080fd5b60016040518061012001604052808973ffffffffffffffffffffffffffffffffffffffff16815260200160416040519080825280601f01601f191660200182016040528015610b9b5781602001600182028038833980820191505090505b5081526020013373ffffffffffffffffffffffffffffffffffffffff1681526020018881526020018773ffffffffffffffffffffffffffffffffffffffff16815260200186815260200185815260200142815260200160006002811115610bfe57fe5b8152509080600181540180825580915050906001820390600052602060002090600902016000909192909190915060008201518160000160006101000a81548173ffffffffffffffffffffffffffffffffffffffff021916908373ffffffffffffffffffffffffffffffffffffffff1602179055506020820151816001019080519060200190610c8f929190612bf9565b5060408201518160020160006101000a81548173ffffffffffffffffffffffffffffffffffffffff021916908373ffffffffffffffffffffffffffffffffffffffff1602179055506060820151816003019080519060200190610cf3929190612bf9565b5060808201518160040160006101000a81548173ffffffffffffffffffffffffffffffffffffffff021916908373ffffffffffffffffffffffffffffffffffffffff16021790555060a0820151816005015560c0820151816006015560e082015181600701556101008201518160080160006101000a81548160ff02191690836002811115610d7e57fe5b021790555050505050505050505050565b6001805490508210610da057600080fd5b610da8612c79565b60018381548110610db557fe5b9060005260206000209060090201604051806101200160405290816000820160009054906101000a900473ffffffffffffffffffffffffffffffffffffffff1673ffffffffffffffffffffffffffffffffffffffff1673ffffffffffffffffffffffffffffffffffffffff168152602001600182018054600181600116156101000203166002900480601f016020809104026020016040519081016040528092919081815260200182805460018160011615610100020316600290048015610ebe5780601f10610e9357610100808354040283529160200191610ebe565b820191906000526020600020905b815481529060010190602001808311610ea157829003601f168201915b505050505081526020016002820160009054906101000a900473ffffffffffffffffffffffffffffffffffffffff1673ffffffffffffffffffffffffffffffffffffffff1673ffffffffffffffffffffffffffffffffffffffff168152602001600382018054600181600116156101000203166002900480601f016020809104026020016040519081016040528092919081815260200182805460018160011615610100020316600290048015610fb65780601f10610f8b57610100808354040283529160200191610fb6565b820191906000526020600020905b815481529060010190602001808311610f9957829003601f168201915b505050505081526020016004820160009054906101000a900473ffffffffffffffffffffffffffffffffffffffff1673ffffffffffffffffffffffffffffffffffffffff1673ffffffffffffffffffffffffffffffffffffffff1681526020016005820154815260200160068201548152602001600782015481526020016008820160009054906101000a900460ff16600281111561105157fe5b600281111561105c57fe5b8152505090503373ffffffffffffffffffffffffffffffffffffffff1661108f611085856128ef565b836020015161279d565b73ffffffffffffffffffffffffffffffffffffffff16146110af57600080fd5b806000015173ffffffffffffffffffffffffffffffffffffffff163373ffffffffffffffffffffffffffffffffffffffff16146110eb57600080fd5b8060a0015134146110fb57600080fd5b6001600281111561110857fe5b816101000151600281111561111957fe5b1461112357600080fd5b806040015173ffffffffffffffffffffffffffffffffffffffff166108fc349081150290604051600060405180830381858888f1935050505015801561116d573d6000803e3d6000fd5b5060006111808383608001513334610868565b90506040518060800160405280848152602001836080015173ffffffffffffffffffffffffffffffffffffffff1681526020013373ffffffffffffffffffffffffffffffffffffffff1681526020013481525060026000846040015173ffffffffffffffffffffffffffffffffffffffff1673ffffffffffffffffffffffffffffffffffffffff16815260200190815260200160002060008381526020019081526020016000206000820151816000015560208201518160010160006101000a81548173ffffffffffffffffffffffffffffffffffffffff021916908373ffffffffffffffffffffffffffffffffffffffff16021790555060408201518160020160006101000a81548173ffffffffffffffffffffffffffffffffffffffff021916908373ffffffffffffffffffffffffffffffffffffffff1602179055506060820151816003015590505050505050565b60008060008060018054905086106112e957600080fd5b6112f1612c79565b600187815481106112fe57fe5b9060005260206000209060090201604051806101200160405290816000820160009054906101000a900473ffffffffffffffffffffffffffffffffffffffff1673ffffffffffffffffffffffffffffffffffffffff1673ffffffffffffffffffffffffffffffffffffffff168152602001600182018054600181600116156101000203166002900480601f0160208091040260200160405190810160405280929190818152602001828054600181600116156101000203166002900480156114075780601f106113dc57610100808354040283529160200191611407565b820191906000526020600020905b8154815290600101906020018083116113ea57829003601f168201915b505050505081526020016002820160009054906101000a900473ffffffffffffffffffffffffffffffffffffffff1673ffffffffffffffffffffffffffffffffffffffff1673ffffffffffffffffffffffffffffffffffffffff168152602001600382018054600181600116156101000203166002900480601f0160208091040260200160405190810160405280929190818152602001828054600181600116156101000203166002900480156114ff5780601f106114d4576101008083540402835291602001916114ff565b820191906000526020600020905b8154815290600101906020018083116114e257829003601f168201915b505050505081526020016004820160009054906101000a900473ffffffffffffffffffffffffffffffffffffffff1673ffffffffffffffffffffffffffffffffffffffff1673ffffffffffffffffffffffffffffffffffffffff1681526020016005820154815260200160068201548152602001600782015481526020016008820160009054906101000a900460ff16600281111561159a57fe5b60028111156115a557fe5b815250509050806080015173ffffffffffffffffffffffffffffffffffffffff163373ffffffffffffffffffffffffffffffffffffffff16146115e757600080fd5b60026000826040015173ffffffffffffffffffffffffffffffffffffffff1673ffffffffffffffffffffffffffffffffffffffff16815260200190815260200160002060008781526020019081526020016000206000015460026000836040015173ffffffffffffffffffffffffffffffffffffffff1673ffffffffffffffffffffffffffffffffffffffff168152602001908152602001600020600088815260200190815260200160002060010160009054906101000a900473ffffffffffffffffffffffffffffffffffffffff1660026000846040015173ffffffffffffffffffffffffffffffffffffffff1673ffffffffffffffffffffffffffffffffffffffff168152602001908152602001600020600089815260200190815260200160002060020160009054906101000a900473ffffffffffffffffffffffffffffffffffffffff1660026000856040015173ffffffffffffffffffffffffffffffffffffffff1673ffffffffffffffffffffffffffffffffffffffff16815260200190815260200160002060008a81526020019081526020016000206003015494509450945094505092959194509250565b6060600080905060008090505b600180549050811015611892573373ffffffffffffffffffffffffffffffffffffffff16600182815481106117d757fe5b906000526020600020906009020160000160009054906101000a900473ffffffffffffffffffffffffffffffffffffffff1673ffffffffffffffffffffffffffffffffffffffff16148015611877575083600281111561183357fe5b600281111561183e57fe5b6001828154811061184b57fe5b906000526020600020906009020160080160009054906101000a900460ff16600281111561187557fe5b145b156118855781806001019250505b80806001019150506117a6565b506060816040519080825280602002602001820160405280156118c45781602001602082028038833980820191505090505b509050600080905060008090505b6001805490508110156119d7573373ffffffffffffffffffffffffffffffffffffffff166001828154811061190357fe5b906000526020600020906009020160000160009054906101000a900473ffffffffffffffffffffffffffffffffffffffff1673ffffffffffffffffffffffffffffffffffffffff161480156119a3575085600281111561195f57fe5b600281111561196a57fe5b6001828154811061197757fe5b906000526020600020906009020160080160009054906101000a900460ff1660028111156119a157fe5b145b156119ca57808383815181106119b557fe5b60200260200101818152505081806001019250505b80806001019150506118d2565b50819350505050919050565b60006060600060606000806000806001805490508910611a0257600080fd5b611a0a612c79565b60018a81548110611a1757fe5b9060005260206000209060090201604051806101200160405290816000820160009054906101000a900473ffffffffffffffffffffffffffffffffffffffff1673ffffffffffffffffffffffffffffffffffffffff1673ffffffffffffffffffffffffffffffffffffffff168152602001600182018054600181600116156101000203166002900480601f016020809104026020016040519081016040528092919081815260200182805460018160011615610100020316600290048015611b205780601f10611af557610100808354040283529160200191611b20565b820191906000526020600020905b815481529060010190602001808311611b0357829003601f168201915b505050505081526020016002820160009054906101000a900473ffffffffffffffffffffffffffffffffffffffff1673ffffffffffffffffffffffffffffffffffffffff1673ffffffffffffffffffffffffffffffffffffffff168152602001600382018054600181600116156101000203166002900480601f016020809104026020016040519081016040528092919081815260200182805460018160011615610100020316600290048015611c185780601f10611bed57610100808354040283529160200191611c18565b820191906000526020600020905b815481529060010190602001808311611bfb57829003601f168201915b505050505081526020016004820160009054906101000a900473ffffffffffffffffffffffffffffffffffffffff1673ffffffffffffffffffffffffffffffffffffffff1673ffffffffffffffffffffffffffffffffffffffff1681526020016005820154815260200160068201548152602001600782015481526020016008820160009054906101000a900460ff166002811115611cb357fe5b6002811115611cbe57fe5b815250509050806000015173ffffffffffffffffffffffffffffffffffffffff163373ffffffffffffffffffffffffffffffffffffffff161480611d315750806040015173ffffffffffffffffffffffffffffffffffffffff163373ffffffffffffffffffffffffffffffffffffffff16145b611d3a57600080fd5b806000015181602001518260400151836060015184608001518560a001518660c001518761010001516002811115611d6e57fe5b8797508696508595508494509850985098509850985098509850985050919395975091939597565b6001805490508110611da757600080fd5b611daf612c79565b60018281548110611dbc57fe5b9060005260206000209060090201604051806101200160405290816000820160009054906101000a900473ffffffffffffffffffffffffffffffffffffffff1673ffffffffffffffffffffffffffffffffffffffff1673ffffffffffffffffffffffffffffffffffffffff168152602001600182018054600181600116156101000203166002900480601f016020809104026020016040519081016040528092919081815260200182805460018160011615610100020316600290048015611ec55780601f10611e9a57610100808354040283529160200191611ec5565b820191906000526020600020905b815481529060010190602001808311611ea857829003601f168201915b505050505081526020016002820160009054906101000a900473ffffffffffffffffffffffffffffffffffffffff1673ffffffffffffffffffffffffffffffffffffffff1673ffffffffffffffffffffffffffffffffffffffff168152602001600382018054600181600116156101000203166002900480601f016020809104026020016040519081016040528092919081815260200182805460018160011615610100020316600290048015611fbd5780601f10611f9257610100808354040283529160200191611fbd565b820191906000526020600020905b815481529060010190602001808311611fa057829003601f168201915b505050505081526020016004820160009054906101000a900473ffffffffffffffffffffffffffffffffffffffff1673ffffffffffffffffffffffffffffffffffffffff1673ffffffffffffffffffffffffffffffffffffffff1681526020016005820154815260200160068201548152602001600782015481526020016008820160009054906101000a900460ff16600281111561205857fe5b600281111561206357fe5b8152505090506001600281111561207657fe5b816101000151600281111561208757fe5b1461209157600080fd5b806000015173ffffffffffffffffffffffffffffffffffffffff163373ffffffffffffffffffffffffffffffffffffffff1614806120fe5750806040015173ffffffffffffffffffffffffffffffffffffffff163373ffffffffffffffffffffffffffffffffffffffff16145b61210757600080fd5b60026001838154811061211657fe5b906000526020600020906009020160080160006101000a81548160ff0219169083600281111561214257fe5b02179055505050565b600460009054906101000a900473ffffffffffffffffffffffffffffffffffffffff1673ffffffffffffffffffffffffffffffffffffffff163373ffffffffffffffffffffffffffffffffffffffff16146121f1576040517f08c379a0000000000000000000000000000000000000000000000000000000008152600401808060200182810382526022815260200180612db86022913960400191505060405180910390fd5b600460009054906101000a900473ffffffffffffffffffffffffffffffffffffffff1673ffffffffffffffffffffffffffffffffffffffff16ff5b600460009054906101000a900473ffffffffffffffffffffffffffffffffffffffff1681565b6000809054906101000a900473ffffffffffffffffffffffffffffffffffffffff1673ffffffffffffffffffffffffffffffffffffffff163373ffffffffffffffffffffffffffffffffffffffff16146122ab57600080fd5b80600360006101000a81548173ffffffffffffffffffffffffffffffffffffffff021916908373ffffffffffffffffffffffffffffffffffffffff16021790555050565b600080600360009054906101000a900473ffffffffffffffffffffffffffffffffffffffff1690508073ffffffffffffffffffffffffffffffffffffffff16634d221b85856040518263ffffffff1660e01b8152600401808273ffffffffffffffffffffffffffffffffffffffff1673ffffffffffffffffffffffffffffffffffffffff16815260200191505060206040518083038186803b15801561239457600080fd5b505afa1580156123a8573d6000803e3d6000fd5b505050506040513d60208110156123be57600080fd5b810190808051906020019092919050505080156124915750828173ffffffffffffffffffffffffffffffffffffffff16636bfd4def866040518263ffffffff1660e01b8152600401808273ffffffffffffffffffffffffffffffffffffffff1673ffffffffffffffffffffffffffffffffffffffff16815260200191505060206040518083038186803b15801561245457600080fd5b505afa158015612468573d6000803e3d6000fd5b505050506040513d602081101561247e57600080fd5b8101908080519060200190929190505050145b156124a05760019150506124a6565b60009150505b92915050565b6000809054906101000a900473ffffffffffffffffffffffffffffffffffffffff1673ffffffffffffffffffffffffffffffffffffffff163373ffffffffffffffffffffffffffffffffffffffff161461250557600080fd5b600073ffffffffffffffffffffffffffffffffffffffff168173ffffffffffffffffffffffffffffffffffffffff16141561253f57600080fd5b8073ffffffffffffffffffffffffffffffffffffffff166000809054906101000a900473ffffffffffffffffffffffffffffffffffffffff1673ffffffffffffffffffffffffffffffffffffffff167f8be0079c531659141344cd1fd0a4f28419497f9722a3daafe3b4186f6b6457e060405160405180910390a3806000806101000a81548173ffffffffffffffffffffffffffffffffffffffff021916908373ffffffffffffffffffffffffffffffffffffffff16021790555050565b600180549050821061260e57600080fd5b6000600281111561261b57fe5b6001838154811061262857fe5b906000526020600020906009020160080160009054906101000a900460ff16600281111561265257fe5b1461265c57600080fd5b3373ffffffffffffffffffffffffffffffffffffffff166001838154811061268057fe5b906000526020600020906009020160000160009054906101000a900473ffffffffffffffffffffffffffffffffffffffff1673ffffffffffffffffffffffffffffffffffffffff16146126d257600080fd5b3373ffffffffffffffffffffffffffffffffffffffff166126fb6126f5846128ef565b8361279d565b73ffffffffffffffffffffffffffffffffffffffff161461271b57600080fd5b806001838154811061272957fe5b9060005260206000209060090201600101908051906020019061274d929190612d12565b506001600281111561275b57fe5b6001838154811061276857fe5b906000526020600020906009020160080160006101000a81548160ff0219169083600281111561279457fe5b02179055505050565b6000806000806127ac85612b8d565b92509250925060018684848460405160008152602001604052604051808581526020018460ff1660ff1681526020018381526020018281526020019450505050506020604051602081039080840390855afa15801561280f573d6000803e3d6000fd5b50505060206040510351935050505092915050565b600080600090505b6001805490508110156128e45782805190602001206001828154811061284e57fe5b906000526020600020906009020160030160405180828054600181600116156101000203166002900480156128ba5780601f106128985761010080835404028352918201916128ba565b820191906000526020600020905b8154815290600101906020018083116128a6575b5050915050604051809103902014156128d75760019150506128ea565b808060010191505061282c565b50600090505b919050565b6000600180549050821061290257600080fd5b60006001838154811061291157fe5b906000526020600020906009020160000160009054906101000a900473ffffffffffffffffffffffffffffffffffffffff166001848154811061295057fe5b906000526020600020906009020160020160009054906101000a900473ffffffffffffffffffffffffffffffffffffffff166001858154811061298f57fe5b906000526020600020906009020160040160009054906101000a900473ffffffffffffffffffffffffffffffffffffffff16600186815481106129ce57fe5b906000526020600020906009020160050154600187815481106129ed57fe5b906000526020600020906009020160060154604051602001808673ffffffffffffffffffffffffffffffffffffffff1673ffffffffffffffffffffffffffffffffffffffff1660601b81526014018573ffffffffffffffffffffffffffffffffffffffff1673ffffffffffffffffffffffffffffffffffffffff1660601b81526014018473ffffffffffffffffffffffffffffffffffffffff1673ffffffffffffffffffffffffffffffffffffffff1660601b81526014018381526020018281526020019550505050505060405160208183030381529060405280519060200120905060606040518060400160405280601c81526020017f19457468657265756d205369676e6564204d6573736167653a0a333200000000815250905080826040516020018083805190602001908083835b60208310612b425780518252602082019150602081019050602083039250612b1f565b6001836020036101000a038019825116818451168082178552505050505050905001828152602001925050506040516020818303038152906040528051906020012092505050919050565b60008060006041845114612ba057600080fd5b6020840151915060408401519050606084015160001a9250601b8360ff161015612bcb57601b830192505b601b8360ff161480612be05750601c8360ff16145b612be957600080fd5b8282829250925092509193909250565b828054600181600116156101000203166002900490600052602060002090601f016020900481019282601f10612c3a57805160ff1916838001178555612c68565b82800160010185558215612c68579182015b82811115612c67578251825591602001919060010190612c4c565b5b509050612c759190612d92565b5090565b604051806101200160405280600073ffffffffffffffffffffffffffffffffffffffff16815260200160608152602001600073ffffffffffffffffffffffffffffffffffffffff16815260200160608152602001600073ffffffffffffffffffffffffffffffffffffffff16815260200160008152602001600081526020016000815260200160006002811115612d0c57fe5b81525090565b828054600181600116156101000203166002900490600052602060002090601f016020900481019282601f10612d5357805160ff1916838001178555612d81565b82800160010185558215612d81579182015b82811115612d80578251825591602001919060010190612d65565b5b509050612d8e9190612d92565b5090565b612db491905b80821115612db0576000816000905550600101612d98565b5090565b9056fe4f6e6c79206f776e65722063616e2063616c6c20746869732066756e6374696f6e2ea265627a7a72315820efb11f2fa4d088b2ba29db04eb9594706fffac877a8112b13c59cc2438d1375164736f6c634300050c0032",
  "source": "pragma solidity >= 0.5.0 < 0.7.0;\n\nimport \"./IdentityOracle.sol\";\nimport \"./Ownable.sol\";\n\ncontract Renting is Ownable {\n\n  //possible states of an agreement\n  enum AgreementState {\n    Pending,\n    Active,\n    Terminated\n  }\n\n  RentalAgreement[] private agreements;\n\n  struct RentalAgreement {\n    address payable tenant;\n    bytes tenantSignature;\n    address payable lessor;\n    bytes lessorSignature;\n    address device;\n    uint usageFee;        //\n    uint contractTerm;    //unix timestamp\n    uint creation;        //unix timestamp\n    AgreementState state;\n  }\n\n  mapping(address => mapping(bytes32 => Payment)) private payments;\n\n  struct Payment {\n    uint timestamp;\n    address device;\n    address payer;\n    uint amount;\n  }\n\n  address private oracle_addr;\n  address payable public owner;\n\n  constructor() public {\n    owner = msg.sender;\n  }\n\n  function destroy() public {\n    require(msg.sender == owner, \"Only owner can call this function.\");\n    selfdestruct(owner);\n  }\n\n  /// @notice asks registered oracle whether the identity is known or not\n  /// @param _addr the address of the identity address\n  /// @param _roleID the role of the identity\n  /// @return a boolean whether or not the identity is known\n  function isKnownParticipant(address _addr, uint _roleID) public view returns(bool) {\n      IdentityOracle oracle = IdentityOracle(oracle_addr);\n      if(oracle.identityExists(_addr) && oracle.getIdentityRole(_addr) == _roleID) {\n        return true;\n      } else {\n        return false;\n      }\n  }\n\n  /// @notice sets the oracle address\n  /// @dev only callable by owner\n  /// @param _addr the address of the orcle\n  function registerIdentityOracle(address _addr) public onlyOwner {\n    oracle_addr = _addr;\n  }\n\n  /// @notice creates a rentalAgreement\n  /// @param _tenant address of the tenant\n  /// @param _lessorSignature signature of lessor of rentalAgreement\n  /// @param _device address of device\n  /// @param _usageFee fee for usage in wei\n  /// @param _contractTerm timestamp, when rentalAgreement times out\n  function create(address payable _tenant, bytes memory _lessorSignature, address _device, uint _usageFee, uint _contractTerm) public {\n    //check if sender is Manufacturer, tenant is Customer and device is Device\n    require(isKnownParticipant(msg.sender, 1));\n    require(isKnownParticipant(_tenant, 2));\n    require(isKnownParticipant(_device, 5));\n    //check lessorSignature\n    bytes32 message = keccak256(abi.encodePacked(_tenant, msg.sender, _device, _usageFee, _contractTerm));\n    bytes memory prefix = \"\\x19Ethereum Signed Message:\\n32\";\n    require(recoverSigner(keccak256(abi.encodePacked(prefix, message)), _lessorSignature) == msg.sender);\n    //check contractTerm to be in future!\n    require(_contractTerm > now);\n    //check that no rentalAgreement with same parameters exists\n    require(!exists(_lessorSignature));\n    agreements.push(RentalAgreement(_tenant, new bytes(65), msg.sender, _lessorSignature, _device, _usageFee, _contractTerm, now, AgreementState.Pending));\n  }\n\n  function exists(bytes memory _lessorSignature) private view returns (bool) {\n    for(uint i = 0; i < agreements.length; i++) {\n      if(keccak256(agreements[i].lessorSignature) == keccak256(_lessorSignature)) {\n        return true;\n      }\n    }\n    return false;\n  }\n\n  function getIDs(uint _stateID) public returns (uint[] memory) {\n    uint count = 0;\n    for(uint i = 0; i < agreements.length; i++) {\n      if(agreements[i].tenant == msg.sender && agreements[i].state == AgreementState(_stateID) ) {\n        count++;\n      }\n    }\n    uint[] memory rentalAgreementIDs = new uint[](count);\n    uint index = 0;\n    for(uint i = 0; i < agreements.length; i++) {\n      if(agreements[i].tenant == msg.sender && agreements[i].state == AgreementState(_stateID) ) {\n        rentalAgreementIDs[index] = i;\n        index++;\n      }\n    }\n    return rentalAgreementIDs;\n  }\n\n  function getByID(uint _id) public view returns (address _tenant, bytes memory _tenantSignature, address _lessor, bytes memory _lessorSignature, address _device, uint _usageFee, uint _contractTerm, uint _state) {\n    require(_id < agreements.length);\n    RentalAgreement memory agreement = agreements[_id];\n    require(msg.sender == agreement.tenant || msg.sender == agreement.lessor);\n    return (agreement.tenant, agreement.tenantSignature, agreement.lessor, agreement.lessorSignature, agreement.device, agreement.usageFee, agreement.contractTerm, uint256(agreement.state));\n\n  }\n\n  function accept(uint _id, bytes memory _signature) public {\n    require(_id < agreements.length);\n    require(agreements[_id].state == AgreementState.Pending);\n    require(agreements[_id].tenant == msg.sender);\n    require(recoverSigner(getRentalAgreementHash(_id), _signature) == msg.sender);\n    agreements[_id].tenantSignature = _signature;\n    agreements[_id].state = AgreementState(1);\n  }\n\n  function splitSignature(bytes memory _sig) internal pure returns (uint8 v, bytes32 r, bytes32 s) {\n    require(_sig.length == 65);\n    assembly {\n        // first 32 bytes, after the length prefix.\n        r := mload(add(_sig, 32))\n        // second 32 bytes.\n        s := mload(add(_sig, 64))\n        // final byte (first byte of the next 32 bytes).\n        v := byte(0, mload(add(_sig, 96)))\n    }\n    if (v < 27) {\n      v += 27;\n    }\n\n    require (v == 27 || v == 28);\n    return (v, r, s);\n  }\n\n  function recoverSigner(bytes32 _message, bytes memory _sig) internal pure returns (address) {\n    (uint8 v, bytes32 r, bytes32 s) = splitSignature(_sig);\n    return ecrecover(_message, v, r, s);\n  }\n\n  function payForUsage(uint _id, uint _timestamp) payable public {\n    //todo: check _timestamp to be in the past!\n    require(_id < agreements.length);\n    RentalAgreement memory rentalAgreement = agreements[_id];\n    //rentalAgreement must be accepted (and therefore signed) by sender\n    require(recoverSigner(getRentalAgreementHash(_id), rentalAgreement.tenantSignature) == msg.sender);\n    require(msg.sender == rentalAgreement.tenant);\n    require(msg.value == rentalAgreement.usageFee);\n    require(rentalAgreement.state == AgreementState.Active);\n    rentalAgreement.lessor.transfer(msg.value);\n    bytes32 paymentHash = getPaymentHash(_timestamp, rentalAgreement.device, msg.sender, msg.value);\n    payments[rentalAgreement.lessor][paymentHash] = Payment(_timestamp, rentalAgreement.device, msg.sender, msg.value);\n  }\n\n  function getRentalAgreementHash(uint _id) private returns (bytes32) {\n    require(_id < agreements.length);\n    bytes32 message = keccak256(abi.encodePacked(agreements[_id].tenant, agreements[_id].lessor, agreements[_id].device, agreements[_id].usageFee, agreements[_id].contractTerm));\n    bytes memory prefix = \"\\x19Ethereum Signed Message:\\n32\";\n    return keccak256(abi.encodePacked(prefix, message));\n  }\n\n  function getPaymentHash(uint _timestamp, address _device, address _payer, uint _amount) public view returns (bytes32) {\n    bytes32 message = keccak256(abi.encodePacked(_timestamp, _device, _payer, _amount));\n    // bytes memory prefix = \"\\x19Ethereum Signed Message:\\n32\";\n    // return keccak256(abi.encodePacked(prefix, message));\n    return message;\n  }\n\n  function checkUsagePayment(uint _agreementID, bytes32 _paymentHash) public view returns(uint, address, address, uint) {\n    require(_agreementID < agreements.length);\n    RentalAgreement memory rentalAgreement = agreements[_agreementID];\n    require(msg.sender == rentalAgreement.device);\n    return (payments[rentalAgreement.lessor][_paymentHash].timestamp, payments[rentalAgreement.lessor][_paymentHash].device, payments[rentalAgreement.lessor][_paymentHash].payer, payments[rentalAgreement.lessor][_paymentHash].amount);\n  }\n\n  function terminate(uint _agreementID) public {\n    require(_agreementID < agreements.length);\n    RentalAgreement memory rentalAgreement = agreements[_agreementID];\n    require(rentalAgreement.state == AgreementState.Active);\n    require(msg.sender == rentalAgreement.tenant || msg.sender == rentalAgreement.lessor);\n    agreements[_agreementID].state = AgreementState.Terminated;\n  }\n\n}\n",
  "sourcePath": "C:/Users/sebastianka/Git/thesis/application/smart-contracts/contracts/Renting.sol",
  "compiler": {
    "name": "solc",
    "version": "0.5.12+commit.7709ece9.Emscripten.clang"
  },
  "schemaVersion": "3.0.20",
  "updatedAt": "2020-01-16T15:41:35.420Z",
  "networkType": "ethereum",
  "devdoc": {
    "methods": {
      "create(address,bytes,address,uint256,uint256)": {
        "params": {
          "_contractTerm": "timestamp, when rentalAgreement times out",
          "_device": "address of device",
          "_lessorSignature": "signature of lessor of rentalAgreement",
          "_tenant": "address of the tenant",
          "_usageFee": "fee for usage in wei"
        }
      },
      "isKnownParticipant(address,uint256)": {
        "params": {
          "_addr": "the address of the identity address",
          "_roleID": "the role of the identity"
        },
        "return": "a boolean whether or not the identity is known"
      },
      "registerIdentityOracle(address)": {
        "details": "only callable by owner",
        "params": {
          "_addr": "the address of the orcle"
        }
      },
      "transferOwnership(address)": {
        "details": "Allows the current owner to transfer control of the contract to a newOwner.",
        "params": {
          "newOwner": "The address to transfer ownership to."
        }
      }
    }
  },
  "userdoc": {
    "methods": {
      "create(address,bytes,address,uint256,uint256)": {
        "notice": "creates a rentalAgreement"
      },
      "isKnownParticipant(address,uint256)": {
        "notice": "asks registered oracle whether the identity is known or not"
      },
      "registerIdentityOracle(address)": {
        "notice": "sets the oracle address"
      }
    }
  }
}