{
  "contractName": "RentalProvider",
  "abi": [
    {
      "inputs": [],
      "payable": false,
      "stateMutability": "nonpayable",
      "type": "constructor"
    },
    {
      "anonymous": false,
      "inputs": [
        {
          "indexed": true,
          "internalType": "address",
          "name": "previousOwner",
          "type": "address"
        },
        {
          "indexed": true,
          "internalType": "address",
          "name": "newOwner",
          "type": "address"
        }
      ],
      "name": "OwnershipTransferred",
      "type": "event"
    },
    {
      "constant": true,
      "inputs": [
        {
          "internalType": "uint256",
          "name": "",
          "type": "uint256"
        }
      ],
      "name": "agreements",
      "outputs": [
        {
          "internalType": "address payable",
          "name": "tenant",
          "type": "address"
        },
        {
          "internalType": "bytes",
          "name": "tenantSignature",
          "type": "bytes"
        },
        {
          "internalType": "address payable",
          "name": "lessor",
          "type": "address"
        },
        {
          "internalType": "bytes",
          "name": "lessorSignature",
          "type": "bytes"
        },
        {
          "internalType": "address",
          "name": "device",
          "type": "address"
        },
        {
          "internalType": "uint256",
          "name": "usageFee",
          "type": "uint256"
        },
        {
          "internalType": "uint256",
          "name": "contractTerm",
          "type": "uint256"
        },
        {
          "internalType": "uint256",
          "name": "creation",
          "type": "uint256"
        },
        {
          "internalType": "enum RentalProvider.AgreementState",
          "name": "state",
          "type": "uint8"
        },
        {
          "internalType": "bytes32",
          "name": "paymentAgreementHash",
          "type": "bytes32"
        }
      ],
      "payable": false,
      "stateMutability": "view",
      "type": "function"
    },
    {
      "constant": true,
      "inputs": [],
      "name": "oracle_addr",
      "outputs": [
        {
          "internalType": "address",
          "name": "",
          "type": "address"
        }
      ],
      "payable": false,
      "stateMutability": "view",
      "type": "function"
    },
    {
      "constant": true,
      "inputs": [],
      "name": "owner",
      "outputs": [
        {
          "internalType": "address payable",
          "name": "",
          "type": "address"
        }
      ],
      "payable": false,
      "stateMutability": "view",
      "type": "function"
    },
    {
      "constant": true,
      "inputs": [],
      "name": "paymentProvider_addr",
      "outputs": [
        {
          "internalType": "address",
          "name": "",
          "type": "address"
        }
      ],
      "payable": false,
      "stateMutability": "view",
      "type": "function"
    },
    {
      "constant": true,
      "inputs": [
        {
          "internalType": "uint256",
          "name": "",
          "type": "uint256"
        }
      ],
      "name": "rentableDevices",
      "outputs": [
        {
          "internalType": "address",
          "name": "",
          "type": "address"
        }
      ],
      "payable": false,
      "stateMutability": "view",
      "type": "function"
    },
    {
      "constant": true,
      "inputs": [
        {
          "internalType": "uint256",
          "name": "",
          "type": "uint256"
        }
      ],
      "name": "requests",
      "outputs": [
        {
          "internalType": "address",
          "name": "tenant",
          "type": "address"
        },
        {
          "internalType": "address",
          "name": "lessor",
          "type": "address"
        },
        {
          "internalType": "address",
          "name": "device",
          "type": "address"
        },
        {
          "internalType": "uint256",
          "name": "contractTerm",
          "type": "uint256"
        }
      ],
      "payable": false,
      "stateMutability": "view",
      "type": "function"
    },
    {
      "constant": false,
      "inputs": [
        {
          "internalType": "address",
          "name": "newOwner",
          "type": "address"
        }
      ],
      "name": "transferOwnership",
      "outputs": [],
      "payable": false,
      "stateMutability": "nonpayable",
      "type": "function"
    },
    {
      "constant": false,
      "inputs": [],
      "name": "init",
      "outputs": [],
      "payable": false,
      "stateMutability": "nonpayable",
      "type": "function"
    },
    {
      "constant": false,
      "inputs": [],
      "name": "destroy",
      "outputs": [],
      "payable": false,
      "stateMutability": "nonpayable",
      "type": "function"
    },
    {
      "constant": true,
      "inputs": [],
      "name": "getRentableDevices",
      "outputs": [
        {
          "internalType": "address[]",
          "name": "",
          "type": "address[]"
        }
      ],
      "payable": false,
      "stateMutability": "view",
      "type": "function"
    },
    {
      "constant": true,
      "inputs": [
        {
          "internalType": "address",
          "name": "_device",
          "type": "address"
        }
      ],
      "name": "deviceIsRentable",
      "outputs": [
        {
          "internalType": "bool",
          "name": "",
          "type": "bool"
        }
      ],
      "payable": false,
      "stateMutability": "view",
      "type": "function"
    },
    {
      "constant": false,
      "inputs": [
        {
          "internalType": "address",
          "name": "_device",
          "type": "address"
        },
        {
          "internalType": "address",
          "name": "_lessor",
          "type": "address"
        },
        {
          "internalType": "uint256",
          "name": "_term",
          "type": "uint256"
        }
      ],
      "name": "createRequest",
      "outputs": [],
      "payable": false,
      "stateMutability": "nonpayable",
      "type": "function"
    },
    {
      "constant": false,
      "inputs": [
        {
          "internalType": "address",
          "name": "_tenant",
          "type": "address"
        },
        {
          "internalType": "address",
          "name": "_lessor",
          "type": "address"
        },
        {
          "internalType": "address",
          "name": "_device",
          "type": "address"
        },
        {
          "internalType": "uint256",
          "name": "_term",
          "type": "uint256"
        }
      ],
      "name": "removeRequest",
      "outputs": [],
      "payable": false,
      "stateMutability": "nonpayable",
      "type": "function"
    },
    {
      "constant": true,
      "inputs": [],
      "name": "getRequestsAsLessor",
      "outputs": [
        {
          "internalType": "address[]",
          "name": "",
          "type": "address[]"
        },
        {
          "internalType": "address[]",
          "name": "",
          "type": "address[]"
        },
        {
          "internalType": "address[]",
          "name": "",
          "type": "address[]"
        },
        {
          "internalType": "uint256[]",
          "name": "",
          "type": "uint256[]"
        }
      ],
      "payable": false,
      "stateMutability": "view",
      "type": "function"
    },
    {
      "constant": true,
      "inputs": [],
      "name": "getRequestsAsTenant",
      "outputs": [
        {
          "internalType": "address[]",
          "name": "",
          "type": "address[]"
        },
        {
          "internalType": "address[]",
          "name": "",
          "type": "address[]"
        },
        {
          "internalType": "address[]",
          "name": "",
          "type": "address[]"
        },
        {
          "internalType": "uint256[]",
          "name": "",
          "type": "uint256[]"
        }
      ],
      "payable": false,
      "stateMutability": "view",
      "type": "function"
    },
    {
      "constant": true,
      "inputs": [
        {
          "internalType": "address",
          "name": "_tenant",
          "type": "address"
        },
        {
          "internalType": "address",
          "name": "_lessor",
          "type": "address"
        },
        {
          "internalType": "address",
          "name": "_device",
          "type": "address"
        },
        {
          "internalType": "uint256",
          "name": "_term",
          "type": "uint256"
        }
      ],
      "name": "requestExists",
      "outputs": [
        {
          "internalType": "bool",
          "name": "",
          "type": "bool"
        }
      ],
      "payable": false,
      "stateMutability": "view",
      "type": "function"
    },
    {
      "constant": false,
      "inputs": [
        {
          "internalType": "uint256",
          "name": "index",
          "type": "uint256"
        }
      ],
      "name": "removeDeviceFromRentableList",
      "outputs": [],
      "payable": false,
      "stateMutability": "nonpayable",
      "type": "function"
    },
    {
      "constant": true,
      "inputs": [
        {
          "internalType": "address",
          "name": "_device",
          "type": "address"
        }
      ],
      "name": "getRentableDeviceListIndex",
      "outputs": [
        {
          "internalType": "uint256",
          "name": "",
          "type": "uint256"
        }
      ],
      "payable": false,
      "stateMutability": "view",
      "type": "function"
    },
    {
      "constant": true,
      "inputs": [
        {
          "internalType": "address",
          "name": "_addr",
          "type": "address"
        },
        {
          "internalType": "uint256",
          "name": "_roleID",
          "type": "uint256"
        }
      ],
      "name": "isKnownParticipant",
      "outputs": [
        {
          "internalType": "bool",
          "name": "",
          "type": "bool"
        }
      ],
      "payable": false,
      "stateMutability": "view",
      "type": "function"
    },
    {
      "constant": false,
      "inputs": [
        {
          "internalType": "address",
          "name": "_addr",
          "type": "address"
        }
      ],
      "name": "registerIdentityProvider",
      "outputs": [],
      "payable": false,
      "stateMutability": "nonpayable",
      "type": "function"
    },
    {
      "constant": false,
      "inputs": [
        {
          "internalType": "address",
          "name": "_addr",
          "type": "address"
        }
      ],
      "name": "registerPaymentProvider",
      "outputs": [],
      "payable": false,
      "stateMutability": "nonpayable",
      "type": "function"
    },
    {
      "constant": true,
      "inputs": [
        {
          "internalType": "address",
          "name": "_tenant",
          "type": "address"
        },
        {
          "internalType": "address",
          "name": "_lessor",
          "type": "address"
        },
        {
          "internalType": "address",
          "name": "_device",
          "type": "address"
        },
        {
          "internalType": "uint256",
          "name": "_fee",
          "type": "uint256"
        },
        {
          "internalType": "uint256",
          "name": "_term",
          "type": "uint256"
        },
        {
          "internalType": "bytes",
          "name": "_sig",
          "type": "bytes"
        },
        {
          "internalType": "address",
          "name": "_signer",
          "type": "address"
        }
      ],
      "name": "verify",
      "outputs": [
        {
          "internalType": "bool",
          "name": "",
          "type": "bool"
        }
      ],
      "payable": false,
      "stateMutability": "pure",
      "type": "function"
    },
    {
      "constant": false,
      "inputs": [
        {
          "internalType": "address",
          "name": "_tenant",
          "type": "address"
        },
        {
          "internalType": "bytes",
          "name": "_lessorSignature",
          "type": "bytes"
        },
        {
          "internalType": "address",
          "name": "_device",
          "type": "address"
        },
        {
          "internalType": "uint256",
          "name": "_usageFee",
          "type": "uint256"
        },
        {
          "internalType": "uint256",
          "name": "_contractTerm",
          "type": "uint256"
        }
      ],
      "name": "createRenting",
      "outputs": [],
      "payable": false,
      "stateMutability": "nonpayable",
      "type": "function"
    },
    {
      "constant": true,
      "inputs": [
        {
          "internalType": "address",
          "name": "_tenant",
          "type": "address"
        },
        {
          "internalType": "address",
          "name": "_device",
          "type": "address"
        }
      ],
      "name": "agreementExists",
      "outputs": [
        {
          "internalType": "bool",
          "name": "",
          "type": "bool"
        }
      ],
      "payable": false,
      "stateMutability": "view",
      "type": "function"
    },
    {
      "constant": true,
      "inputs": [
        {
          "internalType": "bytes",
          "name": "_lessorSignature",
          "type": "bytes"
        }
      ],
      "name": "agreementExists",
      "outputs": [
        {
          "internalType": "bool",
          "name": "",
          "type": "bool"
        }
      ],
      "payable": false,
      "stateMutability": "view",
      "type": "function"
    },
    {
      "constant": true,
      "inputs": [
        {
          "internalType": "uint256",
          "name": "_stateID",
          "type": "uint256"
        }
      ],
      "name": "getIDs",
      "outputs": [
        {
          "internalType": "uint256[]",
          "name": "",
          "type": "uint256[]"
        }
      ],
      "payable": false,
      "stateMutability": "view",
      "type": "function"
    },
    {
      "constant": true,
      "inputs": [
        {
          "internalType": "uint256",
          "name": "_id",
          "type": "uint256"
        }
      ],
      "name": "getByID",
      "outputs": [
        {
          "internalType": "address",
          "name": "",
          "type": "address"
        },
        {
          "internalType": "bytes",
          "name": "",
          "type": "bytes"
        },
        {
          "internalType": "address",
          "name": "",
          "type": "address"
        },
        {
          "internalType": "bytes",
          "name": "",
          "type": "bytes"
        },
        {
          "internalType": "address",
          "name": "",
          "type": "address"
        },
        {
          "internalType": "uint256",
          "name": "",
          "type": "uint256"
        },
        {
          "internalType": "uint256",
          "name": "",
          "type": "uint256"
        },
        {
          "internalType": "uint256",
          "name": "",
          "type": "uint256"
        },
        {
          "internalType": "uint256",
          "name": "",
          "type": "uint256"
        },
        {
          "internalType": "bytes32",
          "name": "",
          "type": "bytes32"
        }
      ],
      "payable": false,
      "stateMutability": "view",
      "type": "function"
    },
    {
      "constant": false,
      "inputs": [
        {
          "internalType": "uint256",
          "name": "_id",
          "type": "uint256"
        },
        {
          "internalType": "bytes",
          "name": "_signature",
          "type": "bytes"
        }
      ],
      "name": "accept",
      "outputs": [],
      "payable": true,
      "stateMutability": "payable",
      "type": "function"
    },
    {
      "constant": true,
      "inputs": [
        {
          "internalType": "uint256",
          "name": "_id",
          "type": "uint256"
        }
      ],
      "name": "getRentalAgreementHash",
      "outputs": [
        {
          "internalType": "bytes32",
          "name": "",
          "type": "bytes32"
        }
      ],
      "payable": false,
      "stateMutability": "view",
      "type": "function"
    },
    {
      "constant": false,
      "inputs": [
        {
          "internalType": "uint256",
          "name": "_agreementID",
          "type": "uint256"
        }
      ],
      "name": "terminate",
      "outputs": [],
      "payable": false,
      "stateMutability": "nonpayable",
      "type": "function"
    }
  ],
  "bytecode": "0x608060405234801561001057600080fd5b50336000806101000a81548173ffffffffffffffffffffffffffffffffffffffff021916908373ffffffffffffffffffffffffffffffffffffffff16021790555033600660006101000a81548173ffffffffffffffffffffffffffffffffffffffff021916908373ffffffffffffffffffffffffffffffffffffffff1602179055506151a2806100a16000396000f3fe6080604052600436106101cd5760003560e01c8063b0addede116100f7578063e1c7392a11610095578063ee2c864011610064578063ee2c864014611376578063f2fde38b146113cd578063f61cf0641461141e578063fdc5c91d1461146d576101cd565b8063e1c7392a146111d7578063e1fa1cd3146111ee578063e600b25114611245578063e9db07ec14611296576101cd565b8063d268c128116100d1578063d268c12814610f52578063d69753c114610fbb578063d771e9e214611020578063e0cabd001461113c576101cd565b8063b0addede14610ba9578063bd14de9614610c24578063ce38221014610e0e576101cd565b80636f1acd981161016f57806383197ef01161013e57806383197ef014610a5c5780638da5cb5b14610a73578063ad5e489f14610aca578063aefa450514610b3d576101cd565b80636f1acd98146106cd57806374fb0aa71461075d5780637a828b281461093957806381d12c5814610974576101cd565b806366c9b723116101ab57806366c9b7231461033b57806366ff5f84146103c45780636776dff4146105085780636b2c5f231461067c576101cd565b80630e168ca7146101d25780632cc9e72b1461020d5780634446553a146102c0575b600080fd5b3480156101de57600080fd5b5061020b600480360360208110156101f557600080fd5b8101908080359060200190929190505050611532565b005b34801561021957600080fd5b506102a66004803603608081101561023057600080fd5b81019080803573ffffffffffffffffffffffffffffffffffffffff169060200190929190803573ffffffffffffffffffffffffffffffffffffffff169060200190929190803573ffffffffffffffffffffffffffffffffffffffff16906020019092919080359060200190929190505050611660565b604051808215151515815260200191505060405180910390f35b3480156102cc57600080fd5b506102f9600480360360208110156102e357600080fd5b810190808035906020019092919050505061181f565b604051808273ffffffffffffffffffffffffffffffffffffffff1673ffffffffffffffffffffffffffffffffffffffff16815260200191505060405180910390f35b34801561034757600080fd5b506103aa6004803603604081101561035e57600080fd5b81019080803573ffffffffffffffffffffffffffffffffffffffff169060200190929190803573ffffffffffffffffffffffffffffffffffffffff16906020019092919050505061185b565b604051808215151515815260200191505060405180910390f35b3480156103d057600080fd5b506103d96119c6565b6040518080602001806020018060200180602001858103855289818151815260200191508051906020019060200280838360005b8381101561042857808201518184015260208101905061040d565b50505050905001858103845288818151815260200191508051906020019060200280838360005b8381101561046a57808201518184015260208101905061044f565b50505050905001858103835287818151815260200191508051906020019060200280838360005b838110156104ac578082015181840152602081019050610491565b50505050905001858103825286818151815260200191508051906020019060200280838360005b838110156104ee5780820151818401526020810190506104d3565b505050509050019850505050505050505060405180910390f35b34801561051457600080fd5b50610662600480360360e081101561052b57600080fd5b81019080803573ffffffffffffffffffffffffffffffffffffffff169060200190929190803573ffffffffffffffffffffffffffffffffffffffff169060200190929190803573ffffffffffffffffffffffffffffffffffffffff1690602001909291908035906020019092919080359060200190929190803590602001906401000000008111156105bc57600080fd5b8201836020820111156105ce57600080fd5b803590602001918460018302840111640100000000831117156105f057600080fd5b91908080601f016020809104026020016040519081016040528093929190818152602001838380828437600081840152601f19601f820116905080830192505050505050509192919290803573ffffffffffffffffffffffffffffffffffffffff169060200190929190505050611dd0565b604051808215151515815260200191505060405180910390f35b34801561068857600080fd5b506106cb6004803603602081101561069f57600080fd5b81019080803573ffffffffffffffffffffffffffffffffffffffff169060200190929190505050612017565b005b3480156106d957600080fd5b50610706600480360360208110156106f057600080fd5b81019080803590602001909291905050506120b4565b6040518080602001828103825283818151815260200191508051906020019060200280838360005b8381101561074957808201518184015260208101905061072e565b505050509050019250505060405180910390f35b34801561076957600080fd5b506107966004803603602081101561078057600080fd5b81019080803590602001909291905050506122fe565b604051808b73ffffffffffffffffffffffffffffffffffffffff1673ffffffffffffffffffffffffffffffffffffffff168152602001806020018a73ffffffffffffffffffffffffffffffffffffffff1673ffffffffffffffffffffffffffffffffffffffff168152602001806020018973ffffffffffffffffffffffffffffffffffffffff1673ffffffffffffffffffffffffffffffffffffffff16815260200188815260200187815260200186815260200185815260200184815260200183810383528c818151815260200191508051906020019080838360005b8381101561088e578082015181840152602081019050610873565b50505050905090810190601f1680156108bb5780820380516001836020036101000a031916815260200191505b5083810382528a818151815260200191508051906020019080838360005b838110156108f45780820151818401526020810190506108d9565b50505050905090810190601f1680156109215780820380516001836020036101000a031916815260200191505b509c5050505050505050505050505060405180910390f35b34801561094557600080fd5b506109726004803603602081101561095c57600080fd5b81019080803590602001909291905050506126cf565b005b34801561098057600080fd5b506109ad6004803603602081101561099757600080fd5b8101908080359060200190929190505050612ba8565b604051808573ffffffffffffffffffffffffffffffffffffffff1673ffffffffffffffffffffffffffffffffffffffff1681526020018473ffffffffffffffffffffffffffffffffffffffff1673ffffffffffffffffffffffffffffffffffffffff1681526020018373ffffffffffffffffffffffffffffffffffffffff1673ffffffffffffffffffffffffffffffffffffffff16815260200182815260200194505050505060405180910390f35b348015610a6857600080fd5b50610a71612c45565b005b348015610a7f57600080fd5b50610a88612d26565b604051808273ffffffffffffffffffffffffffffffffffffffff1673ffffffffffffffffffffffffffffffffffffffff16815260200191505060405180910390f35b348015610ad657600080fd5b50610b2360048036036040811015610aed57600080fd5b81019080803573ffffffffffffffffffffffffffffffffffffffff16906020019092919080359060200190929190505050612d4c565b604051808215151515815260200191505060405180910390f35b348015610b4957600080fd5b50610b52612f09565b6040518080602001828103825283818151815260200191508051906020019060200280838360005b83811015610b95578082015181840152602081019050610b7a565b505050509050019250505060405180910390f35b348015610bb557600080fd5b50610c2260048036036060811015610bcc57600080fd5b81019080803573ffffffffffffffffffffffffffffffffffffffff169060200190929190803573ffffffffffffffffffffffffffffffffffffffff16906020019092919080359060200190929190505050612f97565b005b348015610c3057600080fd5b50610c5d60048036036020811015610c4757600080fd5b81019080803590602001909291905050506132ae565b604051808b73ffffffffffffffffffffffffffffffffffffffff1673ffffffffffffffffffffffffffffffffffffffff168152602001806020018a73ffffffffffffffffffffffffffffffffffffffff1673ffffffffffffffffffffffffffffffffffffffff168152602001806020018973ffffffffffffffffffffffffffffffffffffffff1673ffffffffffffffffffffffffffffffffffffffff168152602001888152602001878152602001868152602001856002811115610d1d57fe5b60ff16815260200184815260200183810383528c818151815260200191508051906020019080838360005b83811015610d63578082015181840152602081019050610d48565b50505050905090810190601f168015610d905780820380516001836020036101000a031916815260200191505b5083810382528a818151815260200191508051906020019080838360005b83811015610dc9578082015181840152602081019050610dae565b50505050905090810190601f168015610df65780820380516001836020036101000a031916815260200191505b509c5050505050505050505050505060405180910390f35b348015610e1a57600080fd5b50610e236134ac565b6040518080602001806020018060200180602001858103855289818151815260200191508051906020019060200280838360005b83811015610e72578082015181840152602081019050610e57565b50505050905001858103845288818151815260200191508051906020019060200280838360005b83811015610eb4578082015181840152602081019050610e99565b50505050905001858103835287818151815260200191508051906020019060200280838360005b83811015610ef6578082015181840152602081019050610edb565b50505050905001858103825286818151815260200191508051906020019060200280838360005b83811015610f38578082015181840152602081019050610f1d565b505050509050019850505050505050505060405180910390f35b348015610f5e57600080fd5b50610fa160048036036020811015610f7557600080fd5b81019080803573ffffffffffffffffffffffffffffffffffffffff1690602001909291905050506138b6565b604051808215151515815260200191505060405180910390f35b348015610fc757600080fd5b5061100a60048036036020811015610fde57600080fd5b81019080803573ffffffffffffffffffffffffffffffffffffffff169060200190929190505050613957565b6040518082815260200191505060405180910390f35b34801561102c57600080fd5b5061113a600480360360a081101561104357600080fd5b81019080803573ffffffffffffffffffffffffffffffffffffffff1690602001909291908035906020019064010000000081111561108057600080fd5b82018360208201111561109257600080fd5b803590602001918460018302840111640100000000831117156110b457600080fd5b91908080601f016020809104026020016040519081016040528093929190818152602001838380828437600081840152601f19601f820116905080830192505050505050509192919290803573ffffffffffffffffffffffffffffffffffffffff16906020019092919080359060200190929190803590602001909291905050506139f8565b005b34801561114857600080fd5b506111d56004803603608081101561115f57600080fd5b81019080803573ffffffffffffffffffffffffffffffffffffffff169060200190929190803573ffffffffffffffffffffffffffffffffffffffff169060200190929190803573ffffffffffffffffffffffffffffffffffffffff16906020019092919080359060200190929190505050613e7e565b005b3480156111e357600080fd5b506111ec6142e9565b005b3480156111fa57600080fd5b5061120361449d565b604051808273ffffffffffffffffffffffffffffffffffffffff1673ffffffffffffffffffffffffffffffffffffffff16815260200191505060405180910390f35b34801561125157600080fd5b506112946004803603602081101561126857600080fd5b81019080803573ffffffffffffffffffffffffffffffffffffffff1690602001909291905050506144c3565b005b3480156112a257600080fd5b5061135c600480360360208110156112b957600080fd5b81019080803590602001906401000000008111156112d657600080fd5b8201836020820111156112e857600080fd5b8035906020019184600183028401116401000000008311171561130a57600080fd5b91908080601f016020809104026020016040519081016040528093929190818152602001838380828437600081840152601f19601f820116905080830192505050505050509192919290505050614560565b604051808215151515815260200191505060405180910390f35b34801561138257600080fd5b5061138b61462b565b604051808273ffffffffffffffffffffffffffffffffffffffff1673ffffffffffffffffffffffffffffffffffffffff16815260200191505060405180910390f35b3480156113d957600080fd5b5061141c600480360360208110156113f057600080fd5b81019080803573ffffffffffffffffffffffffffffffffffffffff169060200190929190505050614651565b005b34801561142a57600080fd5b506114576004803603602081101561144157600080fd5b81019080803590602001909291905050506147a2565b6040518082815260200191505060405180910390f35b6115306004803603604081101561148357600080fd5b8101908080359060200190929190803590602001906401000000008111156114aa57600080fd5b8201836020820111156114bc57600080fd5b803590602001918460018302840111640100000000831117156114de57600080fd5b91908080601f016020809104026020016040519081016040528093929190818152602001838380828437600081840152601f19601f820116905080830192505050505050509192919290505050614a40565b005b600380549050811061154357600080fd5b600081101561155157600080fd5b60008190505b600160038054905003811015611604576003600182018154811061157757fe5b9060005260206000200160009054906101000a900473ffffffffffffffffffffffffffffffffffffffff16600382815481106115af57fe5b9060005260206000200160006101000a81548173ffffffffffffffffffffffffffffffffffffffff021916908373ffffffffffffffffffffffffffffffffffffffff1602179055508080600101915050611557565b5060036001600380549050038154811061161a57fe5b9060005260206000200160006101000a81549073ffffffffffffffffffffffffffffffffffffffff0219169055600380548091906001900361165c9190614dbc565b5050565b600080600090505b600180549050811015611811578573ffffffffffffffffffffffffffffffffffffffff166001828154811061169957fe5b906000526020600020906004020160000160009054906101000a900473ffffffffffffffffffffffffffffffffffffffff1673ffffffffffffffffffffffffffffffffffffffff1614801561175757508473ffffffffffffffffffffffffffffffffffffffff166001828154811061170d57fe5b906000526020600020906004020160010160009054906101000a900473ffffffffffffffffffffffffffffffffffffffff1673ffffffffffffffffffffffffffffffffffffffff16145b80156117cc57508373ffffffffffffffffffffffffffffffffffffffff166001828154811061178257fe5b906000526020600020906004020160020160009054906101000a900473ffffffffffffffffffffffffffffffffffffffff1673ffffffffffffffffffffffffffffffffffffffff16145b80156117f5575082600182815481106117e157fe5b906000526020600020906004020160030154145b15611804576001915050611817565b8080600101915050611668565b50600090505b949350505050565b6003818154811061182c57fe5b906000526020600020016000915054906101000a900473ffffffffffffffffffffffffffffffffffffffff1681565b6000611868836002612d4c565b61187157600080fd5b61187c826005612d4c565b61188557600080fd5b60008090505b6002805490508110156119ba578273ffffffffffffffffffffffffffffffffffffffff16600282815481106118bc57fe5b90600052602060002090600a020160040160009054906101000a900473ffffffffffffffffffffffffffffffffffffffff1673ffffffffffffffffffffffffffffffffffffffff1614801561199e57506000600281111561191957fe5b6002828154811061192657fe5b90600052602060002090600a020160080160009054906101000a900460ff16600281111561195057fe5b148061199d57506001600281111561196457fe5b6002828154811061197157fe5b90600052602060002090600a020160080160009054906101000a900460ff16600281111561199b57fe5b145b5b156119ad5760019150506119c0565b808060010191505061188b565b50600090505b92915050565b6060806060806119d7336002612d4c565b6119e057600080fd5b600080905060008090505b600180549050811015611a80573373ffffffffffffffffffffffffffffffffffffffff1660018281548110611a1c57fe5b906000526020600020906004020160000160009054906101000a900473ffffffffffffffffffffffffffffffffffffffff1673ffffffffffffffffffffffffffffffffffffffff161415611a735781806001019250505b80806001019150506119eb565b50606081604051908082528060200260200182016040528015611ab25781602001602082028038833980820191505090505b509050606082604051908082528060200260200182016040528015611ae65781602001602082028038833980820191505090505b509050606083604051908082528060200260200182016040528015611b1a5781602001602082028038833980820191505090505b509050606084604051908082528060200260200182016040528015611b4e5781602001602082028038833980820191505090505b509050600080905060008090505b600180549050811015611db7573373ffffffffffffffffffffffffffffffffffffffff1660018281548110611b8d57fe5b906000526020600020906004020160000160009054906101000a900473ffffffffffffffffffffffffffffffffffffffff1673ffffffffffffffffffffffffffffffffffffffff161415611daa5760018181548110611be857fe5b906000526020600020906004020160000160009054906101000a900473ffffffffffffffffffffffffffffffffffffffff16868381518110611c2657fe5b602002602001019073ffffffffffffffffffffffffffffffffffffffff16908173ffffffffffffffffffffffffffffffffffffffff168152505060018181548110611c6d57fe5b906000526020600020906004020160010160009054906101000a900473ffffffffffffffffffffffffffffffffffffffff16858381518110611cab57fe5b602002602001019073ffffffffffffffffffffffffffffffffffffffff16908173ffffffffffffffffffffffffffffffffffffffff168152505060018181548110611cf257fe5b906000526020600020906004020160020160009054906101000a900473ffffffffffffffffffffffffffffffffffffffff16848381518110611d3057fe5b602002602001019073ffffffffffffffffffffffffffffffffffffffff16908173ffffffffffffffffffffffffffffffffffffffff168152505060018181548110611d7757fe5b906000526020600020906004020160030154838381518110611d9557fe5b60200260200101818152505081806001019250505b8080600101915050611b5c565b5084848484995099509950995050505050505090919293565b600080600080611ddf86614cc9565b92509250925060008b8b8b8b8b604051602001808673ffffffffffffffffffffffffffffffffffffffff1673ffffffffffffffffffffffffffffffffffffffff1660601b81526014018573ffffffffffffffffffffffffffffffffffffffff1673ffffffffffffffffffffffffffffffffffffffff1660601b81526014018473ffffffffffffffffffffffffffffffffffffffff1673ffffffffffffffffffffffffffffffffffffffff1660601b81526014018381526020018281526020019550505050505060405160208183030381529060405280519060200120905060606040518060400160405280601c81526020017f19457468657265756d205369676e6564204d6573736167653a0a33320000000081525090508673ffffffffffffffffffffffffffffffffffffffff16600182846040516020018083805190602001908083835b60208310611f485780518252602082019150602081019050602083039250611f25565b6001836020036101000a038019825116818451168082178552505050505050905001828152602001925050506040516020818303038152906040528051906020012087878760405160008152602001604052604051808581526020018460ff1660ff1681526020018381526020018281526020019450505050506020604051602081039080840390855afa158015611fe4573d6000803e3d6000fd5b5050506020604051035173ffffffffffffffffffffffffffffffffffffffff161495505050505050979650505050505050565b6000809054906101000a900473ffffffffffffffffffffffffffffffffffffffff1673ffffffffffffffffffffffffffffffffffffffff163373ffffffffffffffffffffffffffffffffffffffff161461207057600080fd5b80600560006101000a81548173ffffffffffffffffffffffffffffffffffffffff021916908373ffffffffffffffffffffffffffffffffffffffff16021790555050565b6060600080905060008090505b6002805490508110156121ad573373ffffffffffffffffffffffffffffffffffffffff16600282815481106120f257fe5b90600052602060002090600a020160000160009054906101000a900473ffffffffffffffffffffffffffffffffffffffff1673ffffffffffffffffffffffffffffffffffffffff16148015612192575083600281111561214e57fe5b600281111561215957fe5b6002828154811061216657fe5b90600052602060002090600a020160080160009054906101000a900460ff16600281111561219057fe5b145b156121a05781806001019250505b80806001019150506120c1565b506060816040519080825280602002602001820160405280156121df5781602001602082028038833980820191505090505b509050600080905060008090505b6002805490508110156122f2573373ffffffffffffffffffffffffffffffffffffffff166002828154811061221e57fe5b90600052602060002090600a020160000160009054906101000a900473ffffffffffffffffffffffffffffffffffffffff1673ffffffffffffffffffffffffffffffffffffffff161480156122be575085600281111561227a57fe5b600281111561228557fe5b6002828154811061229257fe5b90600052602060002090600a020160080160009054906101000a900460ff1660028111156122bc57fe5b145b156122e557808383815181106122d057fe5b60200260200101818152505081806001019250505b80806001019150506121ed565b50819350505050919050565b60006060600060606000806000806000806002805490508b1061232057600080fd5b612328614de8565b60028c8154811061233557fe5b90600052602060002090600a0201604051806101400160405290816000820160009054906101000a900473ffffffffffffffffffffffffffffffffffffffff1673ffffffffffffffffffffffffffffffffffffffff1673ffffffffffffffffffffffffffffffffffffffff168152602001600182018054600181600116156101000203166002900480601f01602080910402602001604051908101604052809291908181526020018280546001816001161561010002031660029004801561243e5780601f106124135761010080835404028352916020019161243e565b820191906000526020600020905b81548152906001019060200180831161242157829003601f168201915b505050505081526020016002820160009054906101000a900473ffffffffffffffffffffffffffffffffffffffff1673ffffffffffffffffffffffffffffffffffffffff1673ffffffffffffffffffffffffffffffffffffffff168152602001600382018054600181600116156101000203166002900480601f0160208091040260200160405190810160405280929190818152602001828054600181600116156101000203166002900480156125365780601f1061250b57610100808354040283529160200191612536565b820191906000526020600020905b81548152906001019060200180831161251957829003601f168201915b505050505081526020016004820160009054906101000a900473ffffffffffffffffffffffffffffffffffffffff1673ffffffffffffffffffffffffffffffffffffffff1673ffffffffffffffffffffffffffffffffffffffff1681526020016005820154815260200160068201548152602001600782015481526020016008820160009054906101000a900460ff1660028111156125d157fe5b60028111156125dc57fe5b81526020016009820154815250509050806000015173ffffffffffffffffffffffffffffffffffffffff163373ffffffffffffffffffffffffffffffffffffffff1614806126595750806040015173ffffffffffffffffffffffffffffffffffffffff163373ffffffffffffffffffffffffffffffffffffffff16145b61266257600080fd5b806000015181602001518260400151836060015184608001518560a001518660c001518760e00151886101000151600281111561269b57fe5b8961012001518999508898508797508696509a509a509a509a509a509a509a509a509a509a50509193959799509193959799565b60028054905081106126e057600080fd5b6126e8614de8565b600282815481106126f557fe5b90600052602060002090600a0201604051806101400160405290816000820160009054906101000a900473ffffffffffffffffffffffffffffffffffffffff1673ffffffffffffffffffffffffffffffffffffffff1673ffffffffffffffffffffffffffffffffffffffff168152602001600182018054600181600116156101000203166002900480601f0160208091040260200160405190810160405280929190818152602001828054600181600116156101000203166002900480156127fe5780601f106127d3576101008083540402835291602001916127fe565b820191906000526020600020905b8154815290600101906020018083116127e157829003601f168201915b505050505081526020016002820160009054906101000a900473ffffffffffffffffffffffffffffffffffffffff1673ffffffffffffffffffffffffffffffffffffffff1673ffffffffffffffffffffffffffffffffffffffff168152602001600382018054600181600116156101000203166002900480601f0160208091040260200160405190810160405280929190818152602001828054600181600116156101000203166002900480156128f65780601f106128cb576101008083540402835291602001916128f6565b820191906000526020600020905b8154815290600101906020018083116128d957829003601f168201915b505050505081526020016004820160009054906101000a900473ffffffffffffffffffffffffffffffffffffffff1673ffffffffffffffffffffffffffffffffffffffff1673ffffffffffffffffffffffffffffffffffffffff1681526020016005820154815260200160068201548152602001600782015481526020016008820160009054906101000a900460ff16600281111561299157fe5b600281111561299c57fe5b81526020016009820154815250509050600160028111156129b957fe5b81610100015160028111156129ca57fe5b146129d457600080fd5b806000015173ffffffffffffffffffffffffffffffffffffffff163373ffffffffffffffffffffffffffffffffffffffff161480612a415750806040015173ffffffffffffffffffffffffffffffffffffffff163373ffffffffffffffffffffffffffffffffffffffff16145b612a4a57600080fd5b6002808381548110612a5857fe5b90600052602060002090600a020160080160006101000a81548160ff02191690836002811115612a8457fe5b02179055506000600560009054906101000a900473ffffffffffffffffffffffffffffffffffffffff1690508073ffffffffffffffffffffffffffffffffffffffff1663879e4b1a60028581548110612ad957fe5b90600052602060002090600a0201600901546040518263ffffffff1660e01b815260040180828152602001915050600060405180830381600087803b158015612b2157600080fd5b505af1158015612b35573d6000803e3d6000fd5b505050506003826080015190806001815401808255809150509060018203906000526020600020016000909192909190916101000a81548173ffffffffffffffffffffffffffffffffffffffff021916908373ffffffffffffffffffffffffffffffffffffffff16021790555050505050565b60018181548110612bb557fe5b90600052602060002090600402016000915090508060000160009054906101000a900473ffffffffffffffffffffffffffffffffffffffff16908060010160009054906101000a900473ffffffffffffffffffffffffffffffffffffffff16908060020160009054906101000a900473ffffffffffffffffffffffffffffffffffffffff16908060030154905084565b600660009054906101000a900473ffffffffffffffffffffffffffffffffffffffff1673ffffffffffffffffffffffffffffffffffffffff163373ffffffffffffffffffffffffffffffffffffffff1614612ceb576040517f08c379a000000000000000000000000000000000000000000000000000000000815260040180806020018281038252602281526020018061514c6022913960400191505060405180910390fd5b600660009054906101000a900473ffffffffffffffffffffffffffffffffffffffff1673ffffffffffffffffffffffffffffffffffffffff16ff5b600660009054906101000a900473ffffffffffffffffffffffffffffffffffffffff1681565b600080600460009054906101000a900473ffffffffffffffffffffffffffffffffffffffff1690508073ffffffffffffffffffffffffffffffffffffffff16634d221b85856040518263ffffffff1660e01b8152600401808273ffffffffffffffffffffffffffffffffffffffff1673ffffffffffffffffffffffffffffffffffffffff16815260200191505060206040518083038186803b158015612df157600080fd5b505afa158015612e05573d6000803e3d6000fd5b505050506040513d6020811015612e1b57600080fd5b81019080805190602001909291905050508015612eee5750828173ffffffffffffffffffffffffffffffffffffffff16636bfd4def866040518263ffffffff1660e01b8152600401808273ffffffffffffffffffffffffffffffffffffffff1673ffffffffffffffffffffffffffffffffffffffff16815260200191505060206040518083038186803b158015612eb157600080fd5b505afa158015612ec5573d6000803e3d6000fd5b505050506040513d6020811015612edb57600080fd5b8101908080519060200190929190505050145b15612efd576001915050612f03565b60009150505b92915050565b60606003805480602002602001604051908101604052809291908181526020018280548015612f8d57602002820191906000526020600020905b8160009054906101000a900473ffffffffffffffffffffffffffffffffffffffff1673ffffffffffffffffffffffffffffffffffffffff1681526020019060010190808311612f43575b5050505050905090565b612fa2336002612d4c565b612fab57600080fd5b612fb6836005612d4c565b612fbf57600080fd5b612fca826001612d4c565b612fd357600080fd5b612fdc836138b6565b612fe557600080fd5b6000600460009054906101000a900473ffffffffffffffffffffffffffffffffffffffff1690508073ffffffffffffffffffffffffffffffffffffffff166312cbf132856040518263ffffffff1660e01b8152600401808273ffffffffffffffffffffffffffffffffffffffff1673ffffffffffffffffffffffffffffffffffffffff16815260200191505060206040518083038186803b15801561308957600080fd5b505afa15801561309d573d6000803e3d6000fd5b505050506040513d60208110156130b357600080fd5b810190808051906020019092919050505073ffffffffffffffffffffffffffffffffffffffff168373ffffffffffffffffffffffffffffffffffffffff16146130fb57600080fd5b613105338561185b565b1561310f57600080fd5b61311b33848685611660565b1561312557600080fd5b600160405180608001604052803373ffffffffffffffffffffffffffffffffffffffff1681526020018573ffffffffffffffffffffffffffffffffffffffff1681526020018673ffffffffffffffffffffffffffffffffffffffff168152602001848152509080600181540180825580915050906001820390600052602060002090600402016000909192909190915060008201518160000160006101000a81548173ffffffffffffffffffffffffffffffffffffffff021916908373ffffffffffffffffffffffffffffffffffffffff16021790555060208201518160010160006101000a81548173ffffffffffffffffffffffffffffffffffffffff021916908373ffffffffffffffffffffffffffffffffffffffff16021790555060408201518160020160006101000a81548173ffffffffffffffffffffffffffffffffffffffff021916908373ffffffffffffffffffffffffffffffffffffffff160217905550606082015181600301555050506132a86132a385613957565b611532565b50505050565b600281815481106132bb57fe5b90600052602060002090600a02016000915090508060000160009054906101000a900473ffffffffffffffffffffffffffffffffffffffff1690806001018054600181600116156101000203166002900480601f01602080910402602001604051908101604052809291908181526020018280546001816001161561010002031660029004801561338d5780601f106133625761010080835404028352916020019161338d565b820191906000526020600020905b81548152906001019060200180831161337057829003601f168201915b5050505050908060020160009054906101000a900473ffffffffffffffffffffffffffffffffffffffff1690806003018054600181600116156101000203166002900480601f0160208091040260200160405190810160405280929190818152602001828054600181600116156101000203166002900480156134515780601f1061342657610100808354040283529160200191613451565b820191906000526020600020905b81548152906001019060200180831161343457829003601f168201915b5050505050908060040160009054906101000a900473ffffffffffffffffffffffffffffffffffffffff16908060050154908060060154908060070154908060080160009054906101000a900460ff1690806009015490508a565b6060806060806134bd336001612d4c565b6134c657600080fd5b600080905060008090505b600180549050811015613566573373ffffffffffffffffffffffffffffffffffffffff166001828154811061350257fe5b906000526020600020906004020160010160009054906101000a900473ffffffffffffffffffffffffffffffffffffffff1673ffffffffffffffffffffffffffffffffffffffff1614156135595781806001019250505b80806001019150506134d1565b506060816040519080825280602002602001820160405280156135985781602001602082028038833980820191505090505b5090506060826040519080825280602002602001820160405280156135cc5781602001602082028038833980820191505090505b5090506060836040519080825280602002602001820160405280156136005781602001602082028038833980820191505090505b5090506060846040519080825280602002602001820160405280156136345781602001602082028038833980820191505090505b509050600080905060008090505b60018054905081101561389d573373ffffffffffffffffffffffffffffffffffffffff166001828154811061367357fe5b906000526020600020906004020160010160009054906101000a900473ffffffffffffffffffffffffffffffffffffffff1673ffffffffffffffffffffffffffffffffffffffff16141561389057600181815481106136ce57fe5b906000526020600020906004020160000160009054906101000a900473ffffffffffffffffffffffffffffffffffffffff1686838151811061370c57fe5b602002602001019073ffffffffffffffffffffffffffffffffffffffff16908173ffffffffffffffffffffffffffffffffffffffff16815250506001818154811061375357fe5b906000526020600020906004020160010160009054906101000a900473ffffffffffffffffffffffffffffffffffffffff1685838151811061379157fe5b602002602001019073ffffffffffffffffffffffffffffffffffffffff16908173ffffffffffffffffffffffffffffffffffffffff1681525050600181815481106137d857fe5b906000526020600020906004020160020160009054906101000a900473ffffffffffffffffffffffffffffffffffffffff1684838151811061381657fe5b602002602001019073ffffffffffffffffffffffffffffffffffffffff16908173ffffffffffffffffffffffffffffffffffffffff16815250506001818154811061385d57fe5b90600052602060002090600402016003015483838151811061387b57fe5b60200260200101818152505081806001019250505b8080600101915050613642565b5084848484995099509950995050505050505090919293565b6000806000905060008090505b60038054905081101561394d57600381815481106138dd57fe5b9060005260206000200160009054906101000a900473ffffffffffffffffffffffffffffffffffffffff1673ffffffffffffffffffffffffffffffffffffffff168473ffffffffffffffffffffffffffffffffffffffff16141561394057600191505b80806001019150506138c3565b5080915050919050565b600080600090505b6003805490508110156139ed576003818154811061397957fe5b9060005260206000200160009054906101000a900473ffffffffffffffffffffffffffffffffffffffff1673ffffffffffffffffffffffffffffffffffffffff168373ffffffffffffffffffffffffffffffffffffffff1614156139e057809150506139f3565b808060010191505061395f565b50600080fd5b919050565b613a0785338585858933611dd0565b613a1057600080fd5b613a1b336001612d4c565b613a2457600080fd5b613a2f856002612d4c565b613a3857600080fd5b613a43836005612d4c565b613a4c57600080fd5b428111613a5857600080fd5b613a6184614560565b15613a6b57600080fd5b613a7c613a7784613957565b611532565b613a8885338584613e7e565b6000428633604051602001808481526020018373ffffffffffffffffffffffffffffffffffffffff1673ffffffffffffffffffffffffffffffffffffffff1660601b81526014018273ffffffffffffffffffffffffffffffffffffffff1673ffffffffffffffffffffffffffffffffffffffff1660601b815260140193505050506040516020818303038152906040528051906020012090506000600560009054906101000a900473ffffffffffffffffffffffffffffffffffffffff1690508073ffffffffffffffffffffffffffffffffffffffff16631dd36d6283338a6040518463ffffffff1660e01b8152600401808481526020018373ffffffffffffffffffffffffffffffffffffffff1673ffffffffffffffffffffffffffffffffffffffff1681526020018273ffffffffffffffffffffffffffffffffffffffff1673ffffffffffffffffffffffffffffffffffffffff1681526020019350505050600060405180830381600087803b158015613c0357600080fd5b505af1158015613c17573d6000803e3d6000fd5b5050505060026040518061014001604052808973ffffffffffffffffffffffffffffffffffffffff16815260200160416040519080825280601f01601f191660200182016040528015613c795781602001600182028038833980820191505090505b5081526020013373ffffffffffffffffffffffffffffffffffffffff1681526020018881526020018773ffffffffffffffffffffffffffffffffffffffff16815260200186815260200185815260200142815260200160006002811115613cdc57fe5b8152602001848152509080600181540180825580915050906001820390600052602060002090600a02016000909192909190915060008201518160000160006101000a81548173ffffffffffffffffffffffffffffffffffffffff021916908373ffffffffffffffffffffffffffffffffffffffff1602179055506020820151816001019080519060200190613d73929190614e8b565b5060408201518160020160006101000a81548173ffffffffffffffffffffffffffffffffffffffff021916908373ffffffffffffffffffffffffffffffffffffffff1602179055506060820151816003019080519060200190613dd7929190614e8b565b5060808201518160040160006101000a81548173ffffffffffffffffffffffffffffffffffffffff021916908373ffffffffffffffffffffffffffffffffffffffff16021790555060a0820151816005015560c0820151816006015560e082015181600701556101008201518160080160006101000a81548160ff02191690836002811115613e6257fe5b0217905550610120820151816009015550505050505050505050565b613e89336001612d4c565b613e9257600080fd5b8273ffffffffffffffffffffffffffffffffffffffff163373ffffffffffffffffffffffffffffffffffffffff1614613eca57600080fd5b613ed684848484611660565b613edf57600080fd5b600080905060008090505b60018054905081101561408d578573ffffffffffffffffffffffffffffffffffffffff1660018281548110613f1b57fe5b906000526020600020906004020160000160009054906101000a900473ffffffffffffffffffffffffffffffffffffffff1673ffffffffffffffffffffffffffffffffffffffff16148015613fd957508473ffffffffffffffffffffffffffffffffffffffff1660018281548110613f8f57fe5b906000526020600020906004020160010160009054906101000a900473ffffffffffffffffffffffffffffffffffffffff1673ffffffffffffffffffffffffffffffffffffffff16145b801561404e57508373ffffffffffffffffffffffffffffffffffffffff166001828154811061400457fe5b906000526020600020906004020160020160009054906101000a900473ffffffffffffffffffffffffffffffffffffffff1673ffffffffffffffffffffffffffffffffffffffff16145b80156140775750826001828154811061406357fe5b906000526020600020906004020160030154145b15614080578091505b8080600101915050613eea565b5060008190505b600180805490500381101561422a576001808201815481106140b257fe5b9060005260206000209060040201600182815481106140cd57fe5b90600052602060002090600402016000820160009054906101000a900473ffffffffffffffffffffffffffffffffffffffff168160000160006101000a81548173ffffffffffffffffffffffffffffffffffffffff021916908373ffffffffffffffffffffffffffffffffffffffff1602179055506001820160009054906101000a900473ffffffffffffffffffffffffffffffffffffffff168160010160006101000a81548173ffffffffffffffffffffffffffffffffffffffff021916908373ffffffffffffffffffffffffffffffffffffffff1602179055506002820160009054906101000a900473ffffffffffffffffffffffffffffffffffffffff168160020160006101000a81548173ffffffffffffffffffffffffffffffffffffffff021916908373ffffffffffffffffffffffffffffffffffffffff160217905550600382015481600301559050508080600101915050614094565b506001808080549050038154811061423e57fe5b9060005260206000209060040201600080820160006101000a81549073ffffffffffffffffffffffffffffffffffffffff02191690556001820160006101000a81549073ffffffffffffffffffffffffffffffffffffffff02191690556002820160006101000a81549073ffffffffffffffffffffffffffffffffffffffff02191690556003820160009055505060018054809190600190036142e19190614f0b565b505050505050565b6000809054906101000a900473ffffffffffffffffffffffffffffffffffffffff1673ffffffffffffffffffffffffffffffffffffffff163373ffffffffffffffffffffffffffffffffffffffff161461434257600080fd5b6000600460009054906101000a900473ffffffffffffffffffffffffffffffffffffffff1690508073ffffffffffffffffffffffffffffffffffffffff1663f3e9106d6040518163ffffffff1660e01b815260040160006040518083038186803b1580156143af57600080fd5b505afa1580156143c3573d6000803e3d6000fd5b505050506040513d6000823e3d601f19601f8201168201806040525060208110156143ed57600080fd5b810190808051604051939291908464010000000082111561440d57600080fd5b8382019150602082018581111561442357600080fd5b825186602082028301116401000000008211171561444057600080fd5b8083526020830192505050908051906020019060200280838360005b8381101561447757808201518184015260208101905061445c565b5050505090500160405250505060039080519060200190614499929190614f3d565b5050565b600560009054906101000a900473ffffffffffffffffffffffffffffffffffffffff1681565b6000809054906101000a900473ffffffffffffffffffffffffffffffffffffffff1673ffffffffffffffffffffffffffffffffffffffff163373ffffffffffffffffffffffffffffffffffffffff161461451c57600080fd5b80600460006101000a81548173ffffffffffffffffffffffffffffffffffffffff021916908373ffffffffffffffffffffffffffffffffffffffff16021790555050565b600080600090505b6002805490508110156146205782805190602001206002828154811061458a57fe5b90600052602060002090600a020160030160405180828054600181600116156101000203166002900480156145f65780601f106145d45761010080835404028352918201916145f6565b820191906000526020600020905b8154815290600101906020018083116145e2575b505091505060405180910390201415614613576001915050614626565b8080600101915050614568565b50600090505b919050565b600460009054906101000a900473ffffffffffffffffffffffffffffffffffffffff1681565b6000809054906101000a900473ffffffffffffffffffffffffffffffffffffffff1673ffffffffffffffffffffffffffffffffffffffff163373ffffffffffffffffffffffffffffffffffffffff16146146aa57600080fd5b600073ffffffffffffffffffffffffffffffffffffffff168173ffffffffffffffffffffffffffffffffffffffff1614156146e457600080fd5b8073ffffffffffffffffffffffffffffffffffffffff166000809054906101000a900473ffffffffffffffffffffffffffffffffffffffff1673ffffffffffffffffffffffffffffffffffffffff167f8be0079c531659141344cd1fd0a4f28419497f9722a3daafe3b4186f6b6457e060405160405180910390a3806000806101000a81548173ffffffffffffffffffffffffffffffffffffffff021916908373ffffffffffffffffffffffffffffffffffffffff16021790555050565b600060028054905082106147b557600080fd5b6000600283815481106147c457fe5b90600052602060002090600a020160000160009054906101000a900473ffffffffffffffffffffffffffffffffffffffff166002848154811061480357fe5b90600052602060002090600a020160020160009054906101000a900473ffffffffffffffffffffffffffffffffffffffff166002858154811061484257fe5b90600052602060002090600a020160040160009054906101000a900473ffffffffffffffffffffffffffffffffffffffff166002868154811061488157fe5b90600052602060002090600a020160050154600287815481106148a057fe5b90600052602060002090600a020160060154604051602001808673ffffffffffffffffffffffffffffffffffffffff1673ffffffffffffffffffffffffffffffffffffffff1660601b81526014018573ffffffffffffffffffffffffffffffffffffffff1673ffffffffffffffffffffffffffffffffffffffff1660601b81526014018473ffffffffffffffffffffffffffffffffffffffff1673ffffffffffffffffffffffffffffffffffffffff1660601b81526014018381526020018281526020019550505050505060405160208183030381529060405280519060200120905060606040518060400160405280601c81526020017f19457468657265756d205369676e6564204d6573736167653a0a333200000000815250905080826040516020018083805190602001908083835b602083106149f557805182526020820191506020810190506020830392506149d2565b6001836020036101000a038019825116818451168082178552505050505050905001828152602001925050506040516020818303038152906040528051906020012092505050919050565b6002805490508210614a5157600080fd5b60028281548110614a5e57fe5b90600052602060002090600a0201600601544210614a7b57600080fd5b60006002811115614a8857fe5b60028381548110614a9557fe5b90600052602060002090600a020160080160009054906101000a900460ff166002811115614abf57fe5b14614ac957600080fd5b3373ffffffffffffffffffffffffffffffffffffffff1660028381548110614aed57fe5b90600052602060002090600a020160000160009054906101000a900473ffffffffffffffffffffffffffffffffffffffff1673ffffffffffffffffffffffffffffffffffffffff1614614b3f57600080fd5b3373ffffffffffffffffffffffffffffffffffffffff16614b68614b62846147a2565b83614d35565b73ffffffffffffffffffffffffffffffffffffffff1614614b8857600080fd5b60003411614b9557600080fd5b8060028381548110614ba357fe5b90600052602060002090600a02016001019080519060200190614bc7929190614fc7565b5060016002811115614bd557fe5b60028381548110614be257fe5b90600052602060002090600a020160080160006101000a81548160ff02191690836002811115614c0e57fe5b02179055506000600560009054906101000a900473ffffffffffffffffffffffffffffffffffffffff1690508073ffffffffffffffffffffffffffffffffffffffff1663357dfebc3460028681548110614c6457fe5b90600052602060002090600a0201600901546040518363ffffffff1660e01b8152600401808281526020019150506000604051808303818588803b158015614cab57600080fd5b505af1158015614cbf573d6000803e3d6000fd5b5050505050505050565b60008060006041845114614cdc57600080fd5b6020840151915060408401519050606084015160001a9250601b8360ff161015614d0757601b830192505b601b8360ff161480614d1c5750601c8360ff16145b614d2557600080fd5b8282829250925092509193909250565b600080600080614d4485614cc9565b92509250925060018684848460405160008152602001604052604051808581526020018460ff1660ff1681526020018381526020018281526020019450505050506020604051602081039080840390855afa158015614da7573d6000803e3d6000fd5b50505060206040510351935050505092915050565b815481835581811115614de357818360005260206000209182019101614de29190615047565b5b505050565b604051806101400160405280600073ffffffffffffffffffffffffffffffffffffffff16815260200160608152602001600073ffffffffffffffffffffffffffffffffffffffff16815260200160608152602001600073ffffffffffffffffffffffffffffffffffffffff16815260200160008152602001600081526020016000815260200160006002811115614e7b57fe5b8152602001600080191681525090565b828054600181600116156101000203166002900490600052602060002090601f016020900481019282601f10614ecc57805160ff1916838001178555614efa565b82800160010185558215614efa579182015b82811115614ef9578251825591602001919060010190614ede565b5b509050614f079190615047565b5090565b815481835581811115614f3857600402816004028360005260206000209182019101614f37919061506c565b5b505050565b828054828255906000526020600020908101928215614fb6579160200282015b82811115614fb55782518260006101000a81548173ffffffffffffffffffffffffffffffffffffffff021916908373ffffffffffffffffffffffffffffffffffffffff16021790555091602001919060010190614f5d565b5b509050614fc39190615108565b5090565b828054600181600116156101000203166002900490600052602060002090601f016020900481019282601f1061500857805160ff1916838001178555615036565b82800160010185558215615036579182015b8281111561503557825182559160200191906001019061501a565b5b5090506150439190615047565b5090565b61506991905b8082111561506557600081600090555060010161504d565b5090565b90565b61510591905b8082111561510157600080820160006101000a81549073ffffffffffffffffffffffffffffffffffffffff02191690556001820160006101000a81549073ffffffffffffffffffffffffffffffffffffffff02191690556002820160006101000a81549073ffffffffffffffffffffffffffffffffffffffff0219169055600382016000905550600401615072565b5090565b90565b61514891905b8082111561514457600081816101000a81549073ffffffffffffffffffffffffffffffffffffffff02191690555060010161510e565b5090565b9056fe4f6e6c79206f776e65722063616e2063616c6c20746869732066756e6374696f6e2ea265627a7a723158206d3065e0b501280304c919ddccad574e0c8b23c7bb96234c25de6a7fef1dd1e664736f6c634300050c0032",
  "source": "pragma solidity >= 0.5.0 < 0.7.0;\n\nimport \"./IdentityProvider.sol\";\nimport \"./PaymentProvider.sol\";\nimport \"./Ownable.sol\";\n\ncontract RentalProvider is Ownable {\n  //possible states of an agreement\n  enum AgreementState {\n    Pending,\n    Active,\n    Terminated\n  }\n\n  RentalRequest[] public requests;\n  RentalAgreement[] public agreements;\n  address[] public rentableDevices;\n\n  struct RentalRequest {\n    address tenant;\n    address lessor;\n    address device;\n    uint256 contractTerm;\n  }\n\n  struct RentalAgreement {\n    address payable tenant;\n    bytes tenantSignature;\n    address payable lessor;\n    bytes lessorSignature;\n    address device;\n    uint usageFee;        //\n    uint contractTerm;    //unix timestamp\n    uint creation;        //unix timestamp\n    AgreementState state;\n    bytes32 paymentAgreementHash;\n  }\n\n\n  address public oracle_addr;\n  address public paymentProvider_addr;\n  address payable public owner;\n\n  constructor () public {\n    owner = msg.sender;\n  }\n\n  function init() public onlyOwner {\n    IdentityProvider oracle = IdentityProvider(oracle_addr);\n    rentableDevices = oracle.getKnownDevices();\n  }\n\n  function destroy() public {\n    require(msg.sender == owner, \"Only owner can call this function.\");\n    selfdestruct(owner);\n  }\n\n  function getRentableDevices() public view returns (address[] memory){\n    return rentableDevices;\n  }\n\n  function deviceIsRentable(address _device) public view returns (bool) {\n    bool found = false;\n    for(uint i = 0; i < rentableDevices.length; i++) {\n      if(_device == rentableDevices[i]) {\n        found = true;\n      }\n    }\n    return found;\n  }\n\n  function createRequest(address _device, address _lessor, uint256 _term) public {\n    require(isKnownParticipant(msg.sender, 2));\n    require(isKnownParticipant(_device, 5));\n    require(isKnownParticipant(_lessor, 1));\n    require(deviceIsRentable(_device));\n    IdentityProvider oracle = IdentityProvider(oracle_addr);\n    require(_lessor == oracle.getIdentityOwner(_device));\n    require(!agreementExists(msg.sender, _device));\n    require(!requestExists(msg.sender, _lessor, _device, _term));\n    requests.push(RentalRequest(msg.sender, _lessor, _device, _term));\n    removeDeviceFromRentableList(getRentableDeviceListIndex(_device));\n  }\n\n  function removeRequest(address _tenant, address _lessor, address _device, uint256 _term) public {\n    require(isKnownParticipant(msg.sender, 1));\n    require(msg.sender == _lessor);\n    require(requestExists(_tenant, _lessor, _device, _term));\n    uint index = 0;\n    for(uint i = 0; i < requests.length; i++) {\n      if(requests[i].tenant == _tenant && requests[i].lessor == _lessor && requests[i].device == _device && requests[i].contractTerm == _term) {\n        index = i;\n      }\n    }\n    for (uint i = index; i<requests.length-1; i++){\n        requests[i] = requests[i+1];\n    }\n    delete requests[requests.length-1];\n    requests.length--;\n  }\n\n  function getRequestsAsLessor() public view returns(address[] memory, address[] memory, address[] memory, uint256[] memory) {\n    require(isKnownParticipant(msg.sender, 1));\n    uint count = 0;\n    for(uint i = 0; i < requests.length; i++) {\n      if(requests[i].lessor == msg.sender) {\n        count++;\n      }\n    }\n    address[] memory tenants = new address[](count);\n    address[] memory lessors = new address[](count);\n    address[] memory devices = new address[](count);\n    uint256[] memory terms = new uint256[](count);\n    uint index = 0;\n    for(uint i = 0; i < requests.length; i++) {\n      if(requests[i].lessor == msg.sender) {\n        tenants[index] = requests[i].tenant;\n        lessors[index] = requests[i].lessor;\n        devices[index] = requests[i].device;\n        terms[index] = requests[i].contractTerm;\n        index++;\n      }\n    }\n    return (tenants, lessors, devices, terms);\n  }\n\n  function getRequestsAsTenant() public view returns(address[] memory, address[] memory, address[] memory, uint256[] memory) {\n    require(isKnownParticipant(msg.sender, 2));\n    uint count = 0;\n    for(uint i = 0; i < requests.length; i++) {\n      if(requests[i].tenant == msg.sender) {\n        count++;\n      }\n    }\n    address[] memory tenants = new address[](count);\n    address[] memory lessors = new address[](count);\n    address[] memory devices = new address[](count);\n    uint256[] memory terms = new uint256[](count);\n    uint index = 0;\n    for(uint i = 0; i < requests.length; i++) {\n      if(requests[i].tenant == msg.sender) {\n        tenants[index] = requests[i].tenant;\n        lessors[index] = requests[i].lessor;\n        devices[index] = requests[i].device;\n        terms[index] = requests[i].contractTerm;\n        index++;\n      }\n    }\n    return (tenants, lessors, devices, terms);\n  }\n\n  function requestExists(address _tenant, address _lessor, address _device, uint256 _term) public view returns (bool){\n    for(uint i = 0; i < requests.length; i++) {\n      if(requests[i].tenant == _tenant && requests[i].lessor == _lessor && requests[i].device == _device && requests[i].contractTerm == _term ) {\n        return true;\n      }\n    }\n    return false;\n  }\n\n  function removeDeviceFromRentableList(uint index) public {\n    require(index < rentableDevices.length);\n    require(index >= 0);\n    for (uint i = index; i<rentableDevices.length-1; i++){\n        rentableDevices[i] = rentableDevices[i+1];\n    }\n    delete rentableDevices[rentableDevices.length-1];\n    rentableDevices.length--;\n  }\n\n  function getRentableDeviceListIndex(address _device) public view returns (uint) {\n    for(uint i = 0; i < rentableDevices.length; i++) {\n      if(_device == rentableDevices[i]) {\n        return i;\n      }\n    }\n    revert();\n  }\n\n  /// @notice asks registered oracle whether the identity is known or not\n  /// @param _addr the address of the identity address\n  /// @param _roleID the role of the identity\n  /// @return a boolean whether or not the identity is known\n  function isKnownParticipant(address _addr, uint _roleID) public view returns(bool) {\n      IdentityProvider oracle = IdentityProvider(oracle_addr);\n      if(oracle.identityExists(_addr) && oracle.getIdentityRole(_addr) == _roleID) {\n        return true;\n      } else {\n        return false;\n      }\n  }\n\n  /// @notice sets the oracle address\n  /// @dev only callable by owner\n  /// @param _addr the address of the orcle\n  function registerIdentityProvider(address _addr) public onlyOwner {\n    oracle_addr = _addr;\n  }\n\n  /// @notice sets the PaymentProvider address\n  /// @dev only callable by owner\n  /// @param _addr the address of the PaymentProvider\n  function registerPaymentProvider(address _addr) public onlyOwner {\n    paymentProvider_addr = _addr;\n  }\n\n  function verify(address _tenant, address _lessor, address _device, uint256 _fee, uint256 _term, bytes memory _sig, address _signer) public pure returns (bool) {\n    (uint8 v, bytes32 r, bytes32 s) = splitSignature(_sig);\n    bytes32 hashCalc = keccak256(abi.encodePacked(_tenant,_lessor,_device,_fee,_term));\n    bytes memory prefix = \"\\x19Ethereum Signed Message:\\n32\";\n    return ecrecover(keccak256(abi.encodePacked(prefix, hashCalc)), v, r, s) == _signer;\n  }\n\n  /// @notice creates a rentalAgreement\n  /// @param _tenant address of the tenant\n  /// @param _lessorSignature signature of lessor of rentalAgreement\n  /// @param _device address of device\n  /// @param _usageFee fee for usage in wei\n  /// @param _contractTerm timestamp, when rentalAgreement times out\n  function createRenting(address _tenant, bytes memory _lessorSignature, address _device, uint _usageFee, uint _contractTerm) public {\n    require(verify(_tenant, msg.sender, _device, _usageFee, _contractTerm, _lessorSignature, msg.sender));\n    //check if sender is Manufacturer, tenant is Customer and device is Device\n    require(isKnownParticipant(msg.sender, 1));\n    require(isKnownParticipant(_tenant, 2));\n    require(isKnownParticipant(_device, 5));\n    //check contractTerm to be in future!\n    require(_contractTerm > now);\n    //check that no rentalAgreement with same parameters exists\n    require(!agreementExists(_lessorSignature));\n    removeDeviceFromRentableList(getRentableDeviceListIndex(_device));\n\n    removeRequest(_tenant, msg.sender, _device, _contractTerm);\n\n    bytes32 paymentAgreementHash = keccak256(abi.encodePacked(now, _tenant, msg.sender));\n    PaymentProvider paymentProvider = PaymentProvider(paymentProvider_addr);\n    paymentProvider.addPaymentAgreement(paymentAgreementHash, msg.sender, address(uint160(_tenant)));\n\n    agreements.push(RentalAgreement(address(uint160(_tenant)), new bytes(65), msg.sender, _lessorSignature, _device, _usageFee, _contractTerm, now, AgreementState.Pending, paymentAgreementHash));\n  }\n\n  function agreementExists(bytes memory _lessorSignature) public view returns (bool) {\n    for(uint i = 0; i < agreements.length; i++) {\n      if(keccak256(agreements[i].lessorSignature) == keccak256(_lessorSignature)) {\n        return true;\n      }\n    }\n    return false;\n  }\n\n  function agreementExists(address _tenant, address _device) public view returns (bool) {\n    require(isKnownParticipant(_tenant, 2));\n    require(isKnownParticipant(_device, 5));\n    for(uint i = 0; i < agreements.length; i++) {\n      if(agreements[i].device == _device && (agreements[i].state == AgreementState.Pending || agreements[i].state == AgreementState.Active)) {\n        return true;\n      }\n    }\n    return false;\n  }\n\n  function getIDs(uint _stateID) public view returns (uint[] memory) {\n    uint count = 0;\n    for(uint i = 0; i < agreements.length; i++) {\n      if(agreements[i].tenant == msg.sender && agreements[i].state == AgreementState(_stateID) ) {\n        count++;\n      }\n    }\n    uint[] memory rentalAgreementIDs = new uint[](count);\n    uint index = 0;\n    for(uint i = 0; i < agreements.length; i++) {\n      if(agreements[i].tenant == msg.sender && agreements[i].state == AgreementState(_stateID) ) {\n        rentalAgreementIDs[index] = i;\n        index++;\n      }\n    }\n    return rentalAgreementIDs;\n  }\n\n  function getByID(uint _id) public view returns (address, bytes memory, address, bytes memory, address, uint, uint, uint, uint, bytes32) {\n    require(_id < agreements.length);\n    RentalAgreement memory agreement = agreements[_id];\n    require(msg.sender == agreement.tenant || msg.sender == agreement.lessor);\n    return (agreement.tenant, agreement.tenantSignature, agreement.lessor, agreement.lessorSignature, agreement.device, agreement.usageFee, agreement.contractTerm, agreement.creation, uint256(agreement.state), agreement.paymentAgreementHash);\n  }\n\n  function accept(uint _id, bytes memory _signature) public payable {\n    require(_id < agreements.length);\n    require(now < agreements[_id].contractTerm);\n    require(agreements[_id].state == AgreementState.Pending);\n    require(agreements[_id].tenant == msg.sender);\n    require(recoverSigner(getRentalAgreementHash(_id), _signature) == msg.sender);\n    require(msg.value > 0);\n    agreements[_id].tenantSignature = _signature;\n    agreements[_id].state = AgreementState(1);\n    PaymentProvider paymentProvider = PaymentProvider(paymentProvider_addr);\n    paymentProvider.charge.value(msg.value)(agreements[_id].paymentAgreementHash);\n  }\n\n  function splitSignature(bytes memory _sig) internal pure returns (uint8 v, bytes32 r, bytes32 s) {\n    require(_sig.length == 65);\n    assembly {\n        // first 32 bytes, after the length prefix.\n        r := mload(add(_sig, 32))\n        // second 32 bytes.\n        s := mload(add(_sig, 64))\n        // final byte (first byte of the next 32 bytes).\n        v := byte(0, mload(add(_sig, 96)))\n    }\n    if (v < 27) {\n      v += 27;\n    }\n\n    require (v == 27 || v == 28);\n    return (v, r, s);\n  }\n\n  function recoverSigner(bytes32 _message, bytes memory _sig) internal pure returns (address) {\n    (uint8 v, bytes32 r, bytes32 s) = splitSignature(_sig);\n    return ecrecover(_message, v, r, s);\n  }\n\n  // function payForUsage(uint _id, uint _timestamp) payable public {\n  //   require(_id < agreements.length);\n  //   //payment must be in the past\n  //   require(_timestamp <= now);\n  //   // the contract must not be outdated\n  //   require(now < agreements[_id].contractTerm);\n  //   RentalAgreement memory rentalAgreement = agreements[_id];\n  //   //rentalAgreement must be accepted (and therefore signed) by sender\n  //   require(recoverSigner(getRentalAgreementHash(_id), rentalAgreement.tenantSignature) == msg.sender);\n  //   require(msg.sender == rentalAgreement.tenant);\n  //   require(msg.value == rentalAgreement.usageFee);\n  //   require(rentalAgreement.state == AgreementState.Active);\n  //   rentalAgreement.lessor.transfer(msg.value);\n  //   bytes32 agreementHash = getRentalAgreementHash(_id);\n  //   bytes32 paymentHash = getPaymentHash(_timestamp, rentalAgreement.device, msg.sender, rentalAgreement.lessor, msg.value, agreementHash);\n  //   payments[paymentHash] = Payment(_timestamp, rentalAgreement.device, msg.sender, rentalAgreement.lessor, msg.value, agreementHash);\n  //   paymentsByPayer[msg.sender].push(paymentHash);\n  //   paymentsByReceiver[rentalAgreement.lessor].push(paymentHash);\n  // }\n\n  function getRentalAgreementHash(uint _id) public view returns (bytes32) {\n    require(_id < agreements.length);\n    bytes32 message = keccak256(abi.encodePacked(agreements[_id].tenant, agreements[_id].lessor, agreements[_id].device, agreements[_id].usageFee, agreements[_id].contractTerm));\n    bytes memory prefix = \"\\x19Ethereum Signed Message:\\n32\";\n    return keccak256(abi.encodePacked(prefix, message));\n  }\n\n  // function getPaymentHash(uint _timestamp, address _device, address _payer, address _receiver, uint _amount, bytes32 _agreementHash) public view returns (bytes32) {\n  //   bytes32 message = keccak256(abi.encodePacked(_timestamp, _device, _payer, _receiver, _amount, _agreementHash));\n  //   // bytes memory prefix = \"\\x19Ethereum Signed Message:\\n32\";\n  //   // return keccak256(abi.encodePacked(prefix, message));\n  //   return message;\n  // }\n\n  // function getPayment(bytes32 _paymentHash) public view returns (uint256, address, address, address, uint256, bytes32){\n  //   require(msg.sender == payments[_paymentHash].device || msg.sender == payments[_paymentHash].payer || msg.sender == payments[_paymentHash].receiver);\n  //   return (payments[_paymentHash].timestamp, payments[_paymentHash].device, payments[_paymentHash].payer, payments[_paymentHash].receiver, payments[_paymentHash].amount, payments[_paymentHash].agreementHash);\n  // }\n\n  // function getIncomingPaymentHashes() public view returns (bytes32[] memory) {\n  //   return paymentsByReceiver[msg.sender];\n  // }\n  //\n  // function getOutgoingPaymentHashes() public view returns (bytes32[] memory) {\n  //   return paymentsByPayer[msg.sender];\n  // }\n\n  function terminate(uint _agreementID) public {\n    require(_agreementID < agreements.length);\n    RentalAgreement memory rentalAgreement = agreements[_agreementID];\n    require(rentalAgreement.state == AgreementState.Active);\n    require(msg.sender == rentalAgreement.tenant || msg.sender == rentalAgreement.lessor);\n    agreements[_agreementID].state = AgreementState.Terminated;\n\n    PaymentProvider paymentProvider = PaymentProvider(paymentProvider_addr);\n    paymentProvider.empty(agreements[_agreementID].paymentAgreementHash);\n\n    rentableDevices.push(rentalAgreement.device);\n  }\n\n}\n\n\n\n\n\n\n\n  // struct EIP712Domain {\n  //     string  name;\n  //     string  version;\n  //     uint256 chainId;\n  //     address verifyingContract;\n  //     bytes32 salt;\n  // }\n  //\n  // struct RentalSignatureObject {\n  //     address tenant;\n  //     address lessor;\n  //     address device;\n  //     uint256 fee;\n  //     uint256 term;\n  // }\n  //\n  // bytes32 constant public EIP712DOMAIN_TYPEHASH = keccak256(\n  //     \"EIP712Domain(string name,string version,uint256 chainId,address verifyingContract,bytes32 salt)\"\n  // );\n  //\n  // bytes32 constant public RENTALSIGNATUREOBJECT_TYPEHASH = keccak256(\n  //     \"RentalSignatureObject(address tenant,address lessor,address device,uint256 fee,uint256 term)\"\n  // );\n  //\n  // bytes32 public DOMAIN_SEPARATOR;\n\n  // constructor () public {\n    // DOMAIN_SEPARATOR = hash(EIP712Domain({\n    //     name: \"Device Rental\",\n    //     version: '1',\n    //     chainId: 1579447585291,\n    //     // verifyingContract: this\n    //     verifyingContract: address(this),\n    //     salt: bytes32(0xf2d857f4a3edcb9b78b4d503bfe733db1e3f6cdc2b7971ee739626c97e86a558)\n    // }));\n  // }\n  //\n  // function hash(EIP712Domain memory eip712Domain) internal pure returns (bytes32) {\n  //     return keccak256(abi.encode(\n  //         EIP712DOMAIN_TYPEHASH,\n  //         keccak256(abi.encodePacked(eip712Domain.name)),\n  //         keccak256(abi.encodePacked(eip712Domain.version)),\n  //         eip712Domain.chainId,\n  //         eip712Domain.verifyingContract,\n  //         eip712Domain.salt\n  //     ));\n  // }\n  //\n  // function hash(RentalSignatureObject memory _sigObj) internal pure returns (bytes32) {\n  //     return keccak256(abi.encode(\n  //         RENTALSIGNATUREOBJECT_TYPEHASH,\n  //         keccak256(abi.encode(_sigObj.tenant)),\n  //         keccak256(abi.encode(_sigObj.lessor)),\n  //         keccak256(abi.encode(_sigObj.device)),\n  //         keccak256(abi.encode(_sigObj.fee)),\n  //         keccak256(abi.encode(_sigObj.term))\n  //         // keccak256(bytes(mail.contents))\n  //     ));\n  // }\n\n  //\n  // function verify(address _tenant, address _lessor, address _device, uint256 _fee, uint256 _term, bytes memory _sig, address _signer) public view returns (bool) {\n  //   (uint8 v, bytes32 r, bytes32 s) = splitSignature(_sig);\n  //   // Note: we need to use `encodePacked` here instead of `encode`.\n  //   RentalSignatureObject memory sigObj = RentalSignatureObject(_tenant, _lessor, _device, _fee, _term);\n  //   bytes32 digest = keccak256(abi.encodePacked(\n  //       \"\\x19\\x01\",\n  //       DOMAIN_SEPARATOR,\n  //       hash(sigObj)\n  //   ));\n  //   return ecrecover(digest, v, r, s) == _signer;\n  // }\n",
  "sourcePath": "C:/Users/sebastianka/Git/thesis/application/smart-contracts/contracts/RentalProvider.sol",
  "compiler": {
    "name": "solc",
    "version": "0.5.12+commit.7709ece9.Emscripten.clang"
  },
  "schemaVersion": "3.0.20",
  "updatedAt": "2020-02-04T07:02:38.858Z",
  "devdoc": {
    "methods": {
      "createRenting(address,bytes,address,uint256,uint256)": {
        "params": {
          "_contractTerm": "timestamp, when rentalAgreement times out",
          "_device": "address of device",
          "_lessorSignature": "signature of lessor of rentalAgreement",
          "_tenant": "address of the tenant",
          "_usageFee": "fee for usage in wei"
        }
      },
      "isKnownParticipant(address,uint256)": {
        "params": {
          "_addr": "the address of the identity address",
          "_roleID": "the role of the identity"
        },
        "return": "a boolean whether or not the identity is known"
      },
      "registerIdentityProvider(address)": {
        "details": "only callable by owner",
        "params": {
          "_addr": "the address of the orcle"
        }
      },
      "registerPaymentProvider(address)": {
        "details": "only callable by owner",
        "params": {
          "_addr": "the address of the PaymentProvider"
        }
      },
      "transferOwnership(address)": {
        "details": "Allows the current owner to transfer control of the contract to a newOwner.",
        "params": {
          "newOwner": "The address to transfer ownership to."
        }
      }
    }
  },
  "userdoc": {
    "methods": {
      "createRenting(address,bytes,address,uint256,uint256)": {
        "notice": "creates a rentalAgreement"
      },
      "isKnownParticipant(address,uint256)": {
        "notice": "asks registered oracle whether the identity is known or not"
      },
      "registerIdentityProvider(address)": {
        "notice": "sets the oracle address"
      },
      "registerPaymentProvider(address)": {
        "notice": "sets the PaymentProvider address"
      }
    }
  }
}