{
  "contractName": "Renting",
  "abi": [
    {
      "inputs": [],
      "payable": false,
      "stateMutability": "nonpayable",
      "type": "constructor"
    },
    {
      "anonymous": false,
      "inputs": [
        {
          "indexed": true,
          "internalType": "address",
          "name": "previousOwner",
          "type": "address"
        },
        {
          "indexed": true,
          "internalType": "address",
          "name": "newOwner",
          "type": "address"
        }
      ],
      "name": "OwnershipTransferred",
      "type": "event"
    },
    {
      "constant": true,
      "inputs": [],
      "name": "EIP712_DOMAIN_TYPEHASH",
      "outputs": [
        {
          "internalType": "bytes32",
          "name": "",
          "type": "bytes32"
        }
      ],
      "payable": false,
      "stateMutability": "view",
      "type": "function"
    },
    {
      "constant": true,
      "inputs": [],
      "name": "UNIT_TYPEHASH",
      "outputs": [
        {
          "internalType": "bytes32",
          "name": "",
          "type": "bytes32"
        }
      ],
      "payable": false,
      "stateMutability": "view",
      "type": "function"
    },
    {
      "constant": true,
      "inputs": [],
      "name": "owner",
      "outputs": [
        {
          "internalType": "address payable",
          "name": "",
          "type": "address"
        }
      ],
      "payable": false,
      "stateMutability": "view",
      "type": "function"
    },
    {
      "constant": false,
      "inputs": [
        {
          "internalType": "address",
          "name": "newOwner",
          "type": "address"
        }
      ],
      "name": "transferOwnership",
      "outputs": [],
      "payable": false,
      "stateMutability": "nonpayable",
      "type": "function"
    },
    {
      "constant": false,
      "inputs": [],
      "name": "destroy",
      "outputs": [],
      "payable": false,
      "stateMutability": "nonpayable",
      "type": "function"
    },
    {
      "constant": true,
      "inputs": [
        {
          "internalType": "address",
          "name": "_addr",
          "type": "address"
        },
        {
          "internalType": "uint256",
          "name": "_roleID",
          "type": "uint256"
        }
      ],
      "name": "isKnownParticipant",
      "outputs": [
        {
          "internalType": "bool",
          "name": "",
          "type": "bool"
        }
      ],
      "payable": false,
      "stateMutability": "view",
      "type": "function"
    },
    {
      "constant": false,
      "inputs": [
        {
          "internalType": "address",
          "name": "_addr",
          "type": "address"
        }
      ],
      "name": "registerIdentityOracle",
      "outputs": [],
      "payable": false,
      "stateMutability": "nonpayable",
      "type": "function"
    },
    {
      "constant": true,
      "inputs": [
        {
          "internalType": "address",
          "name": "_signer",
          "type": "address"
        },
        {
          "internalType": "address",
          "name": "_tenant",
          "type": "address"
        },
        {
          "internalType": "address",
          "name": "lessor",
          "type": "address"
        },
        {
          "internalType": "address",
          "name": "_device",
          "type": "address"
        },
        {
          "internalType": "uint256",
          "name": "_usageFee",
          "type": "uint256"
        },
        {
          "internalType": "uint256",
          "name": "_contractTerm",
          "type": "uint256"
        },
        {
          "internalType": "bytes",
          "name": "_sig",
          "type": "bytes"
        }
      ],
      "name": "verify",
      "outputs": [
        {
          "internalType": "bool",
          "name": "",
          "type": "bool"
        }
      ],
      "payable": false,
      "stateMutability": "pure",
      "type": "function"
    },
    {
      "constant": false,
      "inputs": [
        {
          "internalType": "address payable",
          "name": "_tenant",
          "type": "address"
        },
        {
          "internalType": "bytes",
          "name": "_lessorSignature",
          "type": "bytes"
        },
        {
          "internalType": "address",
          "name": "_device",
          "type": "address"
        },
        {
          "internalType": "uint256",
          "name": "_usageFee",
          "type": "uint256"
        },
        {
          "internalType": "uint256",
          "name": "_contractTerm",
          "type": "uint256"
        }
      ],
      "name": "createRenting",
      "outputs": [],
      "payable": false,
      "stateMutability": "nonpayable",
      "type": "function"
    },
    {
      "constant": false,
      "inputs": [
        {
          "internalType": "uint256",
          "name": "_stateID",
          "type": "uint256"
        }
      ],
      "name": "getIDs",
      "outputs": [
        {
          "internalType": "uint256[]",
          "name": "",
          "type": "uint256[]"
        }
      ],
      "payable": false,
      "stateMutability": "nonpayable",
      "type": "function"
    },
    {
      "constant": true,
      "inputs": [
        {
          "internalType": "uint256",
          "name": "_id",
          "type": "uint256"
        }
      ],
      "name": "getByID",
      "outputs": [
        {
          "internalType": "address",
          "name": "_tenant",
          "type": "address"
        },
        {
          "internalType": "bytes",
          "name": "_tenantSignature",
          "type": "bytes"
        },
        {
          "internalType": "address",
          "name": "_lessor",
          "type": "address"
        },
        {
          "internalType": "bytes",
          "name": "_lessorSignature",
          "type": "bytes"
        },
        {
          "internalType": "address",
          "name": "_device",
          "type": "address"
        },
        {
          "internalType": "uint256",
          "name": "_usageFee",
          "type": "uint256"
        },
        {
          "internalType": "uint256",
          "name": "_contractTerm",
          "type": "uint256"
        },
        {
          "internalType": "uint256",
          "name": "_state",
          "type": "uint256"
        }
      ],
      "payable": false,
      "stateMutability": "view",
      "type": "function"
    },
    {
      "constant": false,
      "inputs": [
        {
          "internalType": "uint256",
          "name": "_id",
          "type": "uint256"
        },
        {
          "internalType": "bytes",
          "name": "_signature",
          "type": "bytes"
        }
      ],
      "name": "accept",
      "outputs": [],
      "payable": false,
      "stateMutability": "nonpayable",
      "type": "function"
    },
    {
      "constant": false,
      "inputs": [
        {
          "internalType": "uint256",
          "name": "_id",
          "type": "uint256"
        },
        {
          "internalType": "uint256",
          "name": "_timestamp",
          "type": "uint256"
        }
      ],
      "name": "payForUsage",
      "outputs": [],
      "payable": true,
      "stateMutability": "payable",
      "type": "function"
    },
    {
      "constant": true,
      "inputs": [
        {
          "internalType": "uint256",
          "name": "_timestamp",
          "type": "uint256"
        },
        {
          "internalType": "address",
          "name": "_device",
          "type": "address"
        },
        {
          "internalType": "address",
          "name": "_payer",
          "type": "address"
        },
        {
          "internalType": "uint256",
          "name": "_amount",
          "type": "uint256"
        }
      ],
      "name": "getPaymentHash",
      "outputs": [
        {
          "internalType": "bytes32",
          "name": "",
          "type": "bytes32"
        }
      ],
      "payable": false,
      "stateMutability": "view",
      "type": "function"
    },
    {
      "constant": true,
      "inputs": [
        {
          "internalType": "uint256",
          "name": "_agreementID",
          "type": "uint256"
        },
        {
          "internalType": "bytes32",
          "name": "_paymentHash",
          "type": "bytes32"
        }
      ],
      "name": "checkUsagePayment",
      "outputs": [
        {
          "internalType": "uint256",
          "name": "",
          "type": "uint256"
        },
        {
          "internalType": "address",
          "name": "",
          "type": "address"
        },
        {
          "internalType": "address",
          "name": "",
          "type": "address"
        },
        {
          "internalType": "uint256",
          "name": "",
          "type": "uint256"
        }
      ],
      "payable": false,
      "stateMutability": "view",
      "type": "function"
    },
    {
      "constant": false,
      "inputs": [
        {
          "internalType": "uint256",
          "name": "_agreementID",
          "type": "uint256"
        }
      ],
      "name": "terminate",
      "outputs": [],
      "payable": false,
      "stateMutability": "nonpayable",
      "type": "function"
    }
  ],
  "bytecode": "0x608060405234801561001057600080fd5b50336000806101000a81548173ffffffffffffffffffffffffffffffffffffffff021916908373ffffffffffffffffffffffffffffffffffffffff16021790555033600460006101000a81548173ffffffffffffffffffffffffffffffffffffffff021916908373ffffffffffffffffffffffffffffffffffffffff1602179055506132b8806100a16000396000f3fe6080604052600436106100f35760003560e01c8063a8dea2811161008a578063e8d5c64411610059578063e8d5c644146107a1578063ee81382a146107cc578063f2fde38b14610940578063fdc5c91d14610991576100f3565b8063a8dea28114610596578063ad5e489f146105e7578063c7977be71461065a578063d771e9e214610685576100f3565b806374fb0aa7116100c657806374fb0aa71461031f5780637a828b28146104ed57806383197ef0146105285780638da5cb5b1461053f576100f3565b806335e2fea4146100f85780634da4d7eb1461019157806358efc103146101c95780636f1acd981461028f575b600080fd5b34801561010457600080fd5b5061017b6004803603608081101561011b57600080fd5b8101908080359060200190929190803573ffffffffffffffffffffffffffffffffffffffff169060200190929190803573ffffffffffffffffffffffffffffffffffffffff16906020019092919080359060200190929190505050610a63565b6040518082815260200191505060405180910390f35b6101c7600480360360408110156101a757600080fd5b810190808035906020019092919080359060200190929190505050610b11565b005b3480156101d557600080fd5b5061020c600480360360408110156101ec57600080fd5b810190808035906020019092919080359060200190929190505050611054565b604051808581526020018473ffffffffffffffffffffffffffffffffffffffff1673ffffffffffffffffffffffffffffffffffffffff1681526020018373ffffffffffffffffffffffffffffffffffffffff1673ffffffffffffffffffffffffffffffffffffffff16815260200182815260200194505050505060405180910390f35b34801561029b57600080fd5b506102c8600480360360208110156102b257600080fd5b810190808035906020019092919050505061151b565b6040518080602001828103825283818151815260200191508051906020019060200280838360005b8381101561030b5780820151818401526020810190506102f0565b505050509050019250505060405180910390f35b34801561032b57600080fd5b506103586004803603602081101561034257600080fd5b8101908080359060200190929190505050611765565b604051808973ffffffffffffffffffffffffffffffffffffffff1673ffffffffffffffffffffffffffffffffffffffff168152602001806020018873ffffffffffffffffffffffffffffffffffffffff1673ffffffffffffffffffffffffffffffffffffffff168152602001806020018773ffffffffffffffffffffffffffffffffffffffff1673ffffffffffffffffffffffffffffffffffffffff16815260200186815260200185815260200184815260200183810383528a818151815260200191508051906020019080838360005b83811015610444578082015181840152602081019050610429565b50505050905090810190601f1680156104715780820380516001836020036101000a031916815260200191505b50838103825288818151815260200191508051906020019080838360005b838110156104aa57808201518184015260208101905061048f565b50505050905090810190601f1680156104d75780820380516001836020036101000a031916815260200191505b509a505050505050505050505060405180910390f35b3480156104f957600080fd5b506105266004803603602081101561051057600080fd5b8101908080359060200190929190505050611b18565b005b34801561053457600080fd5b5061053d611ecd565b005b34801561054b57600080fd5b50610554611fae565b604051808273ffffffffffffffffffffffffffffffffffffffff1673ffffffffffffffffffffffffffffffffffffffff16815260200191505060405180910390f35b3480156105a257600080fd5b506105e5600480360360208110156105b957600080fd5b81019080803573ffffffffffffffffffffffffffffffffffffffff169060200190929190505050611fd4565b005b3480156105f357600080fd5b506106406004803603604081101561060a57600080fd5b81019080803573ffffffffffffffffffffffffffffffffffffffff16906020019092919080359060200190929190505050612071565b604051808215151515815260200191505060405180910390f35b34801561066657600080fd5b5061066f61222e565b6040518082815260200191505060405180910390f35b34801561069157600080fd5b5061079f600480360360a08110156106a857600080fd5b81019080803573ffffffffffffffffffffffffffffffffffffffff169060200190929190803590602001906401000000008111156106e557600080fd5b8201836020820111156106f757600080fd5b8035906020019184600183028401116401000000008311171561071957600080fd5b91908080601f016020809104026020016040519081016040528093929190818152602001838380828437600081840152601f19601f820116905080830192505050505050509192919290803573ffffffffffffffffffffffffffffffffffffffff16906020019092919080359060200190929190803590602001909291905050506122bb565b005b3480156107ad57600080fd5b506107b661257e565b6040518082815260200191505060405180910390f35b3480156107d857600080fd5b50610926600480360360e08110156107ef57600080fd5b81019080803573ffffffffffffffffffffffffffffffffffffffff169060200190929190803573ffffffffffffffffffffffffffffffffffffffff169060200190929190803573ffffffffffffffffffffffffffffffffffffffff169060200190929190803573ffffffffffffffffffffffffffffffffffffffff1690602001909291908035906020019092919080359060200190929190803590602001906401000000008111156108a057600080fd5b8201836020820111156108b257600080fd5b803590602001918460018302840111640100000000831117156108d457600080fd5b91908080601f016020809104026020016040519081016040528093929190818152602001838380828437600081840152601f19601f82011690508083019250505050505050919291929050505061260b565b604051808215151515815260200191505060405180910390f35b34801561094c57600080fd5b5061098f6004803603602081101561096357600080fd5b81019080803573ffffffffffffffffffffffffffffffffffffffff169060200190929190505050612735565b005b34801561099d57600080fd5b50610a61600480360360408110156109b457600080fd5b8101908080359060200190929190803590602001906401000000008111156109db57600080fd5b8201836020820111156109ed57600080fd5b80359060200191846001830284011164010000000083111715610a0f57600080fd5b91908080601f016020809104026020016040519081016040528093929190818152602001838380828437600081840152601f19601f820116905080830192505050505050509192919290505050612886565b005b60008085858585604051602001808581526020018473ffffffffffffffffffffffffffffffffffffffff1673ffffffffffffffffffffffffffffffffffffffff1660601b81526014018373ffffffffffffffffffffffffffffffffffffffff1673ffffffffffffffffffffffffffffffffffffffff1660601b815260140182815260200194505050505060405160208183030381529060405280519060200120905080915050949350505050565b6001805490508210610b2257600080fd5b610b2a612ffb565b60018381548110610b3757fe5b9060005260206000209060090201604051806101200160405290816000820160009054906101000a900473ffffffffffffffffffffffffffffffffffffffff1673ffffffffffffffffffffffffffffffffffffffff1673ffffffffffffffffffffffffffffffffffffffff168152602001600182018054600181600116156101000203166002900480601f016020809104026020016040519081016040528092919081815260200182805460018160011615610100020316600290048015610c405780601f10610c1557610100808354040283529160200191610c40565b820191906000526020600020905b815481529060010190602001808311610c2357829003601f168201915b505050505081526020016002820160009054906101000a900473ffffffffffffffffffffffffffffffffffffffff1673ffffffffffffffffffffffffffffffffffffffff1673ffffffffffffffffffffffffffffffffffffffff168152602001600382018054600181600116156101000203166002900480601f016020809104026020016040519081016040528092919081815260200182805460018160011615610100020316600290048015610d385780601f10610d0d57610100808354040283529160200191610d38565b820191906000526020600020905b815481529060010190602001808311610d1b57829003601f168201915b505050505081526020016004820160009054906101000a900473ffffffffffffffffffffffffffffffffffffffff1673ffffffffffffffffffffffffffffffffffffffff1673ffffffffffffffffffffffffffffffffffffffff1681526020016005820154815260200160068201548152602001600782015481526020016008820160009054906101000a900460ff166002811115610dd357fe5b6002811115610dde57fe5b8152505090503373ffffffffffffffffffffffffffffffffffffffff16610e11610e0785612a26565b8360200151612cc4565b73ffffffffffffffffffffffffffffffffffffffff1614610e3157600080fd5b806000015173ffffffffffffffffffffffffffffffffffffffff163373ffffffffffffffffffffffffffffffffffffffff1614610e6d57600080fd5b8060a001513414610e7d57600080fd5b60016002811115610e8a57fe5b8161010001516002811115610e9b57fe5b14610ea557600080fd5b806040015173ffffffffffffffffffffffffffffffffffffffff166108fc349081150290604051600060405180830381858888f19350505050158015610eef573d6000803e3d6000fd5b506000610f028383608001513334610a63565b90506040518060800160405280848152602001836080015173ffffffffffffffffffffffffffffffffffffffff1681526020013373ffffffffffffffffffffffffffffffffffffffff1681526020013481525060026000846040015173ffffffffffffffffffffffffffffffffffffffff1673ffffffffffffffffffffffffffffffffffffffff16815260200190815260200160002060008381526020019081526020016000206000820151816000015560208201518160010160006101000a81548173ffffffffffffffffffffffffffffffffffffffff021916908373ffffffffffffffffffffffffffffffffffffffff16021790555060408201518160020160006101000a81548173ffffffffffffffffffffffffffffffffffffffff021916908373ffffffffffffffffffffffffffffffffffffffff1602179055506060820151816003015590505050505050565b600080600080600180549050861061106b57600080fd5b611073612ffb565b6001878154811061108057fe5b9060005260206000209060090201604051806101200160405290816000820160009054906101000a900473ffffffffffffffffffffffffffffffffffffffff1673ffffffffffffffffffffffffffffffffffffffff1673ffffffffffffffffffffffffffffffffffffffff168152602001600182018054600181600116156101000203166002900480601f0160208091040260200160405190810160405280929190818152602001828054600181600116156101000203166002900480156111895780601f1061115e57610100808354040283529160200191611189565b820191906000526020600020905b81548152906001019060200180831161116c57829003601f168201915b505050505081526020016002820160009054906101000a900473ffffffffffffffffffffffffffffffffffffffff1673ffffffffffffffffffffffffffffffffffffffff1673ffffffffffffffffffffffffffffffffffffffff168152602001600382018054600181600116156101000203166002900480601f0160208091040260200160405190810160405280929190818152602001828054600181600116156101000203166002900480156112815780601f1061125657610100808354040283529160200191611281565b820191906000526020600020905b81548152906001019060200180831161126457829003601f168201915b505050505081526020016004820160009054906101000a900473ffffffffffffffffffffffffffffffffffffffff1673ffffffffffffffffffffffffffffffffffffffff1673ffffffffffffffffffffffffffffffffffffffff1681526020016005820154815260200160068201548152602001600782015481526020016008820160009054906101000a900460ff16600281111561131c57fe5b600281111561132757fe5b815250509050806080015173ffffffffffffffffffffffffffffffffffffffff163373ffffffffffffffffffffffffffffffffffffffff161461136957600080fd5b60026000826040015173ffffffffffffffffffffffffffffffffffffffff1673ffffffffffffffffffffffffffffffffffffffff16815260200190815260200160002060008781526020019081526020016000206000015460026000836040015173ffffffffffffffffffffffffffffffffffffffff1673ffffffffffffffffffffffffffffffffffffffff168152602001908152602001600020600088815260200190815260200160002060010160009054906101000a900473ffffffffffffffffffffffffffffffffffffffff1660026000846040015173ffffffffffffffffffffffffffffffffffffffff1673ffffffffffffffffffffffffffffffffffffffff168152602001908152602001600020600089815260200190815260200160002060020160009054906101000a900473ffffffffffffffffffffffffffffffffffffffff1660026000856040015173ffffffffffffffffffffffffffffffffffffffff1673ffffffffffffffffffffffffffffffffffffffff16815260200190815260200160002060008a81526020019081526020016000206003015494509450945094505092959194509250565b6060600080905060008090505b600180549050811015611614573373ffffffffffffffffffffffffffffffffffffffff166001828154811061155957fe5b906000526020600020906009020160000160009054906101000a900473ffffffffffffffffffffffffffffffffffffffff1673ffffffffffffffffffffffffffffffffffffffff161480156115f957508360028111156115b557fe5b60028111156115c057fe5b600182815481106115cd57fe5b906000526020600020906009020160080160009054906101000a900460ff1660028111156115f757fe5b145b156116075781806001019250505b8080600101915050611528565b506060816040519080825280602002602001820160405280156116465781602001602082028038833980820191505090505b509050600080905060008090505b600180549050811015611759573373ffffffffffffffffffffffffffffffffffffffff166001828154811061168557fe5b906000526020600020906009020160000160009054906101000a900473ffffffffffffffffffffffffffffffffffffffff1673ffffffffffffffffffffffffffffffffffffffff1614801561172557508560028111156116e157fe5b60028111156116ec57fe5b600182815481106116f957fe5b906000526020600020906009020160080160009054906101000a900460ff16600281111561172357fe5b145b1561174c578083838151811061173757fe5b60200260200101818152505081806001019250505b8080600101915050611654565b50819350505050919050565b6000606060006060600080600080600180549050891061178457600080fd5b61178c612ffb565b60018a8154811061179957fe5b9060005260206000209060090201604051806101200160405290816000820160009054906101000a900473ffffffffffffffffffffffffffffffffffffffff1673ffffffffffffffffffffffffffffffffffffffff1673ffffffffffffffffffffffffffffffffffffffff168152602001600182018054600181600116156101000203166002900480601f0160208091040260200160405190810160405280929190818152602001828054600181600116156101000203166002900480156118a25780601f10611877576101008083540402835291602001916118a2565b820191906000526020600020905b81548152906001019060200180831161188557829003601f168201915b505050505081526020016002820160009054906101000a900473ffffffffffffffffffffffffffffffffffffffff1673ffffffffffffffffffffffffffffffffffffffff1673ffffffffffffffffffffffffffffffffffffffff168152602001600382018054600181600116156101000203166002900480601f01602080910402602001604051908101604052809291908181526020018280546001816001161561010002031660029004801561199a5780601f1061196f5761010080835404028352916020019161199a565b820191906000526020600020905b81548152906001019060200180831161197d57829003601f168201915b505050505081526020016004820160009054906101000a900473ffffffffffffffffffffffffffffffffffffffff1673ffffffffffffffffffffffffffffffffffffffff1673ffffffffffffffffffffffffffffffffffffffff1681526020016005820154815260200160068201548152602001600782015481526020016008820160009054906101000a900460ff166002811115611a3557fe5b6002811115611a4057fe5b815250509050806000015173ffffffffffffffffffffffffffffffffffffffff163373ffffffffffffffffffffffffffffffffffffffff161480611ab35750806040015173ffffffffffffffffffffffffffffffffffffffff163373ffffffffffffffffffffffffffffffffffffffff16145b611abc57600080fd5b806000015181602001518260400151836060015184608001518560a001518660c001518761010001516002811115611af057fe5b8797508696508595508494509850985098509850985098509850985050919395975091939597565b6001805490508110611b2957600080fd5b611b31612ffb565b60018281548110611b3e57fe5b9060005260206000209060090201604051806101200160405290816000820160009054906101000a900473ffffffffffffffffffffffffffffffffffffffff1673ffffffffffffffffffffffffffffffffffffffff1673ffffffffffffffffffffffffffffffffffffffff168152602001600182018054600181600116156101000203166002900480601f016020809104026020016040519081016040528092919081815260200182805460018160011615610100020316600290048015611c475780601f10611c1c57610100808354040283529160200191611c47565b820191906000526020600020905b815481529060010190602001808311611c2a57829003601f168201915b505050505081526020016002820160009054906101000a900473ffffffffffffffffffffffffffffffffffffffff1673ffffffffffffffffffffffffffffffffffffffff1673ffffffffffffffffffffffffffffffffffffffff168152602001600382018054600181600116156101000203166002900480601f016020809104026020016040519081016040528092919081815260200182805460018160011615610100020316600290048015611d3f5780601f10611d1457610100808354040283529160200191611d3f565b820191906000526020600020905b815481529060010190602001808311611d2257829003601f168201915b505050505081526020016004820160009054906101000a900473ffffffffffffffffffffffffffffffffffffffff1673ffffffffffffffffffffffffffffffffffffffff1673ffffffffffffffffffffffffffffffffffffffff1681526020016005820154815260200160068201548152602001600782015481526020016008820160009054906101000a900460ff166002811115611dda57fe5b6002811115611de557fe5b81525050905060016002811115611df857fe5b8161010001516002811115611e0957fe5b14611e1357600080fd5b806000015173ffffffffffffffffffffffffffffffffffffffff163373ffffffffffffffffffffffffffffffffffffffff161480611e805750806040015173ffffffffffffffffffffffffffffffffffffffff163373ffffffffffffffffffffffffffffffffffffffff16145b611e8957600080fd5b600260018381548110611e9857fe5b906000526020600020906009020160080160006101000a81548160ff02191690836002811115611ec457fe5b02179055505050565b600460009054906101000a900473ffffffffffffffffffffffffffffffffffffffff1673ffffffffffffffffffffffffffffffffffffffff163373ffffffffffffffffffffffffffffffffffffffff1614611f73576040517f08c379a00000000000000000000000000000000000000000000000000000000081526004018080602001828103825260228152602001806131ba6022913960400191505060405180910390fd5b600460009054906101000a900473ffffffffffffffffffffffffffffffffffffffff1673ffffffffffffffffffffffffffffffffffffffff16ff5b600460009054906101000a900473ffffffffffffffffffffffffffffffffffffffff1681565b6000809054906101000a900473ffffffffffffffffffffffffffffffffffffffff1673ffffffffffffffffffffffffffffffffffffffff163373ffffffffffffffffffffffffffffffffffffffff161461202d57600080fd5b80600360006101000a81548173ffffffffffffffffffffffffffffffffffffffff021916908373ffffffffffffffffffffffffffffffffffffffff16021790555050565b600080600360009054906101000a900473ffffffffffffffffffffffffffffffffffffffff1690508073ffffffffffffffffffffffffffffffffffffffff16634d221b85856040518263ffffffff1660e01b8152600401808273ffffffffffffffffffffffffffffffffffffffff1673ffffffffffffffffffffffffffffffffffffffff16815260200191505060206040518083038186803b15801561211657600080fd5b505afa15801561212a573d6000803e3d6000fd5b505050506040513d602081101561214057600080fd5b810190808051906020019092919050505080156122135750828173ffffffffffffffffffffffffffffffffffffffff16636bfd4def866040518263ffffffff1660e01b8152600401808273ffffffffffffffffffffffffffffffffffffffff1673ffffffffffffffffffffffffffffffffffffffff16815260200191505060206040518083038186803b1580156121d657600080fd5b505afa1580156121ea573d6000803e3d6000fd5b505050506040513d602081101561220057600080fd5b8101908080519060200190929190505050145b15612222576001915050612228565b60009150505b92915050565b6040518060800160405280605f81526020016131dc605f91396040516020018082805190602001908083835b6020831061227d578051825260208201915060208101905060208303925061225a565b6001836020036101000a0380198251168184511680821785525050505050509050019150506040516020818303038152906040528051906020012081565b6122ca3386338686868a61260b565b6122d357600080fd5b6122de336001612071565b6122e757600080fd5b6122f2856002612071565b6122fb57600080fd5b612306836005612071565b61230f57600080fd5b42811161231b57600080fd5b61232484612d4b565b1561232e57600080fd5b60016040518061012001604052808773ffffffffffffffffffffffffffffffffffffffff16815260200160416040519080825280601f01601f19166020018201604052801561238c5781602001600182028038833980820191505090505b5081526020013373ffffffffffffffffffffffffffffffffffffffff1681526020018681526020018573ffffffffffffffffffffffffffffffffffffffff168152602001848152602001838152602001428152602001600060028111156123ef57fe5b8152509080600181540180825580915050906001820390600052602060002090600902016000909192909190915060008201518160000160006101000a81548173ffffffffffffffffffffffffffffffffffffffff021916908373ffffffffffffffffffffffffffffffffffffffff1602179055506020820151816001019080519060200190612480929190613094565b5060408201518160020160006101000a81548173ffffffffffffffffffffffffffffffffffffffff021916908373ffffffffffffffffffffffffffffffffffffffff16021790555060608201518160030190805190602001906124e4929190613094565b5060808201518160040160006101000a81548173ffffffffffffffffffffffffffffffffffffffff021916908373ffffffffffffffffffffffffffffffffffffffff16021790555060a0820151816005015560c0820151816006015560e082015181600701556101008201518160080160006101000a81548160ff0219169083600281111561256f57fe5b02179055505050505050505050565b60405180608001604052806049815260200161323b604991396040516020018082805190602001908083835b602083106125cd57805182526020820191506020810190506020830392506125aa565b6001836020036101000a0380198251168184511680821785525050505050509050019150506040516020818303038152906040528051906020012081565b60008060008061261a85612e16565b92509250925060016126936040518060a001604052808d73ffffffffffffffffffffffffffffffffffffffff1681526020018c73ffffffffffffffffffffffffffffffffffffffff1681526020018b73ffffffffffffffffffffffffffffffffffffffff1681526020018a815260200189815250612e82565b84848460405160008152602001604052604051808581526020018460ff1660ff1681526020018381526020018281526020019450505050506020604051602081039080840390855afa1580156126ed573d6000803e3d6000fd5b5050506020604051035173ffffffffffffffffffffffffffffffffffffffff168b73ffffffffffffffffffffffffffffffffffffffff16149350505050979650505050505050565b6000809054906101000a900473ffffffffffffffffffffffffffffffffffffffff1673ffffffffffffffffffffffffffffffffffffffff163373ffffffffffffffffffffffffffffffffffffffff161461278e57600080fd5b600073ffffffffffffffffffffffffffffffffffffffff168173ffffffffffffffffffffffffffffffffffffffff1614156127c857600080fd5b8073ffffffffffffffffffffffffffffffffffffffff166000809054906101000a900473ffffffffffffffffffffffffffffffffffffffff1673ffffffffffffffffffffffffffffffffffffffff167f8be0079c531659141344cd1fd0a4f28419497f9722a3daafe3b4186f6b6457e060405160405180910390a3806000806101000a81548173ffffffffffffffffffffffffffffffffffffffff021916908373ffffffffffffffffffffffffffffffffffffffff16021790555050565b600180549050821061289757600080fd5b600060028111156128a457fe5b600183815481106128b157fe5b906000526020600020906009020160080160009054906101000a900460ff1660028111156128db57fe5b146128e557600080fd5b3373ffffffffffffffffffffffffffffffffffffffff166001838154811061290957fe5b906000526020600020906009020160000160009054906101000a900473ffffffffffffffffffffffffffffffffffffffff1673ffffffffffffffffffffffffffffffffffffffff161461295b57600080fd5b3373ffffffffffffffffffffffffffffffffffffffff1661298461297e84612a26565b83612cc4565b73ffffffffffffffffffffffffffffffffffffffff16146129a457600080fd5b80600183815481106129b257fe5b906000526020600020906009020160010190805190602001906129d6929190613114565b50600160028111156129e457fe5b600183815481106129f157fe5b906000526020600020906009020160080160006101000a81548160ff02191690836002811115612a1d57fe5b02179055505050565b60006001805490508210612a3957600080fd5b600060018381548110612a4857fe5b906000526020600020906009020160000160009054906101000a900473ffffffffffffffffffffffffffffffffffffffff1660018481548110612a8757fe5b906000526020600020906009020160020160009054906101000a900473ffffffffffffffffffffffffffffffffffffffff1660018581548110612ac657fe5b906000526020600020906009020160040160009054906101000a900473ffffffffffffffffffffffffffffffffffffffff1660018681548110612b0557fe5b90600052602060002090600902016005015460018781548110612b2457fe5b906000526020600020906009020160060154604051602001808673ffffffffffffffffffffffffffffffffffffffff1673ffffffffffffffffffffffffffffffffffffffff1660601b81526014018573ffffffffffffffffffffffffffffffffffffffff1673ffffffffffffffffffffffffffffffffffffffff1660601b81526014018473ffffffffffffffffffffffffffffffffffffffff1673ffffffffffffffffffffffffffffffffffffffff1660601b81526014018381526020018281526020019550505050505060405160208183030381529060405280519060200120905060606040518060400160405280601c81526020017f19457468657265756d205369676e6564204d6573736167653a0a333200000000815250905080826040516020018083805190602001908083835b60208310612c795780518252602082019150602081019050602083039250612c56565b6001836020036101000a038019825116818451168082178552505050505050905001828152602001925050506040516020818303038152906040528051906020012092505050919050565b600080600080612cd385612e16565b92509250925060018684848460405160008152602001604052604051808581526020018460ff1660ff1681526020018381526020018281526020019450505050506020604051602081039080840390855afa158015612d36573d6000803e3d6000fd5b50505060206040510351935050505092915050565b600080600090505b600180549050811015612e0b57828051906020012060018281548110612d7557fe5b90600052602060002090600902016003016040518082805460018160011615610100020316600290048015612de15780601f10612dbf576101008083540402835291820191612de1565b820191906000526020600020905b815481529060010190602001808311612dcd575b505091505060405180910390201415612dfe576001915050612e11565b8080600101915050612d53565b50600090505b919050565b60008060006041845114612e2957600080fd5b6020840151915060408401519050606084015160001a9250601b8360ff161015612e5457601b830192505b601b8360ff161480612e695750601c8360ff16145b612e7257600080fd5b8282829250925092509193909250565b600060405180608001604052806049815260200161323b604991396040516020018082805190602001908083835b60208310612ed35780518252602082019150602081019050602083039250612eb0565b6001836020036101000a0380198251168184511680821785525050505050509050019150506040516020818303038152906040528051906020012082600001518360200151846040015185606001518660800151604051602001808781526020018673ffffffffffffffffffffffffffffffffffffffff1673ffffffffffffffffffffffffffffffffffffffff1681526020018573ffffffffffffffffffffffffffffffffffffffff1673ffffffffffffffffffffffffffffffffffffffff1681526020018473ffffffffffffffffffffffffffffffffffffffff1673ffffffffffffffffffffffffffffffffffffffff1681526020018381526020018281526020019650505050505050604051602081830303815290604052805190602001209050919050565b604051806101200160405280600073ffffffffffffffffffffffffffffffffffffffff16815260200160608152602001600073ffffffffffffffffffffffffffffffffffffffff16815260200160608152602001600073ffffffffffffffffffffffffffffffffffffffff1681526020016000815260200160008152602001600081526020016000600281111561308e57fe5b81525090565b828054600181600116156101000203166002900490600052602060002090601f016020900481019282601f106130d557805160ff1916838001178555613103565b82800160010185558215613103579182015b828111156131025782518255916020019190600101906130e7565b5b5090506131109190613194565b5090565b828054600181600116156101000203166002900490600052602060002090601f016020900481019282601f1061315557805160ff1916838001178555613183565b82800160010185558215613183579182015b82811115613182578251825591602001919060010190613167565b5b5090506131909190613194565b5090565b6131b691905b808211156131b257600081600090555060010161319a565b5090565b9056fe4f6e6c79206f776e65722063616e2063616c6c20746869732066756e6374696f6e2e454950373132446f6d61696e28737472696e67206e616d652c737472696e672076657273696f6e2c75696e7432353620636861696e49642c6164647265737320766572696679696e67436f6e74726163742c627974657333322073616c7429756e697428616464726573732054656e616e742c2061646472657373204c6573736f722c2061646472657373204465766963652c2075696e74204665652c2075696e74205465726d29a265627a7a72315820c1a1120c4cdc204eb9682fb9671a790fb4b90473bf5e2fbd675dafe4d894caf264736f6c634300050c0032",
  "source": "pragma solidity >= 0.5.0 < 0.7.0;\n\nimport \"./IdentityOracle.sol\";\nimport \"./Ownable.sol\";\n\ncontract Renting is Ownable {\n    string private constant UNIT_TYPE = \"unit(address Tenant, address Lessor, address Device, uint Fee, uint Term)\";\n    bytes32 public constant UNIT_TYPEHASH = keccak256(abi.encodePacked(UNIT_TYPE));\n    uint256 constant chainId = 1579337915149;\n    address constant verifyingContract = 0x1C56346CD2A2Bf3202F771f50d3D14a367B48070;\n    bytes32 constant salt = 0xf2d857f4a3edcb9b78b4d503bfe733db1e3f6cdc2b7971ee739626c97e86a558;\n    string private constant EIP712_DOMAIN = \"EIP712Domain(string name,string version,uint256 chainId,address verifyingContract,bytes32 salt)\";\n    bytes32 public constant EIP712_DOMAIN_TYPEHASH = keccak256(abi.encodePacked(EIP712_DOMAIN));\n    bytes32 private constant DOMAIN_SEPARATOR = keccak256(abi.encode(\n        EIP712_DOMAIN_TYPEHASH,\n        keccak256(\"IOT Renting Usecase\"),\n        keccak256(\"1\"),\n        chainId,\n        verifyingContract,\n        salt\n    ));\n  //possible states of an agreement\n  enum AgreementState {\n    Pending,\n    Active,\n    Terminated\n  }\n\n  RentalAgreement[] private agreements;\n\n  struct RentalAgreement {\n    address payable tenant;\n    bytes tenantSignature;\n    address payable lessor;\n    bytes lessorSignature;\n    address device;\n    uint usageFee;        //\n    uint contractTerm;    //unix timestamp\n    uint creation;        //unix timestamp\n    AgreementState state;\n  }\n\n  mapping(address => mapping(bytes32 => Payment)) private payments;\n\n  struct Payment {\n    uint timestamp;\n    address device;\n    address payer;\n    uint amount;\n  }\n\n  struct Unit {\n    address Tenant;\n    address Lesssor;\n    address Device;\n    uint Fee;\n    uint Term;\n  }\n\n  address private oracle_addr;\n  address payable public owner;\n\n  constructor() public {\n    owner = msg.sender;\n  }\n\n  function destroy() public {\n    require(msg.sender == owner, \"Only owner can call this function.\");\n    selfdestruct(owner);\n  }\n\n  /// @notice asks registered oracle whether the identity is known or not\n  /// @param _addr the address of the identity address\n  /// @param _roleID the role of the identity\n  /// @return a boolean whether or not the identity is known\n  function isKnownParticipant(address _addr, uint _roleID) public view returns(bool) {\n      IdentityOracle oracle = IdentityOracle(oracle_addr);\n      if(oracle.identityExists(_addr) && oracle.getIdentityRole(_addr) == _roleID) {\n        return true;\n      } else {\n        return false;\n      }\n  }\n\n  /// @notice sets the oracle address\n  /// @dev only callable by owner\n  /// @param _addr the address of the orcle\n  function registerIdentityOracle(address _addr) public onlyOwner {\n    oracle_addr = _addr;\n  }\n\n\n\n\n  function hashUnit(Unit memory _unit) private pure returns (bytes32) {\n      return keccak256(abi.encode(\n          UNIT_TYPEHASH,\n          _unit.Tenant,\n          _unit.Lesssor,\n          _unit.Device,\n          _unit.Fee,\n          _unit.Term\n      ));\n  }\n\n  function verify(address _signer, address _tenant, address lessor, address _device, uint _usageFee, uint _contractTerm, bytes memory _sig) public pure returns (bool) {\n    (uint8 v, bytes32 r, bytes32 s) = splitSignature(_sig);\n    return _signer == ecrecover(hashUnit(Unit(_tenant, lessor, _device, _usageFee, _contractTerm)), v, r, s);\n  }\n\n  /// @notice creates a rentalAgreement\n  /// @param _tenant address of the tenant\n  /// @param _lessorSignature signature of lessor of rentalAgreement\n  /// @param _device address of device\n  /// @param _usageFee fee for usage in wei\n  /// @param _contractTerm timestamp, when rentalAgreement times out\n  function createRenting(address payable _tenant, bytes memory _lessorSignature, address _device, uint _usageFee, uint _contractTerm) public {\n\n\n\n    require(verify(msg.sender, _tenant, msg.sender, _device, _usageFee, _contractTerm, _lessorSignature));\n\n    //check if sender is Manufacturer, tenant is Customer and device is Device\n    require(isKnownParticipant(msg.sender, 1));\n    require(isKnownParticipant(_tenant, 2));\n    require(isKnownParticipant(_device, 5));\n    //check lessorSignature\n    // bytes32 message = keccak256(abi.encodePacked(_tenant, msg.sender, _device, _usageFee, _contractTerm));\n    // bytes memory prefix = \"\\x19Ethereum Signed Message:\\n32\";\n    // require(recoverSigner(keccak256(abi.encodePacked(prefix, message)), _lessorSignature) == msg.sender);\n    //check contractTerm to be in future!\n    require(_contractTerm > now);\n    //check that no rentalAgreement with same parameters exists\n    require(!exists(_lessorSignature));\n    agreements.push(RentalAgreement(_tenant, new bytes(65), msg.sender, _lessorSignature, _device, _usageFee, _contractTerm, now, AgreementState.Pending));\n  }\n\n  function exists(bytes memory _lessorSignature) private view returns (bool) {\n    for(uint i = 0; i < agreements.length; i++) {\n      if(keccak256(agreements[i].lessorSignature) == keccak256(_lessorSignature)) {\n        return true;\n      }\n    }\n    return false;\n  }\n\n  function getIDs(uint _stateID) public returns (uint[] memory) {\n    uint count = 0;\n    for(uint i = 0; i < agreements.length; i++) {\n      if(agreements[i].tenant == msg.sender && agreements[i].state == AgreementState(_stateID) ) {\n        count++;\n      }\n    }\n    uint[] memory rentalAgreementIDs = new uint[](count);\n    uint index = 0;\n    for(uint i = 0; i < agreements.length; i++) {\n      if(agreements[i].tenant == msg.sender && agreements[i].state == AgreementState(_stateID) ) {\n        rentalAgreementIDs[index] = i;\n        index++;\n      }\n    }\n    return rentalAgreementIDs;\n  }\n\n  function getByID(uint _id) public view returns (address _tenant, bytes memory _tenantSignature, address _lessor, bytes memory _lessorSignature, address _device, uint _usageFee, uint _contractTerm, uint _state) {\n    require(_id < agreements.length);\n    RentalAgreement memory agreement = agreements[_id];\n    require(msg.sender == agreement.tenant || msg.sender == agreement.lessor);\n    return (agreement.tenant, agreement.tenantSignature, agreement.lessor, agreement.lessorSignature, agreement.device, agreement.usageFee, agreement.contractTerm, uint256(agreement.state));\n\n  }\n\n  function accept(uint _id, bytes memory _signature) public {\n    require(_id < agreements.length);\n    require(agreements[_id].state == AgreementState.Pending);\n    require(agreements[_id].tenant == msg.sender);\n    require(recoverSigner(getRentalAgreementHash(_id), _signature) == msg.sender);\n    agreements[_id].tenantSignature = _signature;\n    agreements[_id].state = AgreementState(1);\n  }\n\n  function splitSignature(bytes memory _sig) internal pure returns (uint8 v, bytes32 r, bytes32 s) {\n    require(_sig.length == 65);\n    assembly {\n        // first 32 bytes, after the length prefix.\n        r := mload(add(_sig, 32))\n        // second 32 bytes.\n        s := mload(add(_sig, 64))\n        // final byte (first byte of the next 32 bytes).\n        v := byte(0, mload(add(_sig, 96)))\n    }\n    if (v < 27) {\n      v += 27;\n    }\n\n    require (v == 27 || v == 28);\n    return (v, r, s);\n  }\n\n  function recoverSigner(bytes32 _message, bytes memory _sig) internal pure returns (address) {\n    (uint8 v, bytes32 r, bytes32 s) = splitSignature(_sig);\n    return ecrecover(_message, v, r, s);\n  }\n\n  function payForUsage(uint _id, uint _timestamp) payable public {\n    //todo: check _timestamp to be in the past!\n    require(_id < agreements.length);\n    RentalAgreement memory rentalAgreement = agreements[_id];\n    //rentalAgreement must be accepted (and therefore signed) by sender\n    require(recoverSigner(getRentalAgreementHash(_id), rentalAgreement.tenantSignature) == msg.sender);\n    require(msg.sender == rentalAgreement.tenant);\n    require(msg.value == rentalAgreement.usageFee);\n    require(rentalAgreement.state == AgreementState.Active);\n    rentalAgreement.lessor.transfer(msg.value);\n    bytes32 paymentHash = getPaymentHash(_timestamp, rentalAgreement.device, msg.sender, msg.value);\n    payments[rentalAgreement.lessor][paymentHash] = Payment(_timestamp, rentalAgreement.device, msg.sender, msg.value);\n  }\n\n  function getRentalAgreementHash(uint _id) private returns (bytes32) {\n    require(_id < agreements.length);\n    bytes32 message = keccak256(abi.encodePacked(agreements[_id].tenant, agreements[_id].lessor, agreements[_id].device, agreements[_id].usageFee, agreements[_id].contractTerm));\n    bytes memory prefix = \"\\x19Ethereum Signed Message:\\n32\";\n    return keccak256(abi.encodePacked(prefix, message));\n  }\n\n  function getPaymentHash(uint _timestamp, address _device, address _payer, uint _amount) public view returns (bytes32) {\n    bytes32 message = keccak256(abi.encodePacked(_timestamp, _device, _payer, _amount));\n    // bytes memory prefix = \"\\x19Ethereum Signed Message:\\n32\";\n    // return keccak256(abi.encodePacked(prefix, message));\n    return message;\n  }\n\n  function checkUsagePayment(uint _agreementID, bytes32 _paymentHash) public view returns(uint, address, address, uint) {\n    require(_agreementID < agreements.length);\n    RentalAgreement memory rentalAgreement = agreements[_agreementID];\n    require(msg.sender == rentalAgreement.device);\n    return (payments[rentalAgreement.lessor][_paymentHash].timestamp, payments[rentalAgreement.lessor][_paymentHash].device, payments[rentalAgreement.lessor][_paymentHash].payer, payments[rentalAgreement.lessor][_paymentHash].amount);\n  }\n\n  function terminate(uint _agreementID) public {\n    require(_agreementID < agreements.length);\n    RentalAgreement memory rentalAgreement = agreements[_agreementID];\n    require(rentalAgreement.state == AgreementState.Active);\n    require(msg.sender == rentalAgreement.tenant || msg.sender == rentalAgreement.lessor);\n    agreements[_agreementID].state = AgreementState.Terminated;\n  }\n\n}\n",
  "sourcePath": "C:/Users/sebastianka/Git/thesis/application/smart-contracts/contracts/Renting.sol",
  "compiler": {
    "name": "solc",
    "version": "0.5.12+commit.7709ece9.Emscripten.clang"
  },
  "schemaVersion": "3.0.20",
  "updatedAt": "2020-01-18T16:15:44.791Z",
  "devdoc": {
    "methods": {
      "createRenting(address,bytes,address,uint256,uint256)": {
        "params": {
          "_contractTerm": "timestamp, when rentalAgreement times out",
          "_device": "address of device",
          "_lessorSignature": "signature of lessor of rentalAgreement",
          "_tenant": "address of the tenant",
          "_usageFee": "fee for usage in wei"
        }
      },
      "isKnownParticipant(address,uint256)": {
        "params": {
          "_addr": "the address of the identity address",
          "_roleID": "the role of the identity"
        },
        "return": "a boolean whether or not the identity is known"
      },
      "registerIdentityOracle(address)": {
        "details": "only callable by owner",
        "params": {
          "_addr": "the address of the orcle"
        }
      },
      "transferOwnership(address)": {
        "details": "Allows the current owner to transfer control of the contract to a newOwner.",
        "params": {
          "newOwner": "The address to transfer ownership to."
        }
      }
    }
  },
  "userdoc": {
    "methods": {
      "createRenting(address,bytes,address,uint256,uint256)": {
        "notice": "creates a rentalAgreement"
      },
      "isKnownParticipant(address,uint256)": {
        "notice": "asks registered oracle whether the identity is known or not"
      },
      "registerIdentityOracle(address)": {
        "notice": "sets the oracle address"
      }
    }
  }
}